:020000040800F2
:10000000008000109D1F0008D11F0008D11F0008AC
:10001000D11F0008D11F0008D11F000800000000F8
:10002000000000000000000000000000D11F0008D8
:10003000D11F000800000000D11F0008D11F0008D8
:10004000D11F0008D11F0008D11F0008D11F0008D0
:10005000D11F0008D11F0008D11F0008D11F0008C0
:10006000D11F0008D11F0008D11F0008D11F0008B0
:10007000D11F0008D11F0008D11F0008D11F0008A0
:10008000D11F0008D11F0008D11F0008D11F000890
:10009000D11F0008D11F0008D11F0008D11F000880
:1000A000D11F0008D11F0008D11F0008D11F000870
:1000B000D11F0008D11F0008D11F0008D11F000860
:1000C000D11F0008D11F0008D11F0008D11F000850
:1000D000D11F0008D11F0008D11F0008D11F000840
:1000E000D11F0008D11F0008D11F0008D11F000830
:1000F000D11F0008D11F0008D11F0008D11F000820
:10010000D11F0008D11F0008D11F0008D11F00080F
:10011000D11F0008D11F0008D11F0008D11F0008FF
:10012000D11F0008D11F0008D11F0008D11F0008EF
:10013000D11F0008D11F0008D11F0008D11F0008DF
:10014000D11F0008D11F0008D11F0008D11F0008CF
:10015000D11F0008D11F0008D11F0008D11F0008BF
:10016000D11F0008D11F0008D11F0008D11F0008AF
:10017000D11F0008D11F0008D11F0008D11F00089F
:10018000D11F0008D11F000810B5054C237833B9E2
:10019000044B13B10448AFF300800123237010BD5A
:1001A000E000002000000000347B00080C4B43B14D
:1001B0000C480D4910B5AFF300800C48036823B913
:1001C00010BD0A48036833B97047094B002BF7D0BC
:1001D000BDE810401847064B002BF5D0184700BF6C
:1001E00000000000347B0008E4000020D80000205C
:1001F00000000000154B002B08BF134B9D46A3F5D4
:10020000803A00218B460F461348144A121A06F012
:100210008FFC0F4B002B00D098470E4B002B00D0CB
:1002200098470020002104000D000D48002802D04E
:100230000C4801F0AFFD06F02DFC2000290001F074
:10024000FFFD01F0A4FD00BF0000080000800010C9
:1002500000000000311E0008E0000020AC47002034
:10026000951D0008000000007047704704F07AB93F
:1002700004F05AB904F078B904F07AB903680BB9FC
:10028000031D03600068704770B50B4E054630468D
:10029000FFF7F4FF284604F089F80446284604F0E6
:1002A00061F901F095FD68603046FFF7E7FF201C1B
:1002B00018BF0120404270BDFC00002038B5054643
:1002C0000948FFF7DBFF284604F072F8003018BF3A
:1002D00001204442686808B101F090FD0248FFF730
:1002E000CDFF204638BD00BFFC0000202DE9F041C5
:1002F0000A4C0F461646054698462046FFF7BEFFB5
:1003000043463A463146284601F0E6F9054620467E
:10031000FFF7B4FF2846BDE8F08100BFFC000020D5
:100320002DE9F84316461C4680460F4604F01AF99C
:100330000546404604F01CF98146404604F014F995
:10034000B6FBF5F305FB136303B917B94FF0FF34A0
:1003500043E0331981444B45F8D82148FFF78EFF1D
:10036000C4B33146404604F0DFF8B6FBF0F300FBBF
:100370001363C31AA34228BF2346BA0701D19D4283
:1003800020D9AB4228BF2B4699461A463946D8F8A1
:10039000040006F0C2FBA94507D2D8F80400A5EB7B
:1003A0000902FF21484406F0C3FBD8F804202B467D
:1003B0003146404604F060F850B9A4EB09044E44BD
:1003C0004F44CDE7B3FBF5F36B4399463A46EFE76D
:1003D0004FF0FF340248FFF751FF2046BDE8F88395
:1003E000FC000020F8B50D461446064604F0C0F89F
:1003F0000746304604F0B8F838442F19B84202D204
:100400004FF0FF30F8BD0FD81048FFF737FFC4B1E9
:100410002946304603F0CEFF88B92946304604F01D
:1004200083F8241A0544F2E73946304604F07CF894
:10043000B7FBF0F303FB10700028E1D1E4E74FF0C5
:10044000FF340248FFF71AFF2046F8BDFC000020E9
:10045000C36810B504460BB19B689847204610BD91
:10046000024B1A680AB91A1D1A6070476801002009
:1004700010B480B1146853680CB9DA070BD513F0C7
:10048000010F4FEA63031CBFC25814591844234696
:100490005DF8044B18475DF8044B704770B50A4D82
:1004A0002B68834204460ED0061DD0F8D820D0F821
:1004B000D4100023304604F025FDD4F8DC1030467B
:1004C00004F052FD2C6070BD70010020036870B50F
:1004D0009B6804460D469847094BC4F8DC501B68DE
:1004E0009C4209D12946201D04F03EFD2368204688
:1004F000DB68BDE8704018472046FFF7CFFFF5E7FF
:100500007001002038B5036804469B680D46984783
:100510002046FFF7C3FF2946201D04F043FD236852
:100520000546DB6820469847284638BDF7B51F4684
:10053000036804469B680D46164698472046FFF719
:10054000ADFF94F8E0300193089B009329463B46A9
:100550003246201D04F056FD23680546DB68204620
:100560009847284603B0F0BD2DE9F043064699466A
:10057000274B46F8043B85B0044600250F469046BD
:1005800000219822304606F0D3FA04AB0295039579
:1005900013E9030004F1A0021E4B82E80300C4F833
:1005A000A83048F20703C4F8AC301B4BC4F8B45071
:1005B000C4F8B040C4F8B820C4F8BC30BFF36F8FA3
:1005C000BFF34F8F1022294604F1C00006F0B0FAA5
:1005D0000823C4F8D430114BC4F8DC30FF2384F86E
:1005E000E0309DF93030009342464B463946304664
:1005F00084F8D05084F8D150C4F8D85004F0D4FB1B
:100600002046FFF74BFF204605B0BDE8F08300BF52
:100610003470000801A090E87104000840420F0007
:1006200010B5044B044640F8C03BFFF711FF2046CD
:1006300010BD00BF3470000810B50446FFF7F0FF8E
:10064000204601F0D9FB204610BD38B5044648B11C
:100650005830A04206D0A0F12C051438FFF7F8FE60
:100660002846F6E7204638BD38B500250446294619
:1006700040F8045B282206F05BFA1022294604F1B8
:10068000180006F055FA204638BD000010B50A4C97
:100690002046FFF7E9FF04F12C00FFF7E5FF0023F8
:1006A000A3652046E365054A84F860300449BDE847
:1006B000104001F06ABB00BF0401002000000020D0
:1006C0004B0600080020704700207047052804D022
:1006D0000628034818BF002070470248704700BF33
:1006E0007C7000084C7000080C22002106F020BA33
:1006F00010B50446A8B103689BB1406808B15B6AB5
:100700009847A06838B12368D968490000F028F9F3
:10071000A06806F0EBF920460C21BDE8104000F07F
:100720001FB910BD70B5044616460D4699B190B17B
:100730000B6A9847606048B156B1E968022006F03C
:100740009BF9A06020B96B6A60689847034870BD48
:100750002560002070BD024870BD00BF80AEFFFF65
:1007600000AFFFFF2DE9F0410E4688B01746044662
:10077000002857D00368002B54D08268002A51D03B
:10078000DA68BA4217D21B694068984705460028C4
:1007900034D1236860685B693A463146984705461C
:1007A00060BB236860689B6969469847054628BB1B
:1007B00023689F686E462368D4F80880DA6836217B
:1007C000404608EB020506F0B3F923685C21DA68BD
:1007D000284606F0ADF9013E4346681E47449F4255
:1007E00014D1236860681B699847054630B92368AF
:1007F00060685D69DA684146A84705462021684679
:1008000000F0AEF8284608B0BDE8F08171781A789B
:100810004A4003F8012B427816F8011F4A4000F8BD
:10082000012FDCE7004DEDE700AFFFFF10B440B152
:10083000036833B1846824B15B6940685DF8044B98
:10084000184702485DF8044B704700BF00AFFFFF38
:100850002DE9F0410E4688B0044630B3036823B357
:10086000856815B3D3F80C8040689B696946984742
:10087000C0B9236860681B69984798B923686068A5
:100880005F69DA6805EB0801B84758B92368606802
:100890005D699A686946A84720B9236860689B69C2
:1008A0003146984708B0BDE8F0810148FAE700BF3B
:1008B00000AFFFFFF0B50E4685B017461D46044653
:1008C00010B301A8FFF710FF2146012201A8FFF78E
:1008D00029FF044690B93A46314601A8FFF742FF86
:1008E000044658B90A9A294601A8FFF79FFF044613
:1008F00020B90B9901A8FFF7ABFF044601A8FFF749
:10090000F7FE204605B0F0BD004CFAE700AFFFFF50
:1009100000F08EB800F035B810B5044600F02CF8A1
:100920002046BDE8104006F0E1B810B56C2101206A
:1009300006F0A2F8044608B100F01AF8204610BDEF
:10094000012300F0E1B9002300F0DEB900F054B952
:1009500000F04AB9012100F019B8002100F016B8E2
:10096000024B0A461B680021184700BF30000020D8
:100970006C22002106F0DCB810B16C21FFF7F0BF4B
:10098000704708B56C2206F0C8F808BD0023036064
:100990004360B9B9184B8360184BC360184B0361AF
:1009A000184B4361184B8361184BC361184B0362AA
:1009B00003F17453A3F52303A3F6924343628166C4
:1009C00000207047134B8360134BC36003F17943DE
:1009D00003F5740303F501630361104B4361104B8E
:1009E000836103F1D14303F5C01303F51E63C361B3
:1009F0000C4B03620C4BE1E767E6096A85AE67BB07
:100A000072F36E3C3AF54FA57F520E518C68059BF0
:100A1000ABD9831FD89E05C107D57C3639590EF74F
:100A2000310BC0FFA78FF964A44FFABEFFF7AEBF2A
:100A30002DE9F04FCBB000F1080300931A460023D4
:100A400002A852F8044B40F823400133082BF7D199
:100A500002AC94E85004059BDDF824B0069D089F85
:100A6000DDF81CC00193ADF118024FF0000EBEF18D
:100A70000F0F62D84B7891F800901B0443EA096885
:100A8000CB7848EA030391F8028043EA0823136411
:100A9000354B53F82E301846136C4FEAF52818449E
:100AA00088EAB5188CEA070388EA75682B40804409
:100AB0007B409844019BCDF804A0D8444344184699
:100AC00046EA04094FEA743306EA040B83EAB403E6
:100AD00009EA0A0949EA0B0983EAB4530EF1010E47
:100AE0004B44BEF1400F434401F1040102F1040202
:100AF000BB461BD1029309970690CDF820C00795FD
:100B000003940496CDF814A00023009A02A9126859
:100B100051F823100A440099013341F8042B082BA3
:100B20000091F2D100204BB0BDE8F08FB24667468D
:100B30002646AC461C46054699E7936BD2F80490CE
:100B40004FEAF34888EA734888EA9328536A1846BC
:100B5000136818444FEAB94383EAF913804483EADF
:100B6000D90908EB090392E7BC70000803682DE976
:100B7000F041054603F03F0013449A422B6084BFC6
:100B80006B6801330F46144688BF6B6008B3C0F131
:100B90004006964213D805F128083246404405F035
:100BA000BCFF41462846FFF743FFD8B93744A61B90
:100BB0003446311B3F2C39440DD80F46002084B1F8
:100BC000283522463946284405F0A7FF0020BDE815
:100BD000F0811646ECE72846FFF72AFF10B9403CA3
:100BE000E7E72046BDE8F0810AB1FFF7BFBF104636
:100BF0007047FFF7F9BF000037B502680D4641683E
:100C0000530F43EAC1030446180ED1008DF80000CB
:100C1000180C02F03F028DF801008DF80330180A1D
:100C20000B0E372A8DF804304FEA11438DF802007D
:100C30008DF805308DF807104FEA112394BFC2F1EB
:100C40003802C2F178022E498DF806302046FFF7AF
:100C5000CBFF002852D1082269462046FFF786FFC5
:100C600000284BD1E37A2B7063896B70A3681B0A51
:100C7000AB70A368EB70E37B2B71E3896B71E36866
:100C80001B0AAB71E368EB71E37C2B72638A6B72B6
:100C900023691B0AAB722369EB72E37D2B73E38A32
:100CA0006B7363691B0AAB736369EB73E37E2B742D
:100CB000638B6B74A3691B0AAB74A369EB74E37F4A
:100CC0002B75E38B6B75E3691B0AAB75E369EB75F9
:100CD00094F823302B76638C6B76236A1B0AAB76F1
:100CE000236AEB76A36E4BB994F827302B77E38C0D
:100CF0006B77636A1B0AAB77636AEB7703B030BD2F
:100D0000BC710008FFF778BFF0B59DB01C460646E1
:100D100001A80F461546FFF72BFE214601A8FFF755
:100D200035FE044658B93A46314601A8FFF75CFF44
:100D3000044620B9294601A8FFF75EFF044601A832
:100D4000FFF71AFE20461DB0F0BD000030B5084D7B
:100D500011448A420BD012F8013B5840082340F35B
:100D600000042C40013B84EA5000F8D1F1E730BD8B
:100D70002083B8ED084A02601021002242608260A0
:100D80000273C181028242618261C2610262426376
:100D90008263C263704700BF0472000800EBC101A8
:100DA000406B496A0A440099FFF7A0BA04312DE963
:100DB000F843074690469946102400EBC1056A683F
:100DC0000899786B4B464244FFF7AAFA064620B1D1
:100DD000012001F04BF8013CF1D13046BDE8F88329
:100DE000F8B50746102400EBC106B26A716A786B49
:100DF000FFF7F8FA054620B1012001F037F8013C71
:100E0000F3D12846F8BD00002DE9F74F0446406BAA
:100E1000FFF730FA0646606BFFF72EFA3146804640
:100E2000606BFFF725FA384BB8FBF0F001309842C1
:100E300094BF80004FF0FF3000F0CAFF10228246BE
:100E4000324904F1240005F068FE0027D4F8289008
:100E5000AAF104023B46BB463D4601920093B8F11D
:100E6000000F24D03146606BFFF702FA019A009B15
:100E700042F8046F0135B9F1000F12D004EBCB0E2C
:100E8000DEF824108E4200D05BB1DEF82830074433
:100E90009F420AD1BBF1000F09D15B4600274FF0FA
:100EA000010B0644A8EB0008D7E70123F9E70AEB9A
:100EB00085014AF82560B9F1000F19D1C4F83090C6
:100EC000013D0120CE466B1C12D004EBC0070A681E
:100ED000BB6A51F8046D1A44921BB2F5805FBA6286
:100EE00004D37E6220B1C4F828E00020013DEAE787
:100EF000BAF1000F05D0504603B0BDE8F04F00F046
:100F00007DBF03B0BDE8F08FFEFFFF1F340000205F
:100F10002DE9F04183691360A2B006468846144665
:100F2000002502AFB369B5EBD31F19D22268009731
:100F3000803A2260802341463046FFF72FFF38B9C0
:100F400080235A1EB95CFF2905D022681344236010
:100F500022B0BDE8F0811346002AF2D10135E1E765
:100F60000020F5E72DE9F04FA5B09A46319CDDF859
:100F7000C8800123236002AC0094082307468B46F7
:100F80001546FFF70BFF064628B14FF0FF363046F7
:100F900025B0BDE8F08F224604214FF0FF30FFF767
:100FA000D5FE2F9BBDF80A401E80BDF80830C3F364
:100FB0000B02A8F80020339A03F470431380349B8B
:100FC000220B1A70B8F80030FA899342814607DB89
:100FD00040F6FE72934203D0319A00231360D6E7A5
:100FE000309BC4F30B040835EBB104AB4FF0800A1F
:100FF0002E9344B3A245D0462E9B0093A8BFA04693
:1010000043462A4659463846FFF7C8FE0028BCD159
:1010100048462E9A4146FFF799FEA4EB0804814604
:10102000A4B24544E5E75445E3DD2F9B359A1C8087
:10103000BB6B013C2544B5FBF3F505FB03331360A3
:101040006FF00506A3E7039B9945C5D1BDF80A30AB
:101050002F9AC3F30B031380BB6B359A013DB5FB8D
:10106000F3F505FB0333B9E72DE9F04F85B093465F
:10107000BDF83820109DDDF844901343ADF80830DA
:101080009DF83C3045EA0333ADF80A3007460023AB
:101090008A4602AA04214FF0FF300393FFF756FE61
:1010A000034625B14A462946FFF750FE03460393FF
:1010B000BB6B082B2CD9D7F83C8008220DEB020122
:1010C000404605F02AFD45B308220DEB02014046DB
:1010D00005F023FDBE6B083EAE4228BF2E463246C9
:1010E000494608F1080005F018FDAD1B06F108049B
:1010F000CDF8008023465A4651463846FFF756FE43
:10110000804668B16FF00108404605B0BDE8F08F39
:10111000082400260DEB0408EAE72E460824E7E73A
:101120005C4455B14E4400962B4622465146384603
:10113000FFF73CFE0028E5D12C44BB6B129A013C22
:10114000B4FBF3F404FB03331360DDE700B589B0AF
:10115000049306ABADF818200393002208230293F2
:101160000192009240F6FE73ADF81A200792FFF745
:101170007BFF09B05DF804FB2DE9F04F1C46836B43
:10118000A5B0082B8ABF9BB28023D0F83C80029385
:1011900098BF0DF11008CDF80080082307468B4654
:1011A0009246FFF7FBFD20B14FF0FF3025B0BDE8C0
:1011B000F08FB8F80250B8F90020C5F30B05002AEB
:1011C00005F1080308DABB6B2E9A013CB4FBF3F47B
:1011D00004FB03331360E9E7BA692344934231D235
:1011E000CBF10102D2B20AF1080A08F108034FF06C
:1011F00008090392029AA2EB0906B6B2AE42A8BF52
:101200002E4666B9B144CDF800804B46224603997C
:101210003846FFF7CBFD60B16FF00100C6E70093E1
:101220005246334659463846FFF7B8FD0028E9D004
:10123000BAE7AD1BADB24C44B24443468146002DE3
:10124000D8D1C0E76FF00600B0E72DE9F047856B15
:1012500017460F22B2FBF5F202FB055540F6FF726E
:10126000914288B004460E4624D03A0422D4017B31
:10127000019307AA0492119A03920023BDF840201B
:101280000292C1F1010100932A463346C9B2FFF729
:10129000EBFE002850D1237B226AC3F1010317F42F
:1012A000804F45EA030514BF022300231D4342F883
:1012B0002650079D00270DF11C09E3891FFA87F8C6
:1012C000984520DA236A53F8286036F0070218D0D0
:1012D00094F80CA006F001039A4512D1CDF80090C5
:1012E0002B4651462046FFF747FF28BB06F006066F
:1012F000236A3543CAF1010A45EA0A0543F8285032
:10130000079D0137D9E7228A217B013292B2C1F1D0
:101310000101228207ABC9B22046FFF717FF58B977
:10132000217B6561C1F1010323732046FFF758FD5E
:10133000002818BF6FF0010008B0BDE8F0872DE964
:10134000F04F456895B00446002D40F0B48001216F
:10135000083000F08FFC012807D06368002B40F0B4
:10136000AA80012000F082FDF7E7E089800000F00C
:101370002FFDE6892062ADF82E502B4629465A1CD7
:10138000B34292B204DA40F8235001211346F6E743
:1013900009B1ADF82E30012000F02CFD4FF0FF33E5
:1013A000A361E061082000F025FD0546FEF75CFF23
:1013B00065632846FEF768FF606BFEF757FF082855
:1013C00038BF08200828A06302D000F001FDE063C8
:1013D0002046FFF719FD0DF12B0700250DF1400800
:1013E0003E46A9460DF13C0B022D5FFA85FA51D01D
:1013F00004EBC502A169926A914294BFA161A26106
:1014000007F8019F424651462046CDF82480C8F88F
:1014100000902BF81590FFF77BFD099B1B6808F1E6
:1014200004081BB901233B700135DDE70DAB0793C1
:101430000CAB05930DF12E0304930EAB03930DF14A
:101440003203019312AB009306960823CDF808905F
:10145000002251462046FFF785FD063008BFCDF833
:1014600038900E9B2BB1BDF82E2040F6FE739A42A9
:1014700004D051462046FFF7B3FCD3E70D9ABDF8E0
:101480004830626102222BF815303A7084F80CA0C3
:101490002382C9E79DF82C30012B10D19DF82D50E7
:1014A000012D29D10021217304F114032A4620467D
:1014B000FFF74CFE6560002015B0BDE8F08F022BF1
:1014C0001AD19DF82D30022B16D1BDF83C30BDF855
:1014D0003E20934201DC002B3CD100232373217B6F
:1014E00014AB03EB4103C1F1010133F8143C238237
:1014F000C9B22046FFF774FC0DAD0CAF0DF12E08FC
:10150000217B626914AB03EB810353F8103C9A42D0
:101510001DD20EAB0393012302934FF000090DF18E
:101520003203019307954B4606960597CDF8108038
:10153000CDF800902046FFF715FD0E9B63B901938F
:1015400000931A4640F6FF712046FFF77EFE012306
:101550006360B0E70123C1E7BDF83000BDF82E108D
:10156000226A10F4004F04D042F821900D9B636171
:10157000C6E763699DF82BC094F80CE010F4804F27
:1015800043EA0C7314BF0220002043EA0E03034316
:1015900042F82130EAE7F0B51D4643688DB00446B5
:1015A0000F4616462BB1E3899F4208DB6FF004001B
:1015B00003E0FFF7C4FE0028F5D00DB0F0BD15B96B
:1015C0000DF126050026236A53F8272002F00101B9
:1015D00022F0704222F00702E2B10BAB07930DF14B
:1015E000230306930DF12603059309AB04930AAB7D
:1015F0000393139B0293129B01930095334620465D
:10160000FFF7B0FC0028D8D10A9B002B08BF6FF071
:101610000300D2E76FF00200CFE713B50024019476
:10162000049C0094FFF7B7FF02B010BD38B54368C3
:101630000446C3B1406BFEF741FE656B2DB12846F1
:10164000FEF713FE284600F0D7FBE06908B100F072
:10165000D3FB206A08B100F0D1FBE06B18B100F0B9
:10166000CDFB0023E3630020A060606038BD000074
:10167000044B10B50360436804460BB1FFF7D6FF77
:10168000204610BD0472000810B50446FFF7F0FFB5
:10169000204600F0B1FB204610BD0000EFF31083A0
:1016A000DB4372B6044A117829B9044903F00103F7
:1016B0000B70012313707047750100207401002026
:1016C000034B00221A70034B1B7803B162B67047BC
:1016D000750100207401002008B510461A4605F077
:1016E0001CFA002008BD38B504460D4603685AB1FF
:1016F000826813602046012103F070F829462046D5
:10170000BDE8384003F066B8C268F2E770B50E462F
:101710000446154603F03CF8013606D02A4620461A
:101720000021BDE87040FFF7DEBF70BD0022FFF76B
:10173000EDBF000013B5044601300FD102B010BD5B
:101740009C420AD12046896803F09CF8002120467B
:1017500002B0BDE8104003F01FB90C3191F9003020
:101760005A1CEDD10023009322461946014800F08F
:10177000EFFAE3E730010180884207B502460BD05B
:10178000431C09D001310BD00023194600930548B2
:1017900000F0DEFA4FF0FF31084603B05DF804FBBD
:1017A0000146F9E73001018091F900305A1C01D15E
:1017B00018467047834201D1486870470C31F3E7FF
:1017C000421C13B504460BD0FFF7EEFF431C044642
:1017D00006D10023024600931946034800F0B8FAE8
:1017E000204602B010BD00BF300101802DE9F74F47
:1017F00090E8080404465B68984763681B6A98424F
:101800003FD0DAF82030DAF80840CAF82000A0EB20
:101810000308DAF80C30314808EA030884424646E7
:101820004FF0000727D0DAE90A239AF839B0A8FB6D
:101830000089CDE900230025BBF1000F2BD05A46CB
:101840004046494605F046FADDE9002312EB08025E
:1018500043EB090390465A46994606460F4605F063
:1018600045FAB8EB000069EB0101A94208BFA042AC
:101870000AD2CAE90A01DAE90C23B6185F41CAE9BB
:101880000C6703B0BDE8F08F013647F10007001B7D
:1018900061EB0501EDE722462B464046494605F03F
:1018A00031FA224606460F46404649462B4605F089
:1018B00029FADDE9008918EB020849EB0309A9457B
:1018C00008BFA04502D2CAE90A89D4E7013647F128
:1018D0000007B8EB040869EB0509F4E740420F0084
:1018E000824206D98A420BD9884294BF0020012047
:1018F0007047884206D98A428CBF00200120704779
:1019000001207047002070472DE9F04707464668E0
:10191000FFF76CFF7D68D7F800A06B68002B49D0FB
:10192000D5E90C89D3E90001894508BF804504D376
:10193000DAF81430BDE8F0471847D5E90623B0EBD4
:10194000080861EB09094B4508BF42452C6906D3DD
:10195000AB681E4A934219D1444528BF44462A6ABF
:10196000336A1444EA681440A342E1D0DAF8103034
:10197000204698473B685B68984722460146306A94
:10198000FFF7AEFF00B33B685B69D3E795F83920FA
:101990005AB14046494605F0A9F90C4A002305F022
:1019A000B1F9844228BF0446D9E7A3FB080103FB31
:1019B0000911F2E73369306AF26818441040DAF826
:1019C0001030BDE8F0471847BDE8F08740420F00EF
:1019D00003682DE9F74F05461B6898472B689B69FC
:1019E00098472A4B06680122002E08BF1E461F2377
:1019F00002FA03F1B1425FFA83FB02D0013BF7D157
:101A00009B464768214C3B1F1D2B28BF20273B1FAF
:101A10004FF0070A16F1FF300AFA03FA4FF00003FD
:101A200043F1FF313246C4FB0A0105F06BF96C68E3
:101A30000023236063602B685B68CDE90001984751
:101A400020626C684FF000084FF000093A46C4E984
:101A50000A89A66084F839B00120002105F046F912
:101A6000DDE900230138C4E906230123E060C4F85E
:101A700010A02846C4E90C8984F83830FFF7B6FE78
:101A8000284603B0BDE8F04FFFF73EBF40420F00CD
:101A900070B5044600F0D6F82368DB6898476368A1
:101AA0005B68A3B12046FFF7A1FE65686E68D5E9C3
:101AB0000C01D6E90023994208BF904207D3F3688E
:101AC0006B602B68002BEAD0B0689847E7E72046A8
:101AD000FFF71AFFBDE8704000F0BEB8436893F806
:101AE000383010B504460BB9FFF772FF00F0AAF8C2
:101AF0002046FFF77BFE00F0AFF86368D3E90C01E6
:101B000010BD08B5FFF7EAFF08BD000000487047A8
:101B10000C720008024B1B680BB102481847704753
:101B2000440000200C72000805F066B805F016B8F5
:101B300005F006B8F0B572B6234A244F00231360AF
:101B40004FF0E0224FF0FF36516801F00F010131F4
:101B50001D469A0002F1604202F561424FEAC30E4F
:101B6000C2F88060C2F88061002202EB0E043C449F
:101B70000132082A84F80053F7D101339942E8DC96
:101B8000134B4FF020625A6040F2FA529860DA60CC
:101B900000221D6111469C1801320C2A2176FAD1CF
:101BA0004FF0FF3259629A620A4ADA621F221A63C0
:101BB0004168036840F2000282F314889D4682F374
:101BC00010880847F0BD00BF10E000E000E100E031
:101BD00000ED00E0020000C010B588B000F032F85F
:101BE0001F2101A8FFF7A2FD0424039B019A1A609C
:101BF000962000F03BF9049B019A1A60962000F0B1
:101C000035F9013CF1D10424039B019A1A604FF489
:101C1000C87000F02BF9049B019A1A604FF4C87049
:101C200000F024F9013CEFD1DEE7EFF31080C04370
:101C300000F001007047EFF30580003018BF01206D
:101C40007047000008B5FFF729FD024A1368013309
:101C5000136008BDB8010020054B1A6832B11A683C
:101C6000013A1A601B680BB9FFF72ABD704700BF25
:101C7000B801002050E8003F0B4440E80032002A41
:101C8000F8D11846704750E8003F5B1A40E8003230
:101C9000002AF8D1184670472DE9F0411B4C1C4E24
:101CA000237836EA200628BF0646012B8EB00F4661
:101CB000904600D1FEE7174DFFF7C4FF01232370C4
:101CC000FFF7CAFF2B6800220133342101A82B60E3
:101CD00004F02EFF2B680196012BCDF808800397A6
:101CE00004D1342201A90C4804F017FF342201A9C1
:101CF0000A4804F012FF0A4B1B680BB107489847CB
:101D0000002020700EB0BDE8F08100BFC4010020AB
:101D10000101FF80BC010020C8010020FC0100205F
:101D2000C00100200FB410B5074C2178724631B9BC
:101D30000648FFF7B1FF0120207000F028F8BDE849
:101D4000104004B0704700BFC40100200001FF80B4
:101D500008B511467246FFF79FFF50B9FFF76BFFBA
:101D600010B9FFF762FF08B930BFFDE7012000F0AE
:101D70000EF8014808BD00BF0F01FF8002F008BC4B
:101D800008B508B1FFF728FFFEE70120704708B546
:101D9000FFF7F6FF012070477047704708B5FFF75F
:101DA000FBFF08BD08B5FFF7F8FF08BD037803F097
:101DB0000302012A1DBF43F002030370012000202B
:101DC0007047037823F0030343F001030370704767
:101DD00037B5054604F082FE044630B9009003464C
:101DE00001462A460248FFF7B3FF204603B030BD44
:101DF0001F010180FFF7ECBF04F078BE04F076BE4F
:101E000070477047074B08499A68084810B5043A6C
:101E100052F8044F41F8044F8142F9D14FF08052FB
:101E20009A6010BD00ED00E0FCFFFF0F8401001080
:101E300008B5FFF7E7FF02F0F7FCFFF7E2FF08BD88
:101E400008B5FFF7DDFFBDE8084003F015BE70B52B
:101E50000446FFF75BFE0646FFF753FE0546304695
:101E6000FFF74FFE401BA042F9D370BD4FF47A73C9
:101E70005843FFF7ECBF00000F49D1F8883043F416
:101E80007003C1F888300D4B1A68002042F001023F
:101E90001A6098601A6822F0A85222F410221A6080
:101EA0004FF48052DA601A6822F480221A60986136
:101EB000034B8B60704700BF00ED00E00010024054
:101EC0000000000830B5B9B014220021054668466C
:101ED00004F02EFE4422002105A804F029FE002172
:101EE000882216A804F024FE264B196811F480619C
:101EF00002D0002039B030BD01246846009400F0C3
:101F0000A3FD07230593002D38D14FF480330693AA
:101F1000079400231422089303250223012412921C
:101F200005A8072210950F931194139214931593FB
:101F300000F02EFB0028DCD10F23029003900490C8
:101F4000042168468DE8280000F07EFD0028D0D1ED
:101F50000D4B16934FF44063299316A84FF48073EA
:101F6000379300F071FF0028C3D110230B900F901E
:101F700005A8059300F00CFB2046BBE74FF4A02317
:101F80000693C6E7001002402000020008B50020BA
:101F9000FFF798FF00B9FEE708BD0000DFF820D08A
:101FA000002103E0074B5B58435004310648074BC0
:101FB00042189A42F6D3FFF75FFFFEF71BF970470E
:101FC00000800010407B000800000020DC000020A2
:101FD000FEE7704708B5032000F008F80F2002F074
:101FE00005FCFFF7F6FF002008BD0000074AD36894
:101FF00023F4E0631B041B0C43F0BF63000243F4B3
:10200000003300F4E0600343D360704700ED00E06C
:10201000324B1A69920741BF31494A6842F00102C6
:102020004A601B691B0741BF2D4A536843F00203F6
:1020300053602A4B1A69D00641BF29494A6842F0C9
:1020400004024A601B69990641BF254A536843F060
:1020500008035360214B1A69520641BF20494A6860
:1020600042F010024A601B691B0641BF1C4A5368BC
:1020700043F020035360194B1A69D00541BF18493A
:102080004A6842F040024A601B69990541BF144A00
:10209000536843F080035360104B1A69520441BFE8
:1020A0000F494A6842F480724A601B691B0441BFB1
:1020B0000B4A536843F400735360084B9A69002A33
:1020C000BFBF07494A6842F480624A609A6942F099
:1020D00000429A614CF2FA321A61704700200240C5
:1020E00020040020074A536943F48023536172B6E9
:1020F00001F58073401A0A680A5004319942FAD1F6
:1021000062B6704700200240064B5A69002ABFBFE2
:10211000054A9A6002F188329A60BABF5869C00FC6
:10212000002070470020024023016745034A53699D
:1021300043F0004353610020704700BF002002407D
:1021400070B5054602F058FB1E4C06462369D803BD
:1021500026D4236999071FD423691A071CD423693D
:10216000DB0619D423699E0616D423695D0613D4B1
:102170002369180610D42369D9050DD423699A055B
:102180000AD423695B0407D40E490A6912F4004299
:1021900002D18B69002B0CDAFFF73AFF012070BDEA
:1021A0006B1CD3D002F028FB801B8542CED80320C5
:1021B00070BD086910F00100FAD001230B611046D0
:1021C00070BD00BF002002402DE9F047244C9A4624
:1021D0002378012B0746884691463FD001234CF2D5
:1021E00050302370FFF7ACFF064620BB60601D48EF
:1021F000056815F4806517BF0368257723F48063AD
:1022000003601CBF02232377D7B9456945F0010558
:102210004561C8F800900125C8F804A04CF2503080
:10222000FFF78EFF064625B10E4A536923EA0505DE
:10223000556100F051F8002323703046BDE8F08767
:102240007B1E012B01D90025E8E749464046FFF7F0
:1022500049FF022FF7D14FF48025DFE70226ECE794
:102260002004002000200240094B10F0010F1EBF87
:102270005A6942F004025A61820742BF5A6942F425
:1022800000425A615A6942F480325A61704700BF75
:10229000002002400F4B5A6911F0010F14BF22F4C5
:1022A000006242F400625A615A694FF4FF6191FA88
:1022B000A1F1B1FA81F122F4FF6288401043586124
:1022C0005A6942F002025A615A6942F480325A61F4
:1022D000704700BF00200240144B1A7F012A02D031
:1022E0001A7F032A0CD1124A116841F4006111606F
:1022F000116821F400611160116841F400711160EE
:102300001A7F022A02D01A7F032A0CD1084A1168C8
:1023100041F480511160116821F4805111601168FD
:1023200041F48061116000221A7770472004002078
:10233000002002402DE9F047354C2378012B06465A
:10234000884662D001274CF250302770FFF7F8FE24
:10235000054640BB2F4B60601A6812F4007F1A6874
:1023600026D022F400721A601A68510506D51A6840
:1023700022F480621A600323237700E02777336812
:10238000012B1FD17068FFF76FFF4CF25030FFF741
:10239000D7FE204A536923F4004323F00403054683
:1023A0005361FFF799FF002323702846BDE8F087AB
:1023B000520505D51A6822F480621A600223DBE711
:1023C0002077DCE74FF0FF33C8F80030B768DFF85C
:1023D0004490DFF844A0B368F26813449F42E0D20F
:1023E00071683846FFF756FF4CF25030FFF7A8FEF1
:1023F000D9F8143003EA0A03C9F8143018B1C8F840
:1024000000700546CDE70137E5E70225CDE700BFBF
:10241000200400200020024005F8FFFF024B18684E
:1024200000F4C060704700BF00700040024A53686B
:1024300043F40073536070470070004037B51E4D81
:10244000AB6DDA00044618D5FFF7E8FFB0F5007F62
:1024500023D1802C29D9A02C8CBF02200120174A1F
:10246000136823F0070303431360136803F00703A3
:10247000181A18BF012003B030BDAB6D43F0805374
:10248000AB65AB6D03F080530193019BFFF7C6FF73
:10249000AB6D23F08053AB65D8E7802C07D808D00C
:1024A000A4F1700358425841D9E70020D7E7032030
:1024B000D5E70220D3E700BF001002400020024011
:1024C0002F4B9A6812F00C0F10B509D09A6802F0E1
:1024D0000C020C2A2DD1DA6802F00302012A28D15D
:1024E0001A682849120755BFD3F894201A68C2F316
:1024F0000322C2F3031251F82220996811F00C0F45
:102500000CBF10460020996801F00C010C2930D155
:10251000DC68D868C0F30210411C04F003000228F4
:1025200019D0032826D0B2FBF1F2D868C0F30620F8
:1025300017E09A6802F00C02042A07D09A6802F0A9
:102540000C02082A04D110480022DCE70F48FBE700
:1025500000200246D7E7DA680C48C2F30622B0FB37
:10256000F1F0DB68C3F34163013350435B00B0FB20
:10257000F3F010BDDA680448C2F30622EFE700BFAB
:10258000001002403473000800127A000024F400A6
:1025900003682DE9F3410446D80639D5A94DAB6847
:1025A00013F00C0F5ED12B68990703D5A3690BB903
:1025B00001207BE02B68206A1A0756BFD5F89430BB
:1025C0002B681B0903F0F003834236D2FFF736FF76
:1025D0000028EDD12B6843F008032B602B68226A9A
:1025E00023F0F00313432B606B68E26923F47F430D
:1025F00043EA02236B60FFF763FFAB68924AC3F3C1
:102600000313D35CD840914B18600F2002F0EEF812
:102610002368DE075DD423689D0700F1A580236849
:10262000190700F1E38023685A0700F11181A16ABC
:10263000002940F07881002038E02B6843F008033F
:102640002B602B6823F0F00303432B606B68E26977
:1026500023F47F4343EA02236B60FFF7EFFE002879
:10266000C9D0A5E7A36923B32B6843F001032B600E
:1026700002F0C2F806462B689B0711D52B6843F081
:1026800008032B602B68226A23F0F00313432B60AE
:102690006B68E26923F47F4343EA02236B60B7E788
:1026A00002F0AAF8801B0228E5D9032002B0BDE899
:1026B000F0812B6823F001032B6002F09DF80646A1
:1026C0002B689F07A4D502F097F8801B0228F7D942
:1026D000EBE75C4DAB6803F00C03082B09D0AB684B
:1026E00003F00C030C2B0BD1EB6803F00303032B5B
:1026F00006D12B6898038ED56368002B8BD157E7E2
:102700006368B3F5803F10D12B6843F480332B60AE
:1027100002F072F806462B6899033FF57CAF02F091
:102720006BF8801BC828F6D9BFE7B3F5A02F04D1FA
:102730002B6843F480232B60E6E72A6822F480327A
:102740002A602A6822F480222A60002BE0D102F05D
:1027500053F806462B689A037FF55DAF02F04CF8FC
:10276000801BC828F6D9A0E7364DAB6803F00C03F0
:10277000042B09D0AB6803F00C030C2B13D1EB68CE
:1027800003F00303022B0ED12B685B0503D5E3682E
:10279000002B3FF40DAF6B68226923F0F85343EA36
:1027A00002636B603BE7E3687BB12B6843F48073A3
:1027B0002B6002F021F806462B685F05EBD402F08F
:1027C0001BF8801B0228F7D96FE72B6823F480736E
:1027D0002B6002F011F806462B6858057FF51FAFF5
:1027E00002F00AF8801B0228F6D95EE76369154DEE
:1027F0009BB1D5F8943043F00103C5F8943001F053
:10280000FBFF0646D5F894309B073FF50CAF01F06F
:10281000F3FF801B0228F5D947E7D5F8943023F061
:102820000103C5F8943001F0E7FF0646D5F894306F
:102830009F077FF5F8AE01F0DFFF801B0228F5D976
:1028400033E700BF00100240197300084800002061
:102850007B4DAB6DDE0027D4AB6D43F08053AB6591
:10286000AB6D03F080530193019B0127754E3368D4
:10287000D8051BD5A368012B29D1D5F8903043F09A
:102880000103C5F8903001F0B7FF41F288380646E1
:10289000D5F890309A0740D5002F3FF4C8AEAB6D05
:1028A00023F08053AB65C2E60027DFE7336843F4CB
:1028B0008073336001F0A0FF80463368D905D9D416
:1028C00001F09AFFA0EB08000228F6D9EDE6052BEF
:1028D00006D1D5F8903043F00403C5F89030CCE72A
:1028E000D5F8902022F00102C5F89020D5F890206C
:1028F00022F00402C5F89020002BC4D101F07CFF27
:1029000041F288380646D5F890309B07C4D501F0CF
:1029100073FF801B4045F6D9C7E601F06DFF801BB1
:102920004045B5D9C1E6464B9A6802F00C020C2A24
:102930001D465AD01B68022923F080732B6037D1C3
:1029400001F05AFF06462B689F012BD4626BE36AA5
:1029500043EA0223226B013A43EA0213A26B1209F3
:1029600043EA4243E26B5208013A43EA4253226C83
:102970005208013A43EA4263EB602B6843F08073EC
:102980002B60EB6843F08073EB6001F035FF044689
:102990002B6898013FF54FAE01F02EFF001B022877
:1029A000F6D982E601F028FF801B0228CBD97CE60D
:1029B0002B68190106D42B689A005EBFEB6823F0E0
:1029C0000303EB60EB6823F0887323F48033EB6040
:1029D00001F012FF04462B689B017FF52CAE01F03D
:1029E0000BFF001B0228F6D95FE69A68E16A02F045
:1029F00003028A427FF4DCAD9A68216B02F0700218
:102A00008A427FF4D5AD9A68616B02F4FE428A4235
:102A10007FF4CEAD9A68A16B02F400328A427FF453
:102A2000C7AD9A68E16B02F4C0028A427FF4C0AD80
:102A30009868236C00F0C060C01A18BF012035E60A
:102A40000010024000700040564A136803F007036C
:102A50008B422DE9F04105460E462BD32B68D90752
:102A600035D429688A0700F183804E4A136803F041
:102A700007039E42C0F0848011F0040F4A4C40F0DE
:102A80008A800B0706D5A3682A6923F4605343EABA
:102A9000C203A360FFF714FDA368444AC3F3031302
:102AA000D35CD840424B18600F2001F09FFE0020FD
:102AB000BDE8F081136823F007030B43136013682C
:102AC00003F007039942C9D00120BDE8F0816A688C
:102AD000354C032A23681CD113F0007FF4D0A3687F
:102AE00023F003031343A36001F086FE6B68032BFE
:102AF000074641F2883818D1A36803F00C030C2B69
:102B0000AFD001F079FEC01B4045F5D90320BDE8E8
:102B1000F081022A02D113F4003FDFE712B913F06B
:102B2000020FDBE713F4806FD8E7022B0AD1A3680A
:102B300003F00C03082B94D001F05EFEC01B40454F
:102B4000F5D9E3E773B9A36813F00C0F89D001F04E
:102B500053FEC01B4045F6D9D8E701F04DFEC01B1F
:102B60004045D3D8A36803F00C03042BF5D178E7D4
:102B70000D4AA868936823F0F0030343936074E759
:102B8000136823F0070333431360136803F007034C
:102B90009E4299D170E7A368EA6823F4E063134387
:102BA000A3606EE700200240001002401973000885
:102BB00048000020044B054A9B68C3F30223D35C02
:102BC000034A1068D840704700100240297300087B
:102BD00048000020044B054A9B68C3F3C223D35C22
:102BE000034A1068D840704700100240297300085B
:102BF000480000200F2303600B4B9A6802F0030289
:102C000042609A6802F0F00282609A6802F4E06220
:102C1000C2609B68DB0803F4E0630361034B1B683D
:102C200003F007030B6070470010024000200240D1
:102C3000F8B5454BDA6812F0030F05460E461C4600
:102C400000682AD0DA6802F0030282423CD1002AEE
:102C50003AD0DB686A68C3F302130133934233D17D
:102C6000236823F08063236001F0C6FD07462368D4
:102C70001A0132D4AF68002E36D0012E50D122690D
:102C8000286922F4C002400822F4FE42013842EAD8
:102C9000072242EA4052226132E0022810D0032883
:102CA00014D0012810D11B689F0738D5E3686A68E3
:102CB00023F07303013A184340EA0210E060CFE7C3
:102CC0001B6813F4806FF1D10120F8BD1A689103DD
:102CD000ECD41B6813F4802FF5E701F08DFDC01BC9
:102CE0000228C4D90320F8BD2169EB6821F41F3103
:102CF00021F4407141EA07211B0941EA4341216166
:102D0000236843F08063236001F076FD0646236864
:102D10001B0113D52369AA69134323610020F8BD61
:102D20002369686923F0C063400823F4FE43013837
:102D300043EA072343EA40632361E1E701F05CFDD6
:102D4000801B0228E3D9CDE700100240F8B53D4BC7
:102D5000DA6812F0030F05460E461C46006828D0BC
:102D6000DA6802F0030282423AD1002A38D0DB68E6
:102D70006A68C3F302130133934231D1236823F00D
:102D80008053236001F038FD074623689A0030D451
:102D9000A868002E34D06369296923F0C06349080C
:102DA00023F4FE43013943EA002343EA41636361AC
:102DB00032E0022810D0032814D0012810D11B685B
:102DC0009F0738D5E3686A6823F07303013A184314
:102DD00040EA0210E060D1E71B6813F4806FF1D184
:102DE0000120F8BD1A689103ECD41B6813F4802FFE
:102DF000F5E701F001FDC01B0228C6D90320F8BD8C
:102E00006269EB6822F41F3222F4407242EA002227
:102E10001B0942EA43426261236843F08053236006
:102E200001F0EAFC064623689B0005D563696A69E0
:102E3000134363610020F8BD01F0DEFC801B022813
:102E4000F1D9DBE7001002402DE9F347066816F4DC
:102E50000066044624D0416EB1F5800F2CD002D814
:102E6000C1B101261CE0B1F5000F0DD0B1F5400F46
:102E7000F7D1534A616ED2F8883023F440030B43F4
:102E8000C2F8883000260BE04D4AD36843F4803303
:102E9000D360EEE70430FFF7CBFE06460028E8D00B
:102EA0002368D80406D5A16EB1F1807F7CD008D804
:102EB000A9B10126354621E000212030FFF746FF69
:102EC000EBE7B1F1007F04D0B1F1407FF1D135469D
:102ED00009E03B4AD36843F48033D360F7E7201D11
:102EE000FFF7A6FE0546002D64D1354AA16ED2F843
:102EF000883023F040730B43C2F88830236899036D
:102F000040F15B812E4FBB6DDA0055D4BB6D43F0B1
:102F10008053BB65BB6D03F080530193019B4FF061
:102F20000108DFF8A090D9F8003043F48073C9F8A5
:102F3000003001F061FC8246D9F80030DB0543D552
:102F4000002D48D1D7F8903013F4407315D0D4F841
:102F50008420934211D0D7F89030D7F8902042F4D3
:102F60008032C7F89020D7F8902023F4407322F4E1
:102F70008032C7F89020C7F89030D80709D501F003
:102F80003BFC41F288390546D7F89030990740F16B
:102F90000D81D7F89030D4F8842023F44073134384
:102FA000C7F89030354616E0002104F12000FFF705
:102FB000CDFE97E72E46A1E74FF00008B1E700BF2E
:102FC000001002400070004001F016FCA0EB0A0067
:102FD0000228B1D90325B8F1000F03D0BB6D23F04F
:102FE0008053BB652368DA0708D58A49A06BD1F8FE
:102FF000882022F003020243C1F888209F0708D5E9
:103000008449E06BD1F8882022F00C020243C1F819
:1030100088205E0708D57F49206CD1F8882022F0EF
:1030200030020243C1F88820180708D57949606C3E
:10303000D1F8882022F0C0020243C1F88820D906C6
:1030400008D57449A06CD1F8882022F4407202435C
:10305000C1F888209A0608D56E49E06CD1F888201E
:1030600022F440620243C1F888209F0508D56949CF
:10307000E06DD1F8882022F440220243C1F8882074
:103080005E0508D56349206ED1F8882022F44012ED
:103090000243C1F88820580608D55E49206DD1F852
:1030A000882022F440520243C1F88820190608D52E
:1030B0005849606DD1F8882022F440420243C1F89B
:1030C0008820DA0508D55349A06DD1F8882022F46C
:1030D00040320243C1F888209B040FD54D4AE16E6F
:1030E000D2F8883023F040630B43B1F1006FC2F88F
:1030F000883064D1D36843F48013D36023681F03FE
:103100000FD5444A216FD2F8883023F040630B4337
:10311000B1F1006FC2F888305CD1D36843F48013FA
:10312000D36023685E030FD53A4A616FD2F88830C6
:1031300023F040630B43B1F1006FC2F8883054D1E3
:10314000D36843F48013D3602368580412D53149FF
:10315000A26FD1F8883023F040531343B2F1805F5F
:10316000C1F888304CD10221201DFFF761FD0028F5
:1031700018BF05462268110408D52649E06FD1F82A
:10318000883023F080430343C1F88830D30309D546
:10319000204AD4F88010D2F8883023F000430B4343
:1031A000C2F88830284602B0BDE8F08701F024FB61
:1031B000401B48457FF6E8AE0CE7354612E7B1F113
:1031C000806F9BD10121201DFFF732FD002818BF21
:1031D000054693E7B1F1806FA3D10121201DFFF7D0
:1031E00027FD002818BF05469BE7B1F1806FABD1E2
:1031F0000121201DFFF71CFD002818BF0546A3E78D
:10320000B2F1005FB6D1022104F12000FFF79EFD6C
:10321000ADE700BF0010024003685A6822F0E002E8
:103220005A604268B2F5827F0AD18268B2F5004FD7
:1032300002D0B2F5806F03D11A6822F040021A6002
:10324000826AB2F5005F07D11A6822F400521A6050
:103250001A6842F400521A60012380F85D3000239E
:1032600080F85C30032070472DE9F041DDF81880CC
:1032700005460F4616461C462A68936837EA03033C
:103280000CBF012300239E4202D10020BDE8F08143
:10329000631CF2D024B92846BDE8F041FFF7BCBF5B
:1032A00001F0AAFAA0EB08008442E5D8F3E72DE983
:1032B000F341089D0746884616461C463A689068C2
:1032C00000EA0800B04201D100200FE0B8F5C06F5D
:1032D00006D12EB9137BDBB28DF807309DF807308D
:1032E000631CECD02CB93846FFF796FF02B0BDE85E
:1032F000F08101F081FA401B8442DFD8F3E773B517
:103300000B4600920D4616464FF4C051002204466B
:10331000FFF7CDFF024628B1236E43F0200323665A
:10332000032011E000962B4680212046FFF79CFFEA
:1033300002460028F0D100962B464FF4C06120468B
:10334000FFF7B5FF0028E7D102B070BD4368B3F5C1
:10335000827FF7B504460E4617460BD18368B3F556
:10336000004F02D0B3F5806F04D12268136823F0B8
:103370004003136000973346002280212046FFF768
:1033800073FF054628B1236E43F02003236603250F
:1033900014E06368B3F5827F10D1A368B3F5004FE2
:1033A00002D0B3F5806F09D10097334600224FF465
:1033B000C0612046FFF77BFF0028E4D1284603B018
:1033C000F0BD7047F8B50446002858D090F85D303D
:1033D00003F0FF021BB980F85C20FFF7F2FF022325
:1033E000216884F85D300B68E26823F04003B2F591
:1033F000E06F0B604FF000033ED91D46B2F5706FD1
:1034000018BFA362236B2BB9B2F5E06F8CBF022308
:1034100001232363A7686368A06AA6693B43276901
:103420003B4367693B43E7693B43276A3B430343AD
:1034300006F400773B430B60236B022B02BF0B6843
:1034400043F400630B60636A1A43636B360C1A43E0
:1034500006F00406B0F5005F42EA060208BFE36A20
:1034600042EA05024A604FF0000008BF0B610123E9
:10347000206684F85D30F8BD4FF48055C0E7012028
:10348000F8BD2DE9F3411E4690F85C30012B04464F
:103490000D46904600F0CE80012380F85C3001F0AC
:1034A000ABF9074694F85D00C0B2012840F0C08037
:1034B000002D6DD0B8F1000F6AD0032384F85D3081
:1034C000002323662364A4F83E80A4F84430A4F8C3
:1034D00046302365E364A3682068A563B3F5004F15
:1034E00008BF0368A4F83C8004BF43F48043036032
:1034F000A36AB3F5005F07D1036823F400530360A8
:10350000036843F40053036003685B065EBF03680F
:1035100043F040030360E368B3F5E06F636848D9A4
:103520001BB1E38F9BB2012B06D135F8023BC36080
:10353000E38F013B9BB2E387E38F9BB2F3B9A36AAE
:10354000B3F5005F04D12268136843F4805313601D
:103550003A4631462046FFF7D2FE08B120232366C3
:10356000A368B3F5004F59D12268136823F04003D4
:103570001360206E003018BF012009E023689A68AC
:10358000900703D535F8022BDA60D1E74EB9032056
:10359000012384F85D30002384F85C3002B0BDE87C
:1035A000F081711CC8D001F027F9C01B8642C3D836
:1035B000EDE71BB1E38F9BB2012B0AD1E38F9BB2E6
:1035C000012B16D935F8023BC360E38F023B9BB257
:1035D000E387E38F9BB2002BB1D023689A689207F0
:1035E00012D5E28F92B2012A0BD935F8022BDA609C
:1035F000EBE72B780373E38F013B9BB2E387013545
:10360000E7E72A781A73F6E7002EC0D0731CE0D0E3
:1036100001F0F2F8C01B8642DBD8B8E7002BA8D136
:1036200001932368DA6801929B680193019BA0E7EC
:103630000220ADE70220B1E72DE9F04385B09846BE
:103640000023ADF80E3090F85C300C9E012B044640
:103650000D46914600F0A781012380F85C3001F00F
:10366000CBF894F85D306168DBB2012B07460AD0D5
:10367000B1F5827F40F09581A268002A40F09181E7
:10368000042B40F08E81002D00F07481B9F1000F01
:1036900000F07081B8F1000F00F06C8194F85D309B
:1036A000C4F84090042B1CBF052384F85D30002330
:1036B0002366E3642365A36AA4F84680B3F5005F3C
:1036C000A4F84480A563A4F83E80A4F83C80236855
:1036D00007D11A6822F400521A601A6842F40052A4
:1036E0001A60E068B0F5E06F04D8B4F8462092B2F2
:1036F000012A36D95A6822F480525A601A68520652
:103700005EBF1A6842F040021A60B0F5E06F7DD9E2
:1037100019B1E28F92B2012A06D135F8022BDA6094
:10372000E38F013B9BB2E3874FF00108E38F9BB22D
:10373000DBB9B4F846309BB2BBB9A36AB3F5005FFE
:1037400040F0018101220097334611462046FFF7E1
:103750008BFD002800F0EC80236E43F0020323660B
:1037600049E05A6842F48052C7E7B8F1000F28D008
:10377000E38F9BB22BB323689A68920721D535F863
:10378000022BDA60E28F013A92B2E287B4F83E800F
:103790001FFA88F8B8F1000F11D1A16AB1F5005FE6
:1037A0000FD11A68500706D45A68110742BF1A6829
:1037B00042F400721A601A6842F480521A604FF0A4
:1037C0000008B4F846309BB273B123689A68D207F8
:1037D0000AD5DB6829F8023BB4F84630013B9BB2BE
:1037E000A4F846304FF00108701C9FD001F004F897
:1037F000C01B86429AD80325012384F85D3000233C
:1038000084F85C30284605B0BDE8F08319B1E28F3A
:1038100092B2012A0AD1E28F92B2012A6CD935F80C
:10382000022BDA60E38F023B9BB2E3874FF0010883
:10383000E38F9BB22BB9B4F846309BB2002B3FF418
:103840007CAFB8F1000F2ED0E38F9BB2002B2AD0B3
:1038500023689A68910726D5E28F92B2012A53D93C
:1038600035F8022BDA60E38F023B9BB2E387B4F8B2
:103870003E801FFA88F8B8F1000F12D1A26AB2F5A3
:10388000005F10D123681A68520706D45A681007DF
:1038900042BF1A6842F400721A601A6842F48052F9
:1038A0001A604FF00008B4F846309BB2E3B12268CA
:1038B0009368D90718D5B4F846309BB2012B2BD9A1
:1038C000D36829F8023BB4F84630023B9BB2A4F817
:1038D0004630B4F846309BB2012B03D8536843F40A
:1038E000805353604FF00108731CA1D000F084FF97
:1038F000C01B86429CD87EE72A781A73E38F013B6F
:103900009BB2E387013591E72A781A73E38F013B75
:103910009BB2E3870135AAE7137B89F80030B4F83E
:103920004630013B9BB2A4F8463009F10109D9E7C2
:10393000E368B3F5706F23681ED1DB689BB2ADF806
:103940000E30BDF80E302268956815F0100507D0CE
:10395000236E43F0020323664FF6EF739360012555
:103960003A4631462046FFF7CAFC00283FF444AFF0
:103970002023236601253FE71B7BADF80E30BDF801
:103980000E30236B022BDED1012200973346114605
:103990002046FFF769FC00287FF4DEAE23681B7B1E
:1039A000CDE7022528E702252CE72DE9FF411D463A
:1039B0000023ADF80E304368B3F5827F04460E460F
:1039C00090460CD1836853B9042380F85D301346C8
:1039D00000950A46FFF730FE04B0BDE8F08194F888
:1039E0005C30012B00F0F480012384F85C3000F09F
:1039F00003FF074694F85D00C0B2012840F0E6805E
:103A0000002E00F09080B8F1000F00F08C800423AD
:103A100084F85D3000232366A363A4F84680A3875F
:103A2000E387E3642365A36A2664B3F5005FA4F823
:103A3000448023680DD11A6822F400521A601A6873
:103A400042F400521A60B4F84620013A92B2A4F847
:103A50004620E1685A68B1F5E06F8CBF22F48052CD
:103A600042F480525A60A268B2F5004F02BF1A6851
:103A700022F480421A601A6850065EBF1A6842F04B
:103A800040021A60B1F5E06F1ED9B4F846309BB21F
:103A9000FBB123689A68D10754D5DB6826F8023B4E
:103AA000B4F84630013B9BB2A4F84630EDE72368FA
:103AB0009A68D20735D51B7B06F8013BB4F846302F
:103AC000013B9BB2A4F84630B4F846309BB2002BC1
:103AD000EDD1A36AB3F5005F49D12268136843F4BE
:103AE00080531360012200972B4611462046FFF7B2
:103AF000BBFBB8B9E368B3F5E06F23684FF0010290
:103B00008BBFDB681B7B3380337000972B461146DD
:103B10002046FFF7A9FBF8B1236E43F002032366AA
:103B200000E03DB90320012384F85D30002384F8D0
:103B30005C3051E7681CC7D000F05EFEC01B8542B8
:103B4000C2D8EFE7002DEDD06A1C9ED000F054FEE5
:103B5000C01B854299D8E5E7E2682368B2F5706F2B
:103B60001DD1DB689BB2ADF80E30BDF80E303A4681
:103B700029462046FFF7EAFB08B120232366226886
:103B80009368DB0606D5236E43F0020323664FF6E7
:103B9000EF739360206E003018BF0120C3E71B7BDA
:103BA000ADF80E30B2F5E06FBDF80E30DFD1236B0B
:103BB000022BDCD1012200972B4611462046FFF74D
:103BC00053FB0028A8D123681B7BCCE70220AAE77F
:103BD000022001E770470000304A0368904212D08B
:103BE000B0F1804F0FD0A2F5943290420BD002F585
:103BF0008062904207D002F58062904203D002F5C5
:103C00009432904219D14A6823F070031343234A37
:103C100090421DD0B0F1804F1AD0A2F5943290425C
:103C200016D002F58062904212D002F58062904276
:103C30000ED002F5943290420AD0194A904207D031
:103C400002F58062904203D002F58062904203D177
:103C5000CA6823F4407313434A6923F08003134373
:103C600003608B68C3620B6883620C4B98420FD071
:103C700003F5006398420BD003F54063984207D0E8
:103C800003F58063984203D003F58063984201D125
:103C90000B69036301234361704700BF002C01409F
:103CA0000040014010B50446A0B190F83D3003F04B
:103CB000FF021BB980F83C20FFF78CFF022384F839
:103CC0003D302068211DFFF787FF012384F83D3038
:103CD000002010BD012010BD036A10B501248C40E6
:103CE00023EA04030362036A8A401A43026210BD96
:103CF00010B5044601220068FFF7EEFF23680E4A64
:103D000093420FD002F5006293420BD002F540625D
:103D1000934207D002F58062934203D002F580629D
:103D2000934203D15A6C42F400425A641A6842F03A
:103D300001021A60002010BD002C0140FFF7D8BF1F
:103D4000704700000268C169F8B5044683680069DD
:103D50001568034360690343BA480B432840034393
:103D600013605368E06823F4405303435360B64B39
:103D7000A0699A421CBF236A1843936823F43063F6
:103D800003439360B14B9A4219D103F55843B04AAB
:103D9000D3F8883003F00303B1F5004FD35C40F053
:103DA0003881082B00F28F80DFE813F01A01CA0077
:103DB000F9008D0014018D008D008D003600A54B9B
:103DC0009A4207D103F5E633A34AD3F8883003F0CB
:103DD0000C03E1E7A14B9A4223D103F5E433D3F876
:103DE000883003F03003102B00F0F1800BD8002B4B
:103DF00000F0F380B1F5004F4FF001024FF00003E7
:103E000000F0F880A8E0202B00F0C680302BF1D124
:103E1000B1F5004F40F0B8806068430803F5803387
:103E2000C3E08F4B9A421ED103F5E233D3F88830BA
:103E300003F0C003402B00F0BB800AD87BB9824B53
:103E40009A4240F0CA80FEF7B5FE0023B0BB02469E
:103E50003AE0802B00F09D80C02B00F0B0807A4BC0
:103E60009A42C7D12FE07F4B9A4211D103F5E0333C
:103E7000D3F8883003F44073B3F5807F00F0988066
:103E8000DCD9B3F5007F00F08480B3F5407FE4E730
:103E90006D4B9A42AED103F5C833D3F8883003F4A2
:103EA0004063B3F5806F00F08380C7D9B3F5006F2E
:103EB0006FD0B3F5406FD0E76B480223626802EB26
:103EC0004201814205D90122002323666366104620
:103ED000F8BDB0EB023FF6D8082B2ED8DFE803F090
:103EE000052D1C2D242D2D2D2700FEF763FE626865
:103EF0004FF4807156080027E1FB0067002330462D
:103F0000394602F0FFFE0022584BA0F5407199425D
:103F1000D9D82368D860D7E7554855080023002131
:103F2000401941F10001ECE7FEF7CAFADFE750085B
:103F30000021002310F50000F3E701220020E3E751
:103F4000FEF748FE4EE0FEF735FE626800EB5203D6
:103F5000B3FBF2F39BB20022A3F110004FF6EF7116
:103F60008842B0D82168CB60AEE7FEF733FEECE7BD
:103F70006068430803F5740303F51053B3FBF0F3D3
:103F8000E8E7FEF79DFAE0E76068430803F50043C1
:103F9000F4E72D4B9A428FD0B1F5004FE8D160681D
:103FA000430803F1F47303F59043B3FBF0F31FE010
:103FB000254B9A420BD1FEF783FA042346E7224BA6
:103FC0009A427FF425AF4FF40040082376E7B1F51D
:103FD000004FD6D1FEF774FA04E0B1F5004FB2D12C
:103FE000FEF7E8FD61684A0802EB4003B3FBF1F31A
:103FF0009BB20022A3F110004FF6EF7188423FF60A
:1040000062AF23F00F012068C3F342030B43C36088
:104010005AE7082B3FF657AF01A252F823F000BF32
:10402000473F00086B3F0008713F0008C73E00088B
:10403000833F0008C73E0008C73E0008C73E00088F
:10404000893F0008F369FFEF00800040003801401D
:1040500008730008004400400C730008004800404A
:10406000004C0040005000400024F400FFFC0F0012
:10407000000024F4436ADA0710B506D50168846AA3
:104080004A6822F4003222434A609C0706D5016840
:10409000C46A4A6822F4803222434A60590706D52E
:1040A0000168046B4A6822F4802222434A601A079E
:1040B00006D50168446B4A6822F4004222434A60F4
:1040C000DC0606D50168846B8A6822F4805222439C
:1040D0008A60990606D50168C46B8A6822F400528A
:1040E00022438A605A060FD50168046C4A6822F49C
:1040F00080122243B4F5801F4A6005D14A68446C9F
:1041000022F4C00222434A601B0606D50268816C75
:10411000536823F400230B43536010BD2DE9F04195
:10412000069D04460F46164698462168CA6937EA36
:1041300002030CBF01220022B24202D00020BDE8DF
:10414000F0816B1CF2D09DB923681A6822F4D072FA
:104150001A609A6822F001029A60202384F8713074
:1041600084F87230002384F870300320BDE8F081B9
:1041700000F042FBA0EB08008542D6D2E4E773B51D
:1041800004460026466700F037FB23681B681A07C1
:10419000054617D423681B685B070AD56FF07E437A
:1041A000009300222B464FF480012046FFF7B6FF14
:1041B000A0B92023002084F8713084F8700084F8BE
:1041C00072300CE06FF07E430093324603464FF4AA
:1041D00000112046FFF7A2FF0028DBD0032002B029
:1041E00070BD10B5044660B390F8713003F0FF0263
:1041F0001BB980F87020FFF7A3FD2268242384F800
:104200007130136823F0010313602046FFF79AFD15
:10421000012816D0636A13B12046FFF72BFF2368ED
:104220005A6822F490425A609A6822F02A029A60F0
:104230001A6842F0010220461A60BDE81040FFF7FC
:104240009EBF012010BD90F87030012B0FD0026886
:10425000242380F87130136843F002031360202395
:1042600080F87130002380F87030184670470220C3
:10427000704790F87030012B0FD00268242380F82B
:104280007130936843F400039360202380F8713009
:10429000002380F87030184670470220704790F86D
:1042A0007030012B0FD00268242380F8713013681E
:1042B00023F002031360202380F87130002380F87C
:1042C0007030184670470220704790F87030012B0C
:1042D0000FD00268242380F87130936823F4000320
:1042E0009360202380F87130002380F870301846E6
:1042F0007047022070470000264A274913681B07B1
:1043000054BFD2F894301368906854BFC3F30323AA
:10431000C3F3031300F00C0010B551F823401F49FC
:104320000C2835D8DFE800F0343434340734343422
:104330001234343414001A4B0B609368194AC3F3D7
:104340000313D25C0B68D3400B6010BD164BF3E730
:10435000D068D36800F00300C3F30213022803F10E
:10436000010304D0032811D0B4FBF3F302E00C489E
:10437000B0FBF3F3D468D068C0F34160C4F3062403
:10438000013063434000B3FBF0F3D5E70648EFE7A5
:104390000C60D2E70010024034730008480000208F
:1043A0000024F4001973000800127A0000207047FE
:1043B0000020704730B52A4D87B00C46002329886D
:1043C00001934FF6FF7399421DBF264B03EA8123E9
:1043D00003F100634FF00163A34204D84FF0FF34B0
:1043E000204607B030BDB4F1006FF7D3FDF78CFE67
:1043F0000028F3D11C4B4FF400421A612B884FF672
:10440000FF72934201D1194B04E0194A02EA432298
:1044100002F10063174909689C4234BF04F17842F5
:10442000E21AC9054FEAD22214D49C422CBF0223BF
:10443000012300210291039301A9012302A8049200
:104440000593FDF777FF003018BF01204442FDF7C8
:104450006DFEC5E79C422CBF01230223E9E700BFA4
:10446000E075FF1F00FC3F0000200240000008082C
:1044700000FE1F0000000140F7B51F46284B1B88B7
:1044800016464FF6FF7293421DBF264A02EA832268
:1044900002F100624FF001628A420C4604D84FF0EC
:1044A000FF35284603B0F0BDB1F1006FF7D37B07AD
:1044B000F5D1FDF729FE0028F1D116F003052744B8
:1044C00026D005460FE02B46F25C0DF803200133A1
:1044D000082BF9D1DDE9002321460020FDF774FE09
:1044E00050B908340836BC4203D2002DEBD04FF04F
:1044F000FF35FDF71BFED4E74FF0FF35F3E7D6E9B4
:10450000002321462846FDF75FFE30B908340836FF
:10451000BC42EED2002DF2D0E9E74FF0FF35F7E7CD
:10452000E075FF1F00FC3F000C4B1A884FF6FF732D
:104530009A421DBF0A4B03EA822303F100634FF046
:1045400001638B4207D9B1F1006F34BF4FF0FF30E8
:104550004FF4006070474FF0FF307047E075FF1F69
:1045600000FC3F00082070474FF0006070470000DB
:10457000054B1B884FF6FF7293421ABF034800EAAF
:1045800083204FF480107047E075FF1F00FC3F0050
:104590000B4908B50B681F3323F01F0303F11F02FB
:1045A0001044084A20F01F00904206D902F06CFA2D
:1045B0000C2303604FF0FF3008BD0860184608BDAB
:1045C0004C0000200080012070B5466805460C466E
:1045D000284600F01FFA0028FAD07823054AE96837
:1045E0007343D35811B9E4B21C8570BDC4F30804F9
:1045F000FAE700BF4004002008B50C4A836E9342DE
:1046000007D002F57442934207D0A2F57842934254
:1046100007D1BDE80840FEF7CDBABDE80840FEF777
:10462000D9BA0348FDF77EFB002008BD003C0040DE
:104630006473000830B5036891FAA1F4B4FA84F405
:1046400091FAA1F10325B1FA81F1640005FA04F4AD
:10465000490023EA040302FA01F11943016030BD65
:1046600010B58AB0072872D8DFE800F004121E2ABD
:1046700036424E65384BDA6C42F00102DA64DB6C8C
:1046800003F001030193019B4FF090400AB010BD6D
:10469000314B3248DA6C42F00202DA64DB6C03F030
:1046A00002030293029BF1E72B4B2D48DA6C42F098
:1046B0000402DA64DB6C03F004030393039BE5E775
:1046C000254B2848DA6C42F00802DA64DB6C03F010
:1046D00008030493049BD9E71F4B2348DA6C42F08C
:1046E0001002DA64DB6C03F010030593059BCDE741
:1046F000194B1E48DA6C42F02002DA64DB6C03F0DE
:1047000020030693069BC1E7134CA36D43F080532F
:10471000A365A36D03F080530793079BFDF786FE07
:10472000E36C134843F04003E364E36C03F040039D
:104730000893089BAAE7084B0E48DA6C42F0800207
:10474000DA64DB6C03F080030993099B9EE70A4857
:10475000FDF7E8FA002099E7001002400004004845
:1047600000080048000C00480010004800140048F1
:1047700000180048001C00487E73000810B5002196
:10478000044604F00F0400F07DF80120A04010BDA5
:1047900070B504464B1C0E46217418D0C1F30310AB
:1047A000FFF75EFF05463046FFF7E8FF237C084A27
:1047B000656103F00F03206052F82330A36105F117
:1047C0001003636005F118032835A360E56070BD30
:1047D000A073000890F9100000F0DEB80A4619B97D
:1047E00081694069FFF726BF0122F9E708B500F0AB
:1047F00059FC002008BD000008B50A4B1B684BB1EE
:10480000FDF784F9FDF76AF94FF47A72002302F09C
:1048100079FA08BD00F09AFC4FF47A73B0FBF3F01C
:1048200008BD00BF3002002008B5FFF765FDFDF7A9
:10483000D1FBFDF7ABFBFFF75FFD024B01221A60D6
:1048400008BD00BF3002002030B5C36891FAA1F462
:10485000B4FA84F491FAA1F10325B1FA81F164006C
:1048600005FA04F4490023EA040302FA01F11943AA
:10487000C16030BD012A02D0022A18BF0022FFF712
:10488000E3BF00002DE9F041424B00F00F08C0F3F8
:10489000031053F828400E4601F00705FFF7E0FE2D
:1048A000836894FAA4F1B1FA81F194FAA4F203278F
:1048B000490007FA01F1B2FA82F223EA0103520039
:1048C000022101FA02F213438D4283602FD0BD42D0
:1048D00048D0012D46D00023026894FAA4F7B7FA15
:1048E00087F794FAA4F14FF0030EB1FA81F17F003B
:1048F00049000EFA07F78B4022EA070213430360D0
:10490000C36A710305F1FF354CBF2343A343012D57
:10491000C36205D8436832074CBF2343A3434360B7
:10492000C6F301122146BDE8F041FFF7A3BFB8F17D
:10493000070FC6F3032717D9426A230A93FAA3F194
:10494000B1FA81F193FAA3F34FF00F0EB3FA83F3A8
:1049500089000EFA01F19B0022EA010207FA03F333
:10496000134343622B46B7E7026A94FAA4F3B3FAFF
:1049700083F394FAA4F14FF00F0EB1FA81F19B008A
:104980000EFA03F3890022EA030207FA01F3134344
:104990000362E7E7A073000800F00F021C4B70B53C
:1049A000C0F303100D4653F82240FFF759FE066886
:1049B00094FAA4F1B1FA81F394FAA4F25900032312
:1049C000B2FA82F28B4033405200D340013B012BBC
:1049D00005D8EB1E022B436809D823434360032DFF
:1049E00008D101222146BDE87040FFF743BF23EA0A
:1049F00004034360012DF4D0052D01D0022D01D117
:104A00000222EFE721460022BDE87040FFF71CBFFD
:104A1000A0730008426878235343034AD358D869E7
:104A2000C0F3C010704700BF400400204268016816
:104A3000782353431D4A10B599509C1882686260D0
:104A4000C368A3600369E36043692361036AA361E8
:104A50000023A4F85230E361A4F85030A4F85A308F
:104A6000A4F8583090F91930013312D1082363614A
:104A70000F4B994208D1B2F5165F204610D8FFF7C8
:104A8000F8FB2046FFF7DFFB2046BDE81040FFF7AC
:104A9000A8BB90F9183001330CBF04230C23E6E7C0
:104AA000FFF713FC2046FFF7FAFBEDE74004002078
:104AB0000080004030B502681D4B81609A42B5B05D
:104AC000044624D10021882212A802F031F8194DA1
:104AD00020231293296811F480610FD1442201A888
:104AE00002F026F8022301934FF48073049301230C
:104AF0000B9301A810230593FDF74AFD2B685B0576
:104B000009D44FF4806312A82593FEF79DF920463F
:104B1000FFF78CFF0AE04FF4006312A82593FEF71D
:104B200093F92046FFF782FF0028EAD135B030BD67
:104B30000080004000100240124B984217D0A3F5AD
:104B40007443984215D003F58063984213D003F55F
:104B50008063984211D003F5806398420FD003F52B
:104B6000405398420CBF05204FF0FF3070470020A3
:104B700070470120704702207047032070470420CF
:104B8000704700BF00380140F0B50E4687B00446BC
:104B90006E4930461546FCF713FE6D490746284618
:104BA000FCF70EFE01463846FCF7E6FD2A2E206093
:104BB0000CD02B2D0AD065492A20FCF701FE874234
:104BC00002D16448FDF7AEF8002700E00127206815
:104BD000614B984229D103F558431A6C42F4804244
:104BE0001A641A6C22F480421A641A6E42F48042EB
:104BF0001A661B6E03F480430093009B574B984248
:104C000040D103F5C833DA6B42F00102DA63DA6BA4
:104C100022F00102DA63DA6D42F00102DA65DB6D3F
:104C200003F001030593059B2CE04D4B984213D1F3
:104C300003F5E6339A6B42F400329A639A6B22F4DE
:104C400000329A639A6D42F400329A659B6D03F4C8
:104C500000330193019BD1E7424B984243D103F5C6
:104C6000E4339A6B42F480229A639A6B22F4802296
:104C70009A639A6D42F480229A659B6D03F48023B7
:104C80000293029BFFF758FF304960603046FCF703
:104C900051FD2F492846FCF74DFD721C03D0012120
:104CA0003046FFF779FE6B1C03D001212846FFF741
:104CB00073FE002F46D14FF41653A3600023E36028
:104CC000236163612362267665762046FFF7AEFE98
:104CD0003FB1254B254801221A6021464C2201F0A4
:104CE0001CFF07B0F0BD224B984213D103F5E2330D
:104CF0009A6B42F400229A639A6B22F400229A6320
:104D00009A6D42F400229A659B6D03F4002303938D
:104D1000039BB7E7174B98427FF470AF03F5E0337E
:104D20009A6B42F480129A639A6B22F480129A630F
:104D30009A6D42F480129A659B6D03F4801304937C
:104D4000049B9FE74FF4E133B7E700BFCC72000844
:104D500090720008E07300080038014000800040B5
:104D600000440040004800403402002010070020AA
:104D7000004C0040005000400268136823F04003DC
:104D800010B513600446FEF71DFB10B10548FCF793
:104D9000C9FFA36823B92268136843F04003136076
:104DA00010BD00BF267400082DE9F04F884687B07B
:104DB00004464D499DF94060404615461F46FCF7A4
:104DC000FFFC4A4981462846FCF7FAFC4849019015
:104DD0003846FCF7F5FC474982463046FCF7F0FCC4
:104DE000019B834619464846FCF7C6FC5946814656
:104DF0005046FCF7C1FC01464846FCF7BDFC3E4B63
:104E0000A06698424DD103F560431A6E42F4805279
:104E10001A661B6E03F480530393039B232384F8C9
:104E2000643031494046FCF785FC30492846FCF7A0
:104E300081FC2F493846FCF77DFC731C84F86C50CC
:104E400084F86D8084F86E7084F86F6049D02949C9
:104E50003046FCF76FFC4FF480230135A361A36E4D
:104E6000236008BF4FF400424FF48273636008BFB1
:104E7000A2604FF038034FF00702E361E2624FF0A7
:104E800000034FF4E06218BFA36063612361A36273
:104E9000E260236263622046FFF76EFF07B0BDE861
:104EA000F08F164B98420CD103F5EC339A6D42F417
:104EB00080429A659B6D03F480430493049B2423F2
:104EC000ADE70F4B9842ACD103F5EA339A6D42F44B
:104ED00000429A659B6D03F400430593059B3323C1
:104EE0009DE74FF40073B8E748720008307200087D
:104EF00060720008787200080030014000380040FD
:104F0000003C004010290CBF4FF470614FF4E06189
:104F1000012AC1601DD0022A1ED002BB026142617B
:104F20008269B2F5007F05D0002B14BF00224FF438
:104F300080228261002B14BF00234FF482734360F0
:104F400005D08368B3F5004F04BF00238360FFF7EB
:104F500013BF00210161E2E702610022DFE70222C4
:104F600002610122DBE7000070B504460E46FFF740
:104F700043FB0023022290FBF2F0B042DDB203DDDE
:104F80000133082B09D10725054B33F81530E361B0
:104F90002046BDE87040FFF7EFBE90FBF2F0ECE773
:104FA0001674000813B583680191B3F5004F0446E9
:104FB00006D10A23012201A9FEF763FA02B010BD4F
:104FC000836EC1685A68B1F5706F0CBF22F48052CD
:104FD00042F480525A609A689007FCD5019AB1F564
:104FE000706F0BBF92B2D2B29A811A73A36E9A6895
:104FF000D207FCD5E268D868B2F5706F0CBF80B2FA
:10500000C0B2DBE72DE9F84F0A9E84689DF82CB00A
:105010009642354680468A4617469946B8BF154699
:1050200094B9AC4202DB2846BDE8F88FBC42B4BF5D
:105030001AF8041059464046FFF7B4FFB442B8BF0F
:1050400009F804000134ECE73AB10A23534392B261
:10505000FEF717FA002818BF0025002EE3D00A2318
:105060007343B2B249464046FEF79FFC002818BF82
:105070000025D8E7074B084A13601A69910707D53E
:10508000DA68920704D56FF002021A61FCF742BD9C
:10509000704700BF000C00405C07002000487047CC
:1050A0003C74000830B589B001A903A8FDF7A2FD42
:1050B000FDF780FD1F4B01909A6D1F4C42F00802D6
:1050C0009A659A6D02F008020292029A9A6B42F077
:1050D00008029A639A6B22F008029A63069AA3F573
:1050E000013323604FF0FF33E360144BFAB9B0FB98
:1050F000F3F00138002560600F482561A560656107
:10510000A561FEF7CFFD0E4B0E4A9B680A48C3F817
:1051100008210D4B4FF480225A602946FEF70EFEFF
:105120002268D36823F00203D36009B030BD400089
:10513000DDE700BF001002405C07002040420F0086
:1051400000ED00E07550000800E100E0014B586AF6
:10515000704700BF000C0040054B1B686FF0020257
:1051600058631A61DA6842F00202DA60704700BFE1
:105170005C070020064B1B686FF002021A615A6937
:1051800042F002025A61DA6842F00202DA607047C5
:105190005C070020034B1A68D36823F00203D36036
:1051A000704700BF5C070020FFF7F4BF024B1B688D
:1051B0006FF002021A6170475C07002038B514686E
:1051C000002C15460ADB6FF00042944206D08C4258
:1051D00001D220B103552B6801332B6038BD19462D
:1051E0000148FFF7F1F9F6E7380200202DE9F04316
:1051F00087B0DDE90E6756EA070305468846914603
:1052000005D1302307B0BDE8F043FFF7D7BF182220
:105210000021684601F08CFC0024304639460A2201
:10522000002301F06FFD30320DF8042000233046DA
:1052300039460A2201F066FD06460F4656EA070384
:1052400004F10104E9D1013C4A461DF8043041460D
:105250002846FFF7B3FF002CF5D107B0BDE8F08377
:105260002DE9FF4706460F46904607254FF00009F7
:10527000EA00DDE90C0101F02DFDC0B2B9F1000F2B
:1052800001D100B93DBB174B020900F00F04EC46F9
:1052900003F1100A18685968E646AEE803000833BF
:1052A0005345F446F6D1B9F1000F00D142B104AB39
:1052B0001A44394612F8103C30464246FFF77EFF4A
:1052C00004AB1C44424614F8103C39463046FFF704
:1052D00075FF4FF0010915F1FF35C9D204B0BDE8E3
:1052E000F08700BF44740008FFF768BF2DE9F04F56
:1052F0001C469F4B93461A7887B006460D465AB116
:1053000000221A702A219B482B22FFF73DFC4FF404
:10531000E1319848FFF7CEFB00230593BBF1000F66
:1053200000F0BD809D42C0F2BA800CBF012305F1A0
:10533000FF3503934FF000081BF80830002B00F0F6
:10534000AD80252B40F0B18008F101071BF8073034
:10535000791C4BB1A3F12302D2B2162A04D8864895
:1053600020FA02F2D2070CD41BF80120002A00F028
:10537000B680682B07D1682A00F0AC8002230F4664
:10538000BDE00F46E2E76C2B40F0EE806C2A00F0A7
:10539000A4800323F3E7012B04F1040A226805D05B
:1053A000022B06D090464FEAE879BBE04FFA82F82C
:1053B000F9E70FFA82F8F6E7B9F1750F03D009F0B3
:1053C000DF02582A24D1042B12D1073424F0070419
:1053D000D4E9002304F1080AB9F1750FCDE90023DF
:1053E000294605AA304600F0B180FFF739FFAFE04B
:1053F000022B04F1040A226806D0072B06D0012BE9
:1054000008BFD2B20023E7E792B2FBE7D317E3E786
:10541000B9F1630F08D1237805AA2946304604F173
:10542000040AFFF761FF93E0B9F1730F0ED104F1A5
:10543000040A2468013C14F8013F002B00F0888026
:1054400005AA29463046FFF7B9FEF4E7B9F1700F17
:105450001FD1302305AA2946304604F1040A2468E6
:10546000FFF7ACFE782305AA29463046FFF7A6FED3
:105470002246E317CDE90023294605AA3046B4E7C2
:105480001BF8083005AA29463046FFF72DFF08F122
:105490000108B845F4D3B9F1000F04D16EB90598ED
:1054A00007B0BDE8F08F1BF8083005AA2946304642
:1054B000FFF71AFFA24647464AE0039B002BEED1B6
:1054C000059B9D422BBF9DF80C209DF80C30F2549B
:1054D0007355E4E70123023711E00423FBE773B1BE
:1054E000682B3FF44BAF6C2B3FF453AF6A2B33D098
:1054F0007A2B33D0742B33D04C2B33D000231BF8B2
:105500000790B9F1640F03D0B9F1690F7FF454AF7C
:10551000042B7FF440AF073424F00704D4E900895A
:1055200004F1080AB8F1000F79F1000309DA2D231C
:1055300005AA29463046FFF741FED8F1000869EB7D
:105540004909CDE9008905AA29463046FFF74EFEF4
:1055500007F101085446EFE6052310E706230EE79E
:1055600007230CE708230AE7002BC8D0BEE700BFDB
:10557000500000203802002001ED7F000FB407B575
:1055800004AB6FF0004153F8042B01930020FFF7A8
:10559000ADFE03B05DF804EB04B0704708B50348F6
:1055A000FAF772FEB0FA80F0400908BD84020020CC
:1055B0000148FAF783BE00BF8402002010B580B115
:1055C000094C4FF0FF33236001F0CAF800B240B934
:1055D0002068421C01D130BFFDE7831F584258416B
:1055E00010BD002010BD00BF540000202DE9F04385
:1055F0000446A5B018B9012025B0BDE8F083FFF737
:10560000DDFF0028F7D0D4E90223134348D009A8CE
:10561000FBF7AEF9002109A8FBF708FA20220021C8
:1056200001A801F085FA1F4FA568DFF87C904FF0C4
:105630000008FDB1B8F1000F1CD1A268B5F5804F8C
:1056400002F100622E4602F5244228BF4FF4804644
:105650003346521B39464846FAF748FE39468046DB
:10566000324609A8FBF7C5FAA168AD1B481B00F03C
:10567000BBF9DEE701A909A8FBF744FB103409A830
:10568000FBF77AF9202201A9204601F037FA002819
:10569000B2D0204600F084F901A800F081F9AAE711
:1056A0000220A9E7A807002084020020F8B50446DC
:1056B000094E4FF0FF306718BC420CD221463046ED
:1056C000FAF7D6FD2146054602463046FAF78AFE2D
:1056D00008B92C44F0E7F8BD84020020F8B5074E65
:1056E000054604464718BC4205D221463046FAF723
:1056F000BFFD0444F7E7601BF8BD00BF8402002033
:1057000070B5702105461848FFF7E8FF174A00F109
:10571000006303F520439342014606D81248FFF781
:10572000C5FF88B92E46124C02E00F4C05F5806685
:1057300031462046FFF7D2FF0219B2F1016F07D8B8
:1057400031462046FFF7B2FFB0FA80F0400970BD45
:1057500002F17842074B0848A2F524422946FFF798
:105760000DFF4FF0FF30EFE700A00008FFA3000897
:1057700000A40008005C0F006074000830B5044607
:1057800085B000283FD02048FAF770FD702100F165
:105790006F05B5FBF0F545431C48FFF79FFFB5F5D6
:1057A000804F024607D94FF4804229461848FFF738
:1057B000E5FE30BFFDE7854205D929461548FFF7CC
:1057C000DDFE30BFFDE72A46FF21134801F0B0F9A6
:1057D000124A07CA01AB83E807001946204600F0C9
:1057E00065FE00B268B9029B702B08D12B46074AB0
:1057F00009490548FAF794FDB0FA80F0400905B070
:1058000030BD0020FBE7FAE78402002000A000087A
:1058100080750008B9750008A807002054740008B6
:105820002DE9F04F87B08A460190002971D03A489F
:10583000FAF71CFD3949B1FBF0F400FB14140546DE
:105840002CB102463648FFF799FE30BFFDE7354BD5
:105850000593354E4FF48043B3FBF0F3434303937A
:105860002746DAE902234FF00009994508BF944220
:1058700049D2002F47D14FF0FF3131600399121BFD
:10588000084663EB09030021994208BF904238BFE4
:1058900002460492214603AA019800F055FF00B287
:1058A00020B93368013301D130BFFDE73368042BE1
:1058B00024D1049B13B303F1FF3804F1006BA84417
:1058C0004FF00009B8FBF5F80BF5244B05FB08F881
:1058D000C14511D287B905990F480BEB090249441C
:1058E0002B46FAF71DFDA9440746DAF8081004EB29
:1058F000090000F079F8EBE74444B2E70B48FFF702
:105900003DFE4FF0FF37B7FA87F0400907B0BDE81A
:10591000F08F0846FAE700BF8402002000A40008C8
:10592000DF740008A8070020540000203475000828
:1059300038B5054688680C46FFF7E2FE08B9002036
:1059400038BD2046FFF71AFF0028F8D02146284628
:10595000FFF766FF0028F2D00448FFF70FFE20464D
:10596000FFF744FEB0FA80F0400938BD5B750008CF
:1059700010B5054C2046FAF777FC2046034A044947
:10598000BDE81040FCF701BA8402002000000020AE
:105990006B020008014B1860704700BF54000020E4
:1059A00030B593B001AC054600214122204601F0FC
:1059B000BFF80B49681E002310F8012F150902F0EB
:1059C0000F024D5DE554E51802338A5C6A70402B86
:1059D000F2D121460348FFF7D1FD13B030BD00BF1F
:1059E000FB7500081D7600082DE9F843134B46248B
:1059F0001A784443B4FBF1F4E4B2A24207460E46DF
:105A00001AD00F481C70FFF7B9FDDFF84080DFF8AF
:105A100040900025EBB29C422CBF484640460135E1
:105A2000FFF7ACFD462DF5D1B7422CBF054806481F
:105A3000BDE8F843FFF7A2BDBDE8F8838C02002063
:105A40000B760008177600081B760008FD76000824
:105A5000157600080020704700487047317600082E
:105A600010B5044B044640F8043BFAF7D9FD204634
:105A700010BD00BF687A00082DE9F843082001F046
:105A80002DF8384B384F1860012001F027F83860A6
:105A9000364800F047FE364800F04AFE0546FFF75C
:105AA000D9FF28B1FFF7D8FF01463248FFF766FD5E
:105AB0003148324EDFF8D090FFF760FD3048FFF7F5
:105AC0005DFD0024B046315D48460134FFF756FDC8
:105AD000142CF8D12B482C4EFFF750FD2B48FFF724
