:020000040800F2
:10000000008000104536000879360008793600086F
:1000100079360008793600087936000800000000BB
:100020000000000000000000000000007936000819
:10003000793600080000000079360008793600089B
:1000400079360008793600087936000879360008D4
:1000500079360008793600087936000879360008C4
:1000600079360008793600087936000879360008B4
:1000700079360008793600087936000879360008A4
:100080007936000879360008793600087936000894
:100090007936000879360008793600087936000884
:1000A0007936000879360008793600087936000874
:1000B0007936000879360008793600087936000864
:1000C0007936000879360008793600087936000854
:1000D0007936000879360008793600087936000844
:1000E0007936000879360008793600087936000834
:1000F0007936000879360008793600087936000824
:100100007936000879360008793600087936000813
:100110007936000879360008793600087936000803
:1001200079360008793600087936000879360008F3
:1001300079360008793600087936000879360008E3
:1001400079360008793600087936000879360008D3
:1001500079360008793600087936000879360008C3
:1001600079360008793600087936000879360008B3
:1001700079360008793600087936000879360008A3
:10018000793600087936000810B5054C237833B964
:10019000044B13B10448AFF300800123237010BD5A
:1001A000D8000020000000007C90000808B5034B38
:1001B0001BB103490348AFF3008008BD00000000F5
:1001C000DC0000207C900008154B002B08BF134B6F
:1001D0009D46A3F5803A00218B460F461348144AEA
:1001E000121A07F015FB0F4B002B00D098470E4B4F
:1001F000002B00D098470020002104000D000D487E
:10020000002802D00C4803F013F907F0B3FA2000DD
:10021000290003F063F903F008F900BF00000800AB
:100220000080001000000000CD340008D80000203D
:1002300088480020313400080000000073B50546EE
:1002400006200E46144601F037FD10B9094802B0E9
:1002500070BDA368019373680093D5E90121B36869
:1002600001F01AFE10F0FF0FF0D120236360024866
:10027000EDE700BF010043550000435530B501686C
:100280001F2985B0044606D80F4D2268A0680021BA
:1002900007F0BEFA14E0806807F06CF80028F3D18C
:1002A0000A4A07CA01AB83E80700102262601946B8
:1002B00022462046FFF7C2FF054B98420546E4D18F
:1002C000284605B030BD00BF01004355087D000839
:1002D0000000435570B50C46054608B9022070BDB4
:1002E0000029FBD06C2100F0BDF8064605F16C003A
:1002F00000F0D0F88642F1D105F1080000F0D5F801
:10030000C4E9000105F1100000F0CFF82022C4E993
:10031000020105F1180104F1100007F06EFA102235
:1003200005F1580104F1300007F067FA0020D6E724
:1003300038B50C46054600283AD0002938D00B685D
:100340006F2B35D970220021A06807F061FA194996
:10035000A06800F0DEF8A0680221043000F0D9F8AF
:10036000A068D5E90023083000F0DCF8A068D5E9E2
:100370000223103000F0D6F8A068202205F1100109
:10038000183007F03AFAA068102205F13001583011
:1003900007F033FA6C21A06800F064F8A368014606
:1003A00003F16C0000F0B5F870236360002038BDE5
:1003B0000220FCE7D4B3515AF0B50F469BB0064675
:1003C00018B311B30AAB202500212A46184607F0BE
:1003D0001FFA0022CDE9022001A80195FFF74EFF88
:1003E00001B291B9E823CDE9043312AB2A4618468D
:1003F000069607F00DFA07AA099004A901A8CDE90D
:100400000755FFF71BFF00B208B1022027E006F1F5
:10041000E80307A904A8CDE90455069300F092F873
:1004200004460028F1D106F1080000F03EF8C7E9C3
:10043000000106F1100000F038F82A46C7E9020171
:1004400006F1180107F1100007F0D7F9102206F1A4
:10045000A00107F1300007F0D0F93C6420461BB042
:10046000F0BD000030B50A4C01444FF0FF33884224
:1004700001D1D84330BD10F8012B5340082203F0BE
:1004800001055B0805B16340013AF8D1EFE700BF11
:100490002083B8ED40B103888278C0785BBA9BB204
:1004A00042EA032340EA032070472DE9F04868B38D
:1004B000036804791BBA1F0E00251E0245EA070CCB
:1004C00044EA060B4FEA0C23447943EA1B630025F8
:1004D00045EA03074FEA0B2244EA02063B0243EADD
:1004E00016638479C0790025320245EA030744EA9D
:1004F00002063B0243EA16633202002140EA02048C
:1005000041EA030520462946BDE8F088002400257D
:10051000F8E730B10B0AC17083700B0C090E437001
:100520000170704768B1110AC2718171110C120E0D
:1005300002711A0AC37082701A0C1B0E417142704C
:1005400003707047F0B54B6844689C421DD100238E
:10055000806889681A4624F00F06B34208D3C5188C
:100560000B44291A8C4209D850421043C00FF0BDE9
:10057000C558CF587D402A430433EEE715F8011BD8
:1005800013F8016B71400A43EBE70120EFE700002D
:1005900010B52F210446094807F015FA60B12F2144
:1005A000064807F010FA411C2822054806F042FBD5
:1005B000044B00201C6010BD0049F5E7F17D0008E8
:1005C000407E0008F400002010B52F2104460C489E
:1005D00007F0F9F978B12F21094807F0F4F9411C27
:1005E0003922084806F026FB074B1B682BB11B6815
:1005F0002046984710BD0249F2E70220FAE700BF03
:10060000F17D00089D7D0008F400002073B50646CA
:100610000D4610482F21144607F0D5F9A8B12F2117
:100620000C4807F0D0F9411C2B460094CC220A4814
:1006300006F000FB094B1B684BB144B19B69224695
:1006400029463046984702B070BD0249ECE70220C7
:10065000F9E700BFF17D0008C67D0008F400002026
:1006600010B52F2104460D4807F0ADF988B12F21B0
:100670000A4807F0A8F9411C4FF48172084806F0B7
:10068000D9FA084B1B6833B12CB11B6A2046984736
:1006900010BD0249F0E70220FAE700BFF17D000833
:1006A000357D0008F400002038B505460C460E489C
:1006B0002F2107F088F990B12F210B4807F083F91B
:1006C000411C4FF48E72094806F0B4FA084B1B68BF
:1006D0003BB134B15B6A21462846984738BD024990
:1006E000EFE70220FAE700BFF17D00086C7D00080B
:1006F000F400002038B5054678B100F0E3F904466F
:1007000024B2284600F030F82CB900B2002814BFFB
:100710000420002038BD0420FCE70220FAE7000096
:10072000024B1B6803B11847704700BFF800002058
:1007300010B590B90A4B0B4C1B68B4FBF3F404FBE7
:1007400003340C604FF48001B1FBF3F15943091BF2
:10075000B1FBF3F14B43136010BD0220FCE700BF77
:1007600004010020FFFF2F0070B5054608B90220E4
:1007700070BD2F21154807F026F928B32F21134803
:1007800007F021F9411CB6221148124E06F052FA28
:1007900000F064F9044600F069F9306000F070F987
:1007A0000D4B1860336840F22712B2FBF3F202FBE4
:1007B00003330A4A1360002CD9D1094B20461D602F
:1007C000FFF7AEFF2046D3E70049DCE74F7F000884
:1007D000BC7F00080001002004010020FC00002074
:1007E000F8000020F0B5054685B00E461446002AF4
:1007F0007ED09368002B7BD02F213E4807F0E3F892
:10080000002859D02F213B4807F0DDF8411C6368D0
:100810003948CDE900634FF4D3722B4606F00AFA4B
:1008200004AA4FF0FF3342F8043D02A92846029380
:10083000FFF77EFF314B1A68029B13441E44304B76
:100840001D68636807462F212A48013BB3FBF5F377
:1008500003FB055507F0B7F880B32F21254807F0B3
:10086000B2F8411C2368009340F2B3122B4625488E
:1008700006F0E0F92368AB4222D30095A068324627
:10088000002300F007F904462F211A4807F09BF8CF
:10089000C8B12F21174807F096F8411C0096029B1B
:1008A000194840F2BB1206F0C5F974B90420FFF7ED
:1008B00037FF204605B0F0BD0E49A8E70D49D1E746
:1008C0004FF0FF34E0E70B49E8E72F21094807F034
:1008D0007AF858B12F21074807F075F8411C4FF4FA
:1008E000E2720A4806F0A6F93C46E2E70149F6E75B
:1008F0000224DEE74F7F0008F47F0008FC000020A0
:1009000000010020338000086F800008AF800008DD
:100910002DE9F04784B0044602AF02250E460029B7
:1009200060D02F214648E84607F04DF800285ED0F9
:100930002F21434807F047F8411C4FF4FD7241480E
:1009400006F078F907F108024FF0FF3320463E4CDD
:1009500042F8043D39463B60FFF7EAFE236807335F
:1009600023F007030546ADEB030D2F2134480DF1AD
:10097000080907F028F800283BD02F21304807F05D
:1009800022F8411C7B6800933B68304840F2032208
:1009900006F050F923683A6800934846002300F0B7
:1009A00079F82F218246264807F00DF818B32F2139
:1009B000234807F008F8411C2368009340F20A22FC
:1009C0005346234806F036F9BAF1000F27D13146D5
:1009D0004846FFF7F1FC03B2054673B90720FFF75D
:1009E0009FFEC54628460837BD46BDE8F087144936
:1009F000A3E71349C6E71249DEE72F21104806F0A6
:100A0000E2FF50B12F210E4806F0DDFF411C1148D6
:100A100040F2132206F00EF9E3E70949F7E72F2128
:100A2000074806F0D0FF40B12F21054806F0CBFF64
:100A3000411C40F216220848ECE70149F9E700BFE3
:100A40004F7F00086C7E0008FC000020AC7E000890
:100A5000DE7E0008127F0008AF800008024B186895
:100A600003689B68184700BF5800002008B5034B77
:100A7000186803689B6A984708BD00BF58000020AB
:100A800008B5034B18680368DB6A984708BD00BFC8
:100A90005800002037B50649069D0C68216800956E
:100AA000002501954D6901462046A84703B030BD99
:100AB00058000020024B1B6803B11847704700BF65
:100AC0000801002038B5054600F0D0F8044628B9E2
:100AD000034B1D60FFF7EEFF204638BD0224FBE705
:100AE00008010020F0B505469FB018B90224204641
:100AF0001FB0F0BD002308224D496846CDE9003300
:100B000000F0BEF80424064600287ED16846FFF7B0
:100B1000C1FC07460DEB0400FFF7BCFC022864D1C2
:100B2000444B9F42344610D02F21434806F04BFFE0
:100B300000283ED02F21404806F045FF411C40F2DE
:100B40005E223E4806F076F804247022002102A8B6
:100B500006F05EFE23B2ABB97022354902A800F060
:100B60008FF850B32F213448042406F02CFF10B323
:100B70002F21314806F027FF411C314840F26A22FC
:100B800006F058F823B2002BB1D12F212A4806F0E5
:100B90001AFF002849D02F21274806F014FF411CD6
:100BA00040F28A22274806F045F80620FFF782FF28
:100BB0009DE72149C3E72049DFE7294602A8FFF75F
:100BC00089FB03B20446002BDCD02F211A4806F023
:100BD000FAFE40B12F21184806F0F5FE411C40F204
:100BE00071221948CCE71449F9E72F21124806F081
:100BF000EAFE40B12F21104806F0E5FE411C40F20C
:100C00007A221248BCE70C49F9E72F210A4806F07E
:100C1000DAFE40B12F21084806F0D5FE411C40F213
:100C20007F220B48ACE70449F9E70349B8E700BF66
:100C300000A00008D4B3515A10820008E4800008D4
:100C40002F810008F18100085E8100088E81000874
:100C5000C981000838B5036804462BB9051D02D0C8
:100C6000284600F0FEFD2560206838BD08B5034821
:100C7000FFF7F0FF00F000FE002008BD0C0100208F
:100C800070B50D46164604460448FFF7E3FF3346A9
:100C90002A462146BDE8704000F020BE0C0100202D
:100CA00000207047002070470368DB6A1847012066
:100CB00000217047D0F8BC010021704790F8E43162
:100CC00023B100F5E470D0E9000170470020002155
:100CD0007047FF207047000037B5054604461E48A0
:100CE00045F8040B4FF0FF300090284600F0CEFE90
:100CF00004F1E8031C221846002106F089FD9DF945
:100D0000181002F007F804F5E47300200021032214
:100D1000C3E90001C4F8D02108220023C4F8D4217B
:100D2000C4F8DC210122C4F8E03184F8E431C4F8CD
:100D3000D831C4F8BC31C4F8342184F8B031284625
:100D4000079900F00FFFD4F8F030D4F8E8201A60CB
:100D5000204603B030BD00BF088300082DE9F041F4
:100D6000FF271F604C78069E1C601C2A36DD079A00
:100D7000341F043A06F10C080125BC4644F804CFA0
:100D800091F81CE00127BEF1000F03D07F000EF1A7
:100D9000FF3EF8E7012F42F8047F19D04F7F27600C
:100DA0001768D0F8BCE1774502D3BEF1000F01D13E
:100DB000C0F8BC711768B7F5805F04D127681E685A
:100DC000BE4218BF1F6090F8B0712F4380F8B07119
:100DD0006D004445EDB201F10201CFD10020BDE824
:100DE000F081F0B51D4600F5E4731446D3E9002305
:100DF000AB4208BFA24217D3D0F83411A1B10129E8
:100E000010D000EBC1008B1E00F5AC70002B0BDB8B
:100E100070E90267AF4208BFA64201D2581CF0BD7C
:100E2000013BF3E70020FAE74FF0FF30F7E710B59A
:100E30000446FFF7D6FF03465A1CD4F8BC010AD07B
:100E40002344002293F8B0110123194205D004EB8A
:100E50008204D4F82401002110BD01325B00042A71
:100E60005BB2F2D1F7E7F0B5059D074600260320F7
:100E70000824EB1A0D7825420BD007EB8006D6F834
:100E80002461964201DA9E4209DB25EA04050D70D1
:100E9000064610F1FF304FEA5404EBD23046F0BD65
:100EA00003680BB9031D0360006870472DE9F04B20
:100EB0001546D0F8DC2106464FEAD209D0F8F420D6
:100EC000D0F8E800106006F104084046DDE908B7F4
:100ED00000F064FED6F8D04104F10054013CE40077
:100EE000002C11DBC4F12000A4F120022BFA04F144
:100EF00007FA00F0014327FA02F21143C9B2404653
:100F000000F04CFE083CEBE700244C4513D105F102
:100F1000FF3900240025DDE90A239D4208BF9442E1
:100F20000FD00021404600F039FE013409F8010FCE
:100F300045F10005EFE70021404600F02FFE0134A7
:100F4000E3E7D6F8F020D6F8E83013600020BDE8DB
:100F5000F08B0000F0B51F4690F8E43185B00446F0
:100F60000D461646EBB11048FFF79AFFD4F8D4317E
:100F7000C4F8DC31DDE90A23CDE90067CDE90223BD
:100F8000D4F804112A462046FFF790FFD4F8D83150
:100F9000C4F8DC3105460448FFF782FF284605B057
:100FA000F0BD6FF47A65F9E7180100202DE9F043F0
:100FB00095B0002304ADCDE90223CDE900132A4604
:100FC0005A210446FFF772FF00284ED19DF81030D9
:100FD00003F00303032B03D09DF81130002B44D002
:100FE0009DF8120001300A28C4F834013DDC0023CA
:100FF00004F59C7904F5D87804F5B07E4FF00F0C19
:1010000019460131884255F8212015F8216022F057
:10101000FF0202F5807249F8042B02F1FF3206F05C
:101020000F06134408F8016B4FEAE3770CEA060C4D
:101030001E46EEE8026703F10103E2DC0122002311
:1010400012EA0C0009D004EB83030020D3F824310A
:10105000C4F8BC3115B0BDE8F08301335200042B55
:10106000D2B2EDD1C4F8BC01F4E74FF0FF30F1E7A4
:1010700030B5002395B01546CDE90223CDE9001324
:1010800004AA5A210446FFF711FF00283DD19DF81C
:10109000123013F0040238D19DF91730002B34DBE5
:1010A000059BC4F8CC210133DB08C4F8C831032305
:1010B000C4F804310223C4F80831282D4FF020036E
:1010C000C4F80C3107DD9DF838200123121122B13C
:1010D0005B00013AFBE74FF48073C4F8C03104F5BC
:1010E0009273019304F58A7300932A4604F588737A
:1010F00004A92046FFF732FED4F81031C4F80C31B1
:101100000020C4F8D40115B030BD4FF0FF30FAE72D
:101110002DE9F04F8FB04FF0000907930823C0F876
:10112000D431C0F8DC3106919346CDE90239CDE9DE
:1011300000990AAA5A2180469A464D46FFF7B6FE04
:10114000002863D1042233490AA806F047FB059022
:1011500000285BD19DF82D30012B57D19DF82E2012
:101160000023901C43F10001CF0047EA5077C600EE
:101170005446CDE902A9CDE9004508AA5A214046C6
:10118000FFF794FE002841D19DF82230012B3DD17C
:101190009DF8203013BB9DF82730FF2B13D19DF80D
:1011A00025309DF826201B0243EA02439DF82420A7
:1011B0001343069A13609DF823309B00402BA8BF71
:1011C0004023CBF80030083445F10005BD4208BF8C
:1011D000B442CED105980FB0BDE8F08F512BF2D1BB
:1011E0009DF82730FF2BEED19DF825309DF8262065
:1011F0001B0243EA02439DF824201343079A13601D
:101200009DF82330189A9B001360DCE74FF0FF3302
:101210000593DFE7FA8200082DE9F84F9046D0F8F1
:10122000DC2106464FEAD209D0F8F420D0F8E800D5
:101230001060351D2846DDE90AB700F0AFFCD6F88E
:10124000D04104F10054013CE400002C11DBC4F156
:101250002000A4F120022BFA04F107FA00F0014368
:1012600027FA02F21143C9B2284600F097FC083C65
:10127000EBE700244C4515D108F1FF384FF0000A88
:101280004FF0000BDDE90C34A34508BF9A450FD0A1
:1012900018F8011F284600F081FC1AF1010A4BF1F1
:1012A000000BEFE70021284600F078FC0134E1E76D
:1012B000D6F8F020D6F8E83013600020BDE8F88FAB
:1012C0002DE9F7431F46D0F8F430D0F8DC911646EC
:1012D00000F10408D0F8E8201A600546404600F006
:1012E0005DFC7B1C08BFB6F1FF3F24D0D5F8D04190
:1012F00004F10054013CE400002C0ADA4FEAD90959
:1013000000244C4517D20021404600F047FC013430
:10131000F7E7C4F12002A4F1200326FA04F107FA4A
:1013200002F2114327FA03F31943C9B2404600F011
:1013300035FC083CE0E70D9B00930A99DDE90B239F
:10134000404600F03FFCD5F8F030D5F8E8201A60B0
:10135000002003B0BDE8F0837FB506461248FFF7D2
:101360009FFD96F8E4513DB9C6F8E0510E48FFF7ED
:1013700097FD284604B070BDD6F8E041013CC6F8A0
:10138000E0417CB9CDE90244CDE900444FF0FF32A1
:101390004FF0FF3304213046FFF792FF86F8E44117
:1013A0000546E3E70025E1E7180100201FB5074BDC
:1013B000002413401A46CDE90244CDE90044DB176E
:1013C000FFF77EFF204604B010BD00BF00F0FF0015
:1013D0002DE9F04186B0064642F210744FF0010844
:1013E00005AF0025012002F08FF84FF0FF33CDE963
:1013F0000278CDE900554FF0FF3205213046FFF766
:101400005FFF9DF81430DB0705D5013CEAD120468B
:1014100006B0BDE8F0810120FAE730B587B006AA32
:10142000002322F8043D0121CDE90221CDE900335A
:101430004FF0FF324FF0FF3305210546FFF740FF25
:1014400020B14FF0FF34204607B030BDCDE9020097
:10145000CDE900004FF0FF324FF0FF336621284600
:10146000FFF72EFF0028ECD1CDE90200CDE9000006
:101470004FF0FF324FF0FF3399212846FFF720FF4E
:10148000003018BF012044422846FFF7A1FFDAE7E9
:1014900070B5002386B0CDE90233CDE900334FF0BB
:1014A000FF324FF0FF3306210546FFF709FF0446E0
:1014B00018B14FF0FF3006B070BD2846FFF788FF27
:1014C0000028F6D005AE02222146304606F0A0F9EB
:1014D0000123CDE90263CDE900444FF0FF324FF024
:1014E000FF3305212846FFF7EBFE0028E1D19DF8E8
:1014F000140080F0020040F34000DCE72DE9F04FDB
:101500009B4690F8E43185B004460D469246002B88
:1015100042D0DFF8A480DDE90E23134342D0D4F893
:10152000C09100274A463B465046594606F060FAAD
:10153000DDE90E0180185941B94208BF48451E48EF
:1015400034BFDDF83890A9EB0209FFF7A9FC20466B
:10155000FFF79EFF40BB00274E46CDE900ABCDE92B
:1015600002672A46D4F808112046FFF755FEDDE948
:101570000E231AEB090A4BEB070BB2EB090263EBE4
:10158000070320464D44CDE90E23FFF721FF80B12C
:101590004046FFF785FCBEE76FF47A64204605B04D
:1015A000BDE8F08F0024F9E7044C0348FFF778FC0E
:1015B000F4E7034CF9E700BF180100205CF0FFFFDF
:1015C0005DF0FFFF2DE9F04F90F8E41187B004467D
:1015D00016461F46DDE91089002900F08D80FFF7CF
:1015E00000FC231818EB060293F8B0318DF8173081
:1015F00049EB0703994604F5E47345469046D3E961
:1016000000234B4508BF4245824603D23F4807B0FE
:10161000BDE8F08F23683246D96B20463B468847A9
:1016200002460B463046394606F0E2F91343EDD147
:10163000236818F1FF32D96B204649F1FF33884700
:1016400002460B464046494606F0D2F91343DDD127
:10165000DFF8BC90002D52DD04EBCA0303F5B07B2C
:10166000D3F8603100932A4633460DF11701204626
:10167000FFF7F9FB04EB80003946D0F82481D0F85D
:101680001431039342460023304606F0B1F9AB18FB
:101690009845484694BFA8EB0208A846FFF700FC0F
:1016A0002046FFF7F5FE60BB2A46EB17CDE9002385
:1016B000039932463B462046FFF778FEA5EB080526
:1016C00016EB080647F10007002D0DDDDBE90023CE
:1016D000BB4208BFB2423FBF0AF1010A04EB0A0352
:1016E00093F8B0318DF817302046FFF771FE40B106
:1016F0004846FFF7D5FBADE76FF47A6087E7002037
:1017000085E70348FFF7CCFB024880E75BF0FFFF6B
:10171000180100205DF0FFFFF0B5044600238BB0F8
:101720004048CDE90633CDE90833FFF7B9FB94F81B
:10173000E4310BB9C4F8E031D4F8E0310133012BC6
:10174000C4F8E0316AD12046FFF767FE013007D1C7
:101750006FF47A653348FFF7A3FB28460BB0F0BD62
:101760000323039305AB02930023CDE900334FF02D
:10177000FF324FF0FF339F212046FFF7A1FD0546C2
:101780000028E5D19DF81430BF2B0ED12046FFF77D
:101790007FFECDE90255CDE900554FF0FF324FF005
:1017A000FF3304212046FFF78BFD2046FFF710FE94
:1017B000002835D009AB009307AA08AB06A920463C
:1017C000FFF7A6FC08B1184DC4E7DDE90612204674
:1017D000FFF74EFC05460028F5D104F5E473D3E984
:1017E000006716F1FF3204F5B07147F1FF33C4F81A
:1017F0003861C1E90023089939B9D4F8D831C4F85F
:10180000DC31012384F8E431A4E7099A002AF4D0FA
:101810002046FFF7CBFB0028EFD0D4E7002599E75F
:10182000024D97E7180100205EF0FFFF5DF0FFFF1B
:1018300038B50446054B44F8043B0546FFF78CFDDC
:10184000204600F0DDF9284638BD00BF08830008B7
:1018500010B50446FFF7ECFF204601F01BFE2046C2
:1018600010BD7047704704F0EDB904F0CDB904F035
:10187000EBB904F0EDB9000070B50B4E05463046EB
:10188000FFF70EFB284604F0F3F80446284604F060
:10189000D9F901F0FDFD68603046FFF701FB201C1F
:1018A00018BF0120404270BD2001002038B5054618
:1018B0000948FFF7F5FA284604F0DCF8003018BFB5
:1018C00001204442686808B101F0E6FD0248FFF7D4
:1018D000E7FA204638BD00BF200100202DE9F04185
:1018E0000A4C0F461646054698462046FFF7D8FA9A
:1018F00043463A463146284601F0E2F9054620467D
:10190000FFF7CEFA2846BDE8F08100BF2001002095
:101910002DE9F84315461C460746884604F092F91F
:101920000646384604F094F98146384604F08CF9AE
:10193000B5FBF6F306FB1353002B47D1B8F1000FAC
:1019400044D02B1981444B4540D82248FFF7A8FAD0
:10195000B4B32946384604F057F9B5FBF0F300FB61
:101960001353C31AA34228BF234618F0030F01D113
:101970009E421DD9B34228BF334699461A46414676
:10198000786805F03AFF4E4506D97868A6EB09025B
:10199000FF21484405F03CFF7A6833462946384623
:1019A00004F0D0F850B9A4EB09044D44C844CFE783
:1019B000B3FBF6F3734399464246EFE74FF0FF342B
:1019C0000448FFF76DFA2046BDE8F8834FF0FF3476
:1019D000F9E700BF20010020F8B50D461446064681
:1019E00004F036F90746304604F02EF938442F1932
:1019F000B84203D24FF0FF342046F8BD0FD810484C
:101A0000FFF74EFAC4B12946304604F035F888B9DC
:101A10002946304604F0F8F8241A0544F2E739461E
:101A2000304604F0F1F8B7FBF0F303FB1070002828
:101A3000E5D0DFE74FF0FF340148FFF731FADBE78D
:101A400020010020C36810B504460BB19B6898477D
:101A5000204610BD024B1A680AB91A1D1A60704759
:101A60008C01002030B470B1D2E9004303F00102D0
:101A700004B942B15B10C5180AB1C3581C592846B5
:101A8000234630BC184730BC704700002DE9F043B6
:101A900006469946244B46F8043B044685B000258B
:101AA0000F46904600219822304605F0B1FECDE960
:101AB000025504AB13E9030004F1A0021B4B82E8BA
:101AC0000300C4F8A83048F20703C4F8AC30184B40
:101AD000C4F8B450C4F8B040C4F8B820C4F8BC305E
:101AE000BFF36F8FBFF34F8F1022294604F1C00060
:101AF00005F08EFE0823C4E935350E4BC4F8DC3002
:101B0000FF2384F8E0309DF930300093304684F8AC
:101B1000D05084F8D1504B464246394604F088FCF8
:101B2000204605B0BDE8F0835083000801A090E88E
:101B3000651A000840420F0070B5094D2B688342BA
:101B400004460CD0061DD0E935120023304604F0BF
:101B50001DFDD4F8DC10304604F04AFD2C6070BD49
:101B600094010020036870B51B6904460D46984730
:101B7000094BC4F8DC501B68A34209D12946201D3B
:101B800004F036FD236820465B69BDE870401847C5
:101B90002046FFF7D1FFF5E79401002038B5036830
:101BA00004461B690D4698472046FFF7C5FF2946A6
:101BB000201D04F03BFD236805465B6920469847DD
:101BC000284638BDF7B51F46036804461B690D4615
:101BD000164698472046FFF7AFFF94F8E030019390
:101BE000089B009329463B463246201D04F04EFDDB
:101BF000236805465B6920469847284603B0F0BD38
:101C0000084B10B50360084B1A688242044608BFAF
:101C1000002200F1C00008BF1A60FFF713FF204642
:101C200010BD00BF508300089401002010B5044689
:101C3000FFF7E6FF204601F02DFC204610BD38B529
:101C4000044648B100F15805AC4205D02C3D05F1E1
:101C50001800FFF7F7FEF7E7204638BD38B5002536
:101C60000446294640F8045B282205F0D1FD1022E5
:101C7000294604F1180005F0CBFD204638BD0000D0
:101C800010B50A4C2046FFF7E9FF04F12C00FFF7DE
:101C9000E5FF0023C4E9163384F860302046044A87
:101CA0000449BDE8104001F0BEBB00BF2801002080
:101CB000000000203F1C0008052804D00628034827
:101CC00018BF002070470248704700BF9883000883
:101CD000688300080C22002105F09ABD10B5044667
:101CE000A8B103689BB1406808B15B6A9847A068D7
:101CF00038B12368D968490000F024F9A06805F0DC
:101D000065FD20460C21BDE8104000F01BB910BD58
:101D100070B5044616460D4699B190B10B6A9847C6
:101D2000606048B156B1E968022005F015FDA06079
:101D300020B96B6A60689847034801E0256000207D
:101D400070BD0248FCE700BF80AEFFFF00AFFFFFA1
:101D50002DE9F0410E4688B017460446002857D0BA
:101D60000368002B54D08268002A51D0DA68BA4246
:101D700017D21B69406898470546002834D123686C
:101D800060685B693A4631469847054660BB236800
:101D900060689B6969469847054628BB23689F6829
:101DA0006E462368D4F80880DA683621404608EB8E
:101DB000020505F02DFD23685C21DA68284605F050
:101DC00027FD013E4346681E47449F4214D12368C5
:101DD00060681B699847054630B9236860685D698B
:101DE000DA684146A84705462021684600F0AAF86F
:101DF000284608B0BDE8F08116F8011F1A784A405D
:101E000003F8012B10F8012F31784A400270DCE70B
:101E1000004DEDE700AFFFFF10B440B1036833B1F0
:101E2000846824B15B6940685DF8044B1847024838
:101E30005DF8044B704700BF00AFFFFFF0B50E46E2
:101E400089B0044620B3036813B3826802B3DD6827
:101E500040689B69694615449847B8B9236860682B
:101E60001B69984790B9236860685F69DA682946FA
:101E7000B84758B9236860685D699A686946A84799
:101E800020B9236860689B693146984709B0F0BD66
:101E90000048FBE700AFFFFFF0B50E4685B01746E0
:101EA0001D46044610B301A8FFF714FF2146012286
:101EB00001A8FFF72DFF044690B93A46314601A824
:101EC000FFF746FF044658B90A9A294601A8FFF7CA
:101ED000A3FF044620B90B9901A8FFF7AFFF044602
:101EE00001A8FFF7FBFE204605B0F0BD004CFAE765
:101EF00000AFFFFF00F090B800F035B810B5044611
:101F000000F02CF82046BDE8104005F05FBC10B58D
:101F10006C21012005F020FC044608B100F01AF8FD
:101F2000204610BD012300F0E5B9002300F0E2B91E
:101F300000F049B900F008B9012100F019B80021FA
:101F400000F016B8024B0A461B680021184700BF74
:101F5000300000206C22002105F05ABC10B16C2129
:101F6000FFF7F0BF704708B56C2205F046FC08BDCE
:101F70000023C0E90033C1B9194A1A4BDFF88CC0FD
:101F8000C0E90223184B194AC0E904C3184BC0E941
:101F90000623184B036203F17453A3F52303A3F63E
:101FA00092434362816600207047134B134ADFF867
:101FB00060C0C0E9022303F1794303F5740303F51C
:101FC000016303610E4BC0E905C303F1D14303F57F
:101FD000C01303F51E63C3610A4B03620A4BE0E7BB
:101FE00067E6096A85AE67BB3AF54FA57F520E5189
:101FF0008C68059BABD9831F07D57C36D89E05C15D
:10200000310BC0FFA78FF964A44FFABE72F36E3C88
:1020100039590EF7FFF7ACBF2DE9F04FCBB000F107
:10202000080300931A460191002302A852F8041BEA
:1020300040F823100133082BF7D1DDE90787DDE9EC
:102040000236DDE904EBDDF82490069909AA0024A4
:102050000F2C5ED8019D05EB840C15F824A09CF88C
:10206000035045EA0A659CF801A045EA0A459CF838
:1020700002A045EA0A2555604FEAF12C88EA0705D7
:102080008CEAB11C0D408CEA716A7D400AEB050CAC
:102090002C4D55F82450654452F804CF6544A944AA
:1020A00046EA030A4FEA733509EB0B0C85EAB305E0
:1020B00006EA030B0AEA0E0A4AEA0B0A85EAB35556
:1020C00001345544402C4D44F346B9461AD1CDE96C
:1020D0000718CDE9046ECDE902530997CDF818C071
:1020E0000023009A116802AA52F823200A4400999A
:1020F000013341F8042B082B0091F2D100204BB0A2
:10210000BDE8F08FB64647461E4688462B466146D8
:102110009EE752F8045C52F838AC52F8180C4FEABB
:10212000F54C8CEA754C8CEA952C52F83C5C2844B2
:102130004FEABA4585EAFA15844485EADA0A0CEBD7
:102140000A0598E7D88300082DE9F84305460E46AE
:10215000144612B90020BDE8F883036803F03F0776
:10216000D318036022BF436801334360A7B1C7F1AE
:102170004008424510D300F12809424609EB070008
:1021800005F03BFB49462846FFF746FF0028E2D111
:102190004644A4EB08040746264405E02846FFF71A
:1021A0003BFF0028D7D1403C3F2CA6EB0401F5D8DB
:1021B000002CCFD005F128002246384405F01DFB45
:1021C000C8E7FFF7C1BF036803F03F035A1C03448D
:1021D00070B5382A0D4600F128064FF080010446FC
:1021E00083F8281006EB020073D8C2F138020021F0
:1021F00005F00EFBD4E900315A0F42EAC102110E7C
:10220000DB0084F86010110C84F8611084F86320FE
:10221000110A1A0E84F864201A0C84F865201A0A30
:1022200084F8621084F8662084F8673031462046CE
:10223000FFF7F2FE00284BD1E37A2B7063896B70B5
:10224000A3681B0AAB70A368EB70E37B2B71E38977
:102250006B71E3681B0AAB71E368EB71E37C2B7273
:10226000638A6B7223691B0AAB722369EB72E37D8D
:102270002B73E38A6B7363691B0AAB736369EB733C
:10228000E37E2B74638B6B74A3691B0AAB74A36925
:10229000EB74E37F2B75E38B6B75E3691B0AAB75FE
:1022A000E369EB7594F823302B76638C6B76236AA5
:1022B0001B0AAB76236AEB76A36E4BB994F82730F2
:1022C0002B77E38C6B77636A1B0AAB77636AEB77D8
:1022D00070BD0021C2F1400205F09AFA3146204655
:1022E000FFF79AFE0028F3D10146382230467FE7F7
:1022F000FFF769BFF0B59DB01C46064601A80F4622
:102300001546FFF727FE214601A8FFF731FE0446D8
:1023100058B93A46314601A8FFF716FF044620B9DE
:10232000294601A8FFF74FFF044601A8FFF716FE54
:1023300020461DB0F0BD000030B5084D11448A4262
:102340000BD012F8013B5840082340F300042C4006
:10235000013B84EA5000F8D1F1E730BD2083B8EDAD
:10236000084A026010210022C0E901220273C181E3
:102370000282C0E90522C0E90722C0E90D22C2633A
:10238000704700BFE084000800EBC101406B496A60
:102390000A440099FFF7A2BA04312DE9F843074631
:1023A00090469946102400EBC1056A680899786B3D
:1023B0004B464244FFF7ACFA064620B1012001F03B
:1023C000A3F8013CF1D13046BDE8F883F8B50746E3
:1023D000102400EBC106D6E90912786BFFF7FCFA6E
:1023E000054620B1012001F08FF8013CF3D12846C9
:1023F000F8BD00002DE9F74F0446406BFFF737FAB0
:102400000646606BFFF735FA31468046606BFFF792
:102410002CFA384BB8FBF0F00130984294BF8000A2
:102420004FF0FF3001F034F810228246324904F1B7
:10243000240005F0E2F90027D4F82890AAF104025C
:102440003B46BB463D46CDE90032B8F1000F24D0F3
:102450003146606BFFF709FA019A009B42F8046F5E
:102460000135B9F1000F12D004EBCB0CDCF82410CD
:10247000B14200D05BB1DCF828300744BB420AD13E
:10248000BBF1000F09D15B4600274FF0010B06445A
:10249000A8EB0008D7E70123F9E70AEB85014AF822
:1024A0002560B9F1000F19D1C4F83090013D012029
:1024B000CC466B1C12D004EBC0070A68BB6A51F80B
:1024C000046D1A44921BB2F5805FBA6204D37E6237
:1024D00020B1C4F828C00020013DEAE7BAF1000F9E
:1024E00005D0504603B0BDE8F04F00F0D5BF03B0B3
:1024F000BDE8F08FFEFFFF1F340000202DE9F04102
:1025000083691360A2B0064688461446002502AFD0
:10251000B369B5EBD31F19D222680097803A2260C5
:10252000802341463046FFF72FFF38B980235A1EDB
:10253000B95CFF2905D022681344236022B0BDE8AE
:10254000F0811346002AF2D10135E1E70020F5E7DA
:102550002DE9F04FA5B09A46319CDDF8C8800123E3
:10256000236002AC0094082307468B461546FFF70C
:102570000BFF064628B14FF0FF36304625B0BDE8C8
:10258000F08F224604214FF0FF30FFF7D5FE2F9B3E
:10259000BDF80A401E80BDF80830C3F30B02A8F84E
:1025A0000020339A03F470431380349B220B1A707B
:1025B000B8F80030FA899A42814607D840F6FE7290
:1025C000934203D0319A00231360D6E7309BC4F3C3
:1025D0000B0408357BB9544511D92F9B359A1C80C3
:1025E000BB6B013C2544B5FBF3F505FB03331360DE
:1025F0006FF00506C1E704AB4FF0800A2E93C4B11B
:102600005445A0462E9B009328BFD04643462A46F9
:1026100059463846FFF7B8FE0028ACD148462E9AF6
:102620004146FFF789FEA4EB08048146A4B2454465
:10263000E5E7039B4B45C5D1BDF80A302F9AC3F39C
:102640000B031380BB6B359A013DB5FBF3F505FB1E
:102650000333B9E72DE9F04F85B09346BDF8382034
:10266000DDE910591343ADF808309DF83C3045EAD8
:102670000333ADF80A30074600238A4602AA042134
:102680004FF0FF300393FFF757FE034625B14A464C
:102690002946FFF751FE03460393BB6B082B2CD949
:1026A000D7F83C8008220DEB0201404605F0A5F862
:1026B00045B308220DEB0201404605F09EF8BE6BC3
:1026C000083EAE4228BF2E463246494608F1080071
:1026D00005F093F8AD1B06F10804CDF80080234601
:1026E0005A4651463846FFF757FE804668B16FF0AC
:1026F0000108404605B0BDE8F08F082400260DEB28
:102700000408EAE72E460824E7E75C4455B14E4446
:1027100000962B46224651463846FFF73DFE0028DC
:10272000E5D12C44BB6B129A013CB4FBF3F404FBDF
:1027300003331360DDE700B589B0049306ABADF851
:102740001820039300220823CDE90123009240F6CC
:10275000FE73ADF81A200792FFF77CFF09B05DF811
:1027600004FB2DE9F04F1C46836BA5B0082B8ABFF4
:102770009BB28023D0F83C80029398BF0DF11008E3
:10278000CDF80080082307468B469246FFF7FCFDF4
:1027900020B14FF0FF3025B0BDE8F08FB8F9003020
:1027A000002B08DABB6B2E9A013CB4FBF3F404FB5C
:1027B00003331360EFE7B8F80250BA69C5F30B05AD
:1027C00005F108032344934231D2CBF10102D2B286
:1027D0000AF1080A08F108034FF008090392029A67
:1027E000A2EB0906B6B2AE4228BF2E4666B9B14486
:1027F000CDF800804B46224603993846FFF7CCFDC2
:1028000060B16FF00100C6E7009352463346594667
:102810003846FFF7B9FD0028E9D0BAE7AD1BADB2E5
:102820004C44B24443468146002DD8D1BAE76FF0FC
:102830000600B0E72DE9F04F1D46836B4FF00F08FF
:10284000B8FBF3F808FB033840F6FF73994289B0F0
:1028500004460F46164625D0130423D407AB017B4C
:102860000493139B0393BDF84830C1F10101CDE9F6
:1028700001530023009342463B46C9B2FFF7EAFEEC
:10288000002857D17313217B226A03F0020343EA25
:10289000057343EA0803C1F101010B4342F82730F5
:1028A000DDF81C80DFF8949000270DF11C0BE28905
:1028B000257BBBB29A4224D99A46236A53F82A60F0
:1028C00016EA09021BD006F001039D4217D1CDF88C
:1028D00000B0434629462046FFF743FF50BBC5F1F1
:1028E000010343EA080306F0704843EA0803226A3A
:1028F00006F006061E4342F82A60DDF81C80013708
:10290000D5E7228A013292B2C5F10101228207ABDA
:10291000C9B22046FFF70FFF60B9217BC4F81480CD
:10292000C1F1010323732046FFF750FD002818BFB3
:102930006FF0010009B0BDE8F08F00BFF8FFFF0F96
:102940002DE9F047456892B00446002D75D101216C
:10295000083000F0E7FC012806D06368002B6CD13A
:10296000012000F0D1FDF8E7E089800000F090FD43
:10297000E2892062ADF826502B4629469EB2B2422B
:1029800004D940F8235001210133F7E709B1ADF82C
:102990002620012000F06AFD4FF0FF33A361E061C3
:1029A000082000F063FD0546FEF75BFF65632846DF
:1029B000FEF762FF606BFEF756FF0828034638BF3C
:1029C00008230828A36303D9184600F061FDE063DB
:1029D0002046FFF70FFD0DAE0025B2460DF124088D
:1029E0002F4604EBC50346F8047FA2699B6A9A420E
:1029F00094BFA261A3615FFA85F905F808702AF80F
:102A00001570324649462046FFF778FD3368D3B942
:102A1000012308F80530A5B19DF82430012B47D1DA
:102A20009DF82530012B60D10021217304F114039E
:102A30002A462046FFF77FFE6560002012B0BDE801
:102A4000F0870125CDE70BAB07930DF12303069328
:102A50000AAB05930DF1260304930CABCDE9027389
:102A60000DF12A03019310AB00930022082349467D
:102A70002046FFF76DFD063008BF0C970C9B2BB16D
:102A8000BDF8262040F6FE739A4204D049462046FF
:102A9000FFF79CFCBCE70B9ABDF840306261022254
:102AA0002AF8153008F8052084F80C902382B2E744
:102AB000022B1AD19DF82530022B16D1BDF83430E7
:102AC000BDF836209A4201D3002B3DD10023237359
:102AD000217B12AB03EB4103C1F1010133F8143C3C
:102AE0002382C9B22046FFF771FC0BAD0DF123061E
:102AF0000AAF217B626912AB03EB810353F8103CF0
:102B00009A421ED20DF1260304930CAB03930123CA
:102B100002934FF000080DF12A030193CDE90665F9
:102B200043460597CDF800802046FFF711FD0C9B2A
:102B300063B9CDE900331A4640F6FF712046FFF72E
:102B400079FE0123636078E72573C1E7BDF828307B
:102B5000BDF82610226A180404D542F821800B9B88
:102B60006361C6E79DF823005B1303F0020343EAA9
:102B7000007360690343207B034342F82130EEE792
:102B8000F0B51D4643688DB004460F4616462BB17E
:102B9000E389BB4208D86FF0040003E0FFF7D0FEE2
:102BA0000028F5D00DB0F0BD15B90DF126050026B1
:102BB000236A53F8272002F0010122F0704222F02C
:102BC0000702E2B10BAB07930DF1230306930DF15E
:102BD0002603059309AB04930AAB0393139B02935B
:102BE000129B2046CDE900533346FFF7B1FC002885
:102BF000D8D10A9B002B08BF6FF00300D2E76FF01B
:102C00000200CFE713B500240194049C0094FFF761
:102C1000B7FF02B010BD38B543680446C3B1406B7E
:102C2000FEF744FE656B2DB12846FEF71BFE2846D5
:102C300000F030FCE06908B100F02CFC206A08B11B
:102C400000F02AFCE06B18B100F026FC0023E363DF
:102C50000020C4E9010038BD044B10B5036043688F
:102C600004460BB1FFF7D7FF204610BDE0840008F3
:102C700010B50446FFF7F0FF204600F00BFC20469D
:102C800010BD0000EFF31083DB4372B6044A1178E5
:102C900029B9044903F001030B7001231370704735
:102CA0009901002098010020034B00221A70034B69
:102CB0001B7803B162B6704799010020980100208B
:102CC00008B510461A4604F098FD002008BD38B536
:102CD00004460D4603685AB18268136020460121FC
:102CE00003F0D0F829462046BDE8384003F0C6B8C6
:102CF000C268F2E770B50E460446154603F09CF82C
:102D0000013606D02A4620460021BDE87040FFF774
:102D1000DEBF70BD0022FFF7EDBF000013B5044613
:102D200001300FD102B010BDA3420AD120468968FC
:102D300003F01CF90021204602B0BDE8104003F06A
:102D40009FB90C3191F900305A1CEDD1002300934A
:102D500022461946014800F049FBE3E730010180B3
:102D6000884207B502460BD0431C09D001310BD075
:102D7000002319460093054800F038FB4FF0FF315F
:102D8000084603B05DF804FB0146F9E73001018015
:102D900091F900305A1C01D118467047834201D185
:102DA000486870470C31F3E7421C13B504460BD05A
:102DB000FFF7EEFF431C044606D1002302460093B2
:102DC0001946034800F012FB204602B010BD00BFB8
:102DD000300101802DE9F34DD0F8048098F83A30A5
:102DE0000446002B64D103685B68984763681B6ADC
:102DF00083425DD0D8F82010D8F80C30C8F82000F5
:102E0000411AD8F808603748194086420C464FF0FE
:102E1000000546D098F83B30A1FB00120027D8E906
:102E20000AABCDE90012002B45D0009921FA03F43A
:102E30000199C3F1200CA3F1200201FA0CFC21FA44
:102E400002F221FA03F5DDE9000144EA0C0414431F
:102E500010EB0A00A3F1200C41EB0B01C3F120029F
:102E600005FA03FB04FA0CFC24FA02F204FA03FA52
:102E70004BEA0C0B4BEA020BB0EB0A0261EB0B03C3
:102E8000BB4208BFB24202D2C8E90A2309E00134BA
:102E900045F10005921B63EB070310461946C8E98C
:102EA0000A01D8E90C01021941EB0503C8E90C231A
:102EB00002B0BDE8F08D32463B46DDE9000104F08A
:102EC00097FD044612EB0A000D4643EB0B01B94295
:102ED00008BFB042E3D3013445F10005821B61EB2A
:102EE0000703D1E740420F00824206D98A420BD93C
:102EF000884294BF002001207047884206D98A4248
:102F00008CBF0020012070470120704700207047CF
:102F10002DE9F74F466896F83A300746002B40F007
:102F2000918096F83930002B40F08C80FFF752FFEB
:102F30007D68D7F800A06968002978D0D5E90C230E
:102F4000D1E900018B4208BF824205D3DAF8143080
:102F500003B0BDE8F04F1847801A61EB0301CDE9DB
:102F60000001DDE90023D5E90601994208BF90423E
:102F70002C6907D3A9683548814218D1009B9C422F
:102F800028BF1C462A6ADAF810301444EA68144054
:102F9000204698473B685B68984722460146306A5E
:102FA000FFF7A2FF00284DD03B685B69D0E795F89A
:102FB0003BC0BCF1000F28D0019B244A03FA0CF35C
:102FC0001946009BACF1200803FA08F841EA08030F
:102FD0001946009BDFF87880CCF1200E23FA0EFE14
:102FE00041EA0E031946009B03FA0CF318464FF012
:102FF000000910EB08004FF0000341EB090104F059
:10300000F7FC844228BF0446BCE7009BDFF840B0D1
:103010000E4AA1FB0389019B4FF0000C01FB0399B1
:103020001BEB08004FF000034CEB0901E7E73369A5
:10303000306AF2681844DAF81030104003B0BDE886
:10304000F04F184703B0BDE8F08F00BF40420F00BB
:103050003F420F0043682DE9F74F93F838200546AB
:10306000002A60D193F83A30002B5CD103681B68CA
:1030700098472B68DB6998472C4BD0F800800122D9
:10308000B8F1000F08BF98461F2302FA03F141452B
:103090005FFA83FA02D0013BF7D19A464468234E87
:1030A000231F1D2B28BF2024231F4FF0070918F1D1
:1030B000FF3009FA03F94FF0000343F1FF314246B4
:1030C000C6FB090104F094FC6B682A6801934FF079
:1030D000000BC3E900BB52680F4606469047019BB0
:1030E0000122186202FA04F46B6800210020013CFE
:1030F000C3E90A01C3E90C01C3F80880284683F834
:103100003BA0C3E90349C3E9066783F839B083F8F4
:103110003AB083F83820FFF75DFE284603B0BDE8DB
:10312000F04FFFF7F5BE03B0BDE8F08F40420F004F
:1031300070B5044600F0DEF82368DB6898476368E2
:1031400093F83A201AB1BDE8704000F0DDB80122D2
:1031500083F8392063685B68A3B12046FFF73AFE25
:1031600065686E68D5E90C01D6E90023994208BF6D
:10317000904207D3F3686B602B68002BEAD0B068ED
:103180009847E7E76368002283F839202046FFF775
:10319000BFFED8E710B50446FFF75CFF00F0AAF8C1
:1031A0002046FFF717FE00F0AFF86368D3E90C0183
:1031B00010BD08B5FFF7EEFF08BD000000487047DE
:1031C000E8840008024B1B680BB10248184770479F
:1031D00044000020E884000804F07EBB04F02EBB0D
:1031E00004F01EBBF0B572B6234ADFF898C0002386
:1031F00013604FF0E0221C46516801F00F010131CD
:103200004FF0FF371E46A20002F1604202F5614214
:10321000C2F88070C2F880710022D518654401326E
:10322000082A85F80063F8D10134A14203F10803AC
:10323000E9DC124B4FF020625A6040F2FA5298607B
:10324000DA6000221E6111469C1801320C2A217698
:10325000FAD14FF0FF3259629A62094ADA621F22AC
:103260001A63D0E9003140F2000282F314889D46CF
:1032700082F310880847F0BD10E000E000ED00E0A8
:10328000020000C000E100E010B588B000F032F8A4
:103290001F2101A8FFF73EFD0424039B019A1A6039
:1032A000962000F031F9049B019A1A60962000F0F4
:1032B0002BF9013CF1D10424039B019A1A604FF4CD
:1032C000C87000F021F9049B019A1A604FF4C8708D
:1032D00000F01AF9013CEFD1DEE7EFF31080C043B4
:1032E00000F001007047EFF30580003018BF0120A7
:1032F0007047000008B5FFF7C5FC024A13680133A8
:10330000136008BDE0010020054B1A6832B11A684D
:10331000013A1A601B680BB9FFF7C6BC704700BFC3
:10332000E001002050E8003F0B4440E80032002A52
:10333000F8D11846704700002DE9F0411A4C1B4E99
:10334000237836EA200628BF0646012B8EB00F46AA
:10335000904600D1FEE7164DFFF7CCFF0123237006
:10336000FFF7D2FF2B6834220133002101A82B6024
:1033700004F04EFA2B680397012BCDE9016804D1C4
:10338000342201A90B4804F038FA342201A90A4872
:1033900004F033FA094B1B680BB10748984700202B
:1033A00020700EB0BDE8F081EC0100200101FF802B
:1033B000E4010020F001002024020020E8010020A8
:1033C0000FB410B5074C2178724631B90648FFF7A3
:1033D000B3FF0120207000F028F8BDE8104004B0D1
:1033E000704700BFEC0100200001FF8008B51146C6
:1033F0007246FFF7A1FF50B9FFF775FF10B9FFF74D
:103400006CFF08B930BFFDE7012000F00EF801485D
:1034100008BD00BF0F01FF8002F02ABC08B508B14B
:10342000FFF732FFFEE70120704708B5FFF7F6FF10
:10343000012070477047704708B5FFF7FBFF08BDD4
:1034400008B5FFF7F8FF08BD037803F00302012A6F
:103450001DBF43F002030370012000207047037872
:1034600023F0030343F001030370704737B50546AB
:1034700004F0A4F9044630B90090034601462A46F8
:103480000248FFF7B3FF204603B030BD1F010180A3
:10349000FFF7ECBF04F09AB904F098B97047704791
:1034A000084B094998684FF08053C21802F17042E6
:1034B000126843F8042B8B42F7D1024B4FF0805235
:1034C0009A60704700ED00E08801001008B5FFF732
:1034D000E7FF02F01DFDFFF7E2FF08BD08B5FFF7AB
:1034E000DDFFBDE8084003F08DBE70B50446FFF770
:1034F00065FE0646FFF75DFE05463046FFF759FEBE
:10350000401BA042F9D370BD4FF47A735843FFF7C4
:10351000ECBF00000F49D1F8883043F47003C1F8C4
:1035200088300D4B1A68002042F001021A60986042
:103530001A6822F0A85222F410221A604FF4805226
:10354000DA601A6822F480221A609861034B8B605B
:10355000704700BF00ED00E00010024000000008CE
:1035600030B5B9B0142200210546684604F050F980
:103570004422002105A804F04BF90021882216A856
:1035800004F046F9264B196811F4806102D000203E
:1035900039B030BD01246846009400F0A9FD07232E
:1035A0000593002D38D14FF48033CDE90634002344
:1035B00014220124089303250223CDE9114205A812
:1035C0000722CDE90F35CDE91323159300F034FB25
:1035D0000028DCD10F23CDE90200049004216846C5
:1035E000CDE9003500F084FD0028D0D10D4B1693B5
:1035F0004FF44063299316A84FF48073379300F07B
:1036000071FF0028C3D110230B900F9005A80593DC
:1036100000F012FB2046BBE74FF4A0230693C6E759
:10362000001002402000020008B50020FFF798FFBC
:1036300020B90348BDE80840FFF7C2BE08BD00BF7F
:10364000E8850008DFF820D0002103E0074B5B5835
:10365000435004310648074B42189A42F6D3FFF70D
:1036600059FFFCF7B1FD70470080001088900008FA
:1036700000000020D8000020FEE7704708B50320B6
:1036800000F008F80F2002F026FCFFF7F6FF0020FC
:1036900008BD0000074AD36823F4E0631B041B0C39
:1036A00043F0BF63000243F4003300F4E0600343DF
:1036B000D360704700ED00E0324B1A69920741BFBA
:1036C00031494A6842F001024A601B691B0741BF49
:1036D0002D4A536843F0020353602A4B1A69D006FF
:1036E00041BF29494A6842F004024A601B699906B1
:1036F00041BF254A536843F008035360214B1A69C0
:10370000520641BF20494A6842F010024A601B69D4
:103710001B0641BF1C4A536843F020035360194BFA
:103720001A69D00541BF18494A6842F040024A6010
:103730001B69990541BF144A536843F080035360E5
:10374000104B1A69520441BF0F494A6842F4807213
:103750004A601B691B0441BF0B4A536843F4007362
:103760005360084B9A69002ABFBF07494A6842F470
:1037700080624A609A6942F000429A614CF2FA32E1
:103780001A61704700200240F8040020074A53697C
:1037900043F48023536172B601F58073401A0A68BE
:1037A0000A5004319942FAD162B6704700200240B3
:1037B000064B5A69002ABFBF054A9A6002F1883257
:1037C0009A60BABF5869C00F0020704700200240BD
:1037D00023016745034A536943F0004353610020C6
:1037E000704700BF0020024070B5054602F078FB2C
:1037F0001E4C06462369D80326D4236999071FD493
:1038000023691A071CD42369DB0619D423699E0691
:1038100016D423695D0613D42369180610D42369CE
:10382000D9050DD423699A050AD423695B0407D40A
:103830000E490A6912F4004202D18B69002B0CDA9E
:10384000FFF73AFF012070BD6B1CD3D002F048FB9C
:10385000801BA842CED30320F5E7086910F00100D1
:10386000F1D001230B611046EDE700BF00200240BC
:103870002DE9F047244C9A462378012B07468846C9
:1038800091463FD001234CF250302370FFF7ACFF3C
:10389000064620BB60601D48056815F4806517BFAB
:1038A0000368257723F4806303601CBF022323771A
:1038B000D7B9456945F001054561C8F80090012573
:1038C000C8F804A04CF25030FFF78EFF064625B131
:1038D0000E4A536923EA0505556100F051F80023AB
:1038E00023703046BDE8F0877B1E012B01D90025EF
:1038F000E8E749464046FFF749FF022FF7D14FF46A
:103900008025DFE70226ECE7F804002000200240D3
:10391000094B10F0010F1EBF5A6942F004025A61B0
:10392000820742BF5A6942F400425A615A6942F41E
:1039300080325A61704700BF002002400F4B5A6925
:1039400011F0010F14BF22F4006242F400625A61C8
:103950005A694FF4FF6191FAA1F1B1FA81F122F4B1
:10396000FF628840104358615A6942F002025A616E
:103970005A6942F480325A61704700BF0020024009
:10398000144B1A7F012A02D01A7F032A0CD1124A43
:10399000116841F400611160116821F40061116047
:1039A000116841F4007111601A7F022A02D01A7F57
:1039B000032A0CD1084A116841F480511160116842
:1039C00021F480511160116841F48061116000227E
:1039D0001A777047F8040020002002402DE9F047D4
:1039E000354C2378012B0646884662D001274CF2DD
:1039F00050302770FFF7F8FE054640BB2F4B606044
:103A00001A6812F4007F1A6826D022F400721A6035
:103A10001A68510506D51A6822F480621A600323D9
:103A2000237700E027773368012B1FD17068FFF7F9
:103A30006FFF4CF25030FFF7D7FE204A536923F452
:103A4000004323F0040305465361FFF799FF002369
:103A500023702846BDE8F087520505D51A6822F480
:103A600080621A600223DBE72077DCE74FF0FF3348
:103A7000C8F80030B768DFF84490DFF844A0D6E912
:103A800002321344BB42E0D971683846FFF756FF53
:103A90004CF25030FFF7A8FED9F8143003EA0A03BD
:103AA000C9F8143018B1C8F800700546CDE70137E1
:103AB000E5E70225CDE700BFF80400200020024022
:103AC00005F8FFFF024B186800F4C060704700BFA4
:103AD00000700040024A536843F40073536070471B
:103AE0000070004037B51E4DAB6DDA00044618D5A6
:103AF000FFF7E8FFB0F5007F23D1802C29D9A02C57
:103B00008CBF02200120174A136823F007030343E8
:103B10001360136803F00703181A18BF012003B0DD
:103B200030BDAB6D43F08053AB65AB6D03F080539C
:103B30000193019BFFF7C6FFAB6D23F08053AB658C
:103B4000D8E7802C07D808D0A4F170035842584118
:103B5000D9E70020D7E70320D5E70220D3E700BF4D
:103B600000100240002002402F4B9A6812F00C0F08
:103B700010B509D09A6802F00C020C2A2DD1DA682F
:103B800002F00302012A28D11A682849120755BFFA
:103B9000D3F894201A68C2F30322C2F3031251F837
:103BA0002220996811F00C0F0CBF10460020996874
:103BB00001F00C010C2930D1DC68D868C0F3021088
:103BC000411C04F00300022819D0032826D0B2FBC0
:103BD000F1F2D868C0F3062017E09A6802F00C02F0
:103BE000042A07D09A6802F00C02082A04D110486F
:103BF0000022DCE70F48FBE700200246D7E7DA683F
:103C00000C48C2F30622B0FBF1F0DB68C3F341635A
:103C1000013350435B00B0FBF3F010BDDA68044899
:103C2000C2F30622EFE700BF00100240288600081A
:103C300000127A000024F40003682DE9F3410446E1
:103C4000D80639D5A94DAB6813F00C0F5ED12B689F
:103C5000990703D5A3690BB901207BE02B68206A83
:103C60001A0756BFD5F894302B681B0903F0F003F0
:103C7000984236D9FFF736FF0028EDD12B6843F084
:103C800008032B602B68226A23F0F00313432B6098
:103C90006B68E26923F47F4343EA02236B60FFF71A
:103CA00063FFAB68924AC3F30313D35CD840914BD4
:103CB00018600F2002F00FF92368DE075DD4236837
:103CC0009D0700F1A5802368190700F1E3802368B0
:103CD0005A0700F11181A16A002940F07881002083
:103CE00038E02B6843F008032B602B6823F0F003C7
:103CF00003432B606B68E26923F47F4343EA0223AA
:103D00006B60FFF7EFFE0028C9D0A5E7A36923B3D6
:103D10002B6843F001032B6002F0E2F806462B68A3
:103D20009B0711D52B6843F008032B602B68226A90
:103D300023F0F00313432B606B68E26923F47F43A5
:103D400043EA02236B60B7E702F0CAF8801B02283F
:103D5000E5D9032002B0BDE8F0812B6823F0010310
:103D60002B6002F0BDF806462B689F07A4D502F031
:103D7000B7F8801B0228F7D9EBE75C4DAB6803F07E
:103D80000C03082B09D0AB6803F00C030C2B0BD1F0
:103D9000EB6803F00303032B06D12B6898038ED541
:103DA0006368002B8BD157E76368B3F5803F10D170
:103DB0002B6843F480332B6002F092F806462B68A0
:103DC00099033FF57CAF02F08BF8801BC828F6D929
:103DD000BFE7B3F5A02F04D12B6843F480232B60F9
:103DE000E6E72A6822F480322A602A6822F48022D8
:103DF0002A60002BE0D102F073F806462B689A0384
:103E00007FF55DAF02F06CF8801BC828F6D9A0E7FB
:103E1000364DAB6803F00C03042B09D0AB6803F0FC
:103E20000C030C2B13D1EB6803F00303022B0ED110
:103E30002B685B0503D5E368002B3FF40DAF6B687F
:103E4000226923F0F85343EA02636B603BE7E368BF
:103E50007BB12B6843F480732B6002F041F8064677
:103E60002B685F05EBD402F03BF8801B0228F7D9E2
:103E70006FE72B6823F480732B6002F031F806465D
:103E80002B6858057FF51FAF02F02AF8801B022827
:103E9000F6D95EE76369154D9BB1D5F8943043F0D0
:103EA0000103C5F8943002F01BF80646D5F89430AB
:103EB0009B073FF50CAF02F013F8801B0228F5D9E1
:103EC00047E7D5F8943023F00103C5F8943002F0A9
:103ED00007F80646D5F894309F077FF5F8AE01F055
:103EE000FFFF801B0228F5D933E700BF0010024016
:103EF0000D860008480000207B4DAB6DDE0027D406
:103F0000AB6D43F08053AB65AB6D03F08053019311
:103F1000019B0127754E3368D8051BD5A368012B7B
:103F200029D1D5F8903043F00103C5F8903001F065
:103F3000D7FF41F288380646D5F890309A0740D529
:103F4000002F3FF4C8AEAB6D23F08053AB65C2E6E3
:103F50000027DFE7336843F48073336001F0C0FF6C
:103F600080463368D905D9D401F0BAFFA0EB080028
:103F70000228F6D9EDE6052B06D1D5F8903043F0AE
:103F80000403C5F89030CCE7D5F8902022F0010268
:103F9000C5F89020D5F8902022F00402C5F89020B2
:103FA000002BC4D101F09CFF41F288380646D5F8B9
:103FB00090309B07C4D501F093FF801B4045F6D994
:103FC000C7E601F08DFF801B4045B5D9C1E6464BE1
:103FD0009A6802F00C020C2A1D465AD01B6802296E
:103FE00023F080732B6037D101F07AFF06462B68EF
:103FF0009F012BD4626BE36A43EA0223226B013AEE
:1040000043EA0213A26B120943EA4243E26B5208ED
:10401000013A43EA4253226C5208013A43EA4263AE
:10402000EB602B6843F080732B60EB6843F0807388
:10403000EB6001F055FF04462B6898013FF54FAE49
:1040400001F04EFF001B0228F6D982E601F048FF7E
:10405000801B0228CBD97CE62B68190106D42B687B
:104060009A005EBFEB6823F00303EB60EB6823F07C
:10407000887323F48033EB6001F032FF04462B6831
:104080009B017FF52CAE01F02BFF001B0228F6D917
:104090005FE69A68E16A02F003028A427FF4DCADCF
:1040A0009A68216B02F070028A427FF4D5AD9A685B
:1040B000616B02F4FE428A427FF4CEAD9A68A16B36
:1040C00002F400328A427FF4C7AD9A68E16B02F4D1
:1040D000C0028A427FF4C0AD9868236C00F0C060D3
:1040E000C01A18BF012035E60010024000700040E1
:1040F000554A136803F007038B422DE9F04105464A
:104100000E462AD32B68D90734D429688A0700F1D0
:1041100081804D4A136803F00703B34200F28280A6
:1041200011F0040F494C40F088800B0706D5A368B6
:104130002A6923F4605343EAC203A360FFF714FD26
:10414000A368434AC3F30313D35CD840414B1860C0
:104150000F2001F0C0FE00200AE0136823F00703DF
:104160000B431360136803F007038B42CAD001208E
:10417000BDE8F0816A68354C032A23681BD113F02F
:10418000007FF4D0A36823F003031343A36001F07E
:10419000A7FE6B68032B074641F2883817D1A36846
:1041A00003F00C030C2BB0D001F09AFEC01B40456D
:1041B000F5D90320DCE7022A02D113F4003FE0E73F
:1041C00012B913F0020FDCE713F4806FD9E7022B6A
:1041D0000AD1A36803F00C03082B96D001F080FEEF
:1041E000C01B4045F5D9E4E773B9A36813F00C0F81
:1041F0008BD001F075FEC01B4045F6D9D9E701F020
:104200006FFEC01B4045D4D8A36803F00C03042BF9
:10421000F5D17AE70D4AA868936823F0F0030343C9
:10422000936076E7136823F0070333431360136842
:1042300003F00703B3429AD172E7A368EA6823F454
:10424000E0631343A36070E70020024000100240C7
:104250000D86000848000020044B054A9B68C3F304
:104260000223D35C034A1068D84070470010024014
:104270001D86000848000020044B054A9B68C3F3D4
:10428000C223D35C034A1068D84070470010024034
:104290001D860008480000200F2303600B4B9A681E
:1042A00002F0030242609A6802F0F00282609A68AB
:1042B00002F4E062C2609B68DB0803F4E063036120
:1042C000034B1B6803F007030B60704700100240AC
:1042D00000200240F8B5444BDA6812F0030F05469F
:1042E0000E4600681C462AD0DA6802F003028242B9
:1042F0003CD1002A3AD0DB686A68C3F30213013369
:10430000934233D1236823F08063236001F0E8FDFA
:10431000074623681A0132D4AB681F02002E35D03D
:10432000012E4ED12A6921695208531E21F4C00280
:1043300022F4FE423A4342EA4352226131E002282B
:1043400010D0032814D0012810D11B689F071CD55A
:10435000E3686A6823F07303013A184340EA0210E5
:10436000E060CFE71B6813F4806FF1D101200CE00F
:104370001A689103ECD41B6813F4802FF5E701F061
:10438000AFFDC01B0228C4D90320F8BD2169EB682A
:1043900021F41F3121F440711B09394341EA4341A3
:1043A0002161236843F08063236001F099FD064694
:1043B00023681B0112D52369AA69134323610020D6
:1043C000E3E76B6922695B08591E22F0C06323F49E
:1043D000FE433B4343EA41632361E2E701F080FD92
:1043E000801B0228E4D9CFE700100240F8B53C4B0F
:1043F000DA6812F0030F05460E4600681C4627D007
:10440000DA6802F00302824239D1002A37D0DB6831
:104410006A68C3F302130133934230D1236823F057
:104420008053236001F05CFD074623689A002FD477
:10443000AB6818029EB36369296923F0C063490819
:1044400023F4FE430139034343EA4163636131E0EE
:10445000022810D0032814D0012810D11B689F0710
:104460001CD5E3686A6823F07303013A184340EAF5
:104470000210E060D2E71B6813F4806FF1D10120D5
:104480000CE01A689103ECD41B6813F4802FF5E755
:1044900001F026FDC01B0228C7D90320F8BD6269C0
:1044A000EB6822F41F3222F440721B09024342EAF5
:1044B00043426261236843F08053236001F010FDA2
:1044C000064623689B0005D563696A6913436361E7
:1044D0000020E3E701F004FD801B0228F1D9DCE7AE
:1044E000001002402DE9F347066816F40066044602
:1044F00024D0416EB1F5800F2CD002D8C1B1012675
:104500001CE0B1F5000F0DD0B1F5400FF7D14E4AC8
:10451000616ED2F8883023F440030B43C2F8883030
:1045200000260BE0484AD36843F48033D360EEE7BB
:104530000430FFF7CFFE06460028E8D02368D804F1
:1045400006D5A16EB1F1807F73D008D8A9B101263C
:10455000354621E000212030FFF748FFEBE7B1F1BD
:10456000007F04D0B1F1407FF1D1354609E0364AF1
:10457000D36843F48033D360F7E7201DFFF7AAFE2A
:104580000546002D5BD1304AA16ED2F8883023F069
:1045900040730B43C2F888302368990340F15A8175
:1045A000294FBB6DDA004CD4BB6D43F08053BB6523
:1045B000BB6D03F080530193019B4FF00108DFF8BE
:1045C0008C90D9F8003043F48073C9F8003001F0C2
:1045D00087FC8246D9F80030DB0539D5002D3ED165
:1045E000D7F8903013F4407315D0D4F884209A4251
:1045F00011D0D7F89030D7F8902042F48032C7F825
:104600009020D7F8902023F4407322F48032C7F82A
:104610009020C7F89030D80700F10C81D7F890307F
:10462000D4F8842023F440731343C7F89030354600
:1046300015E0002104F12000FFF7D8FEA0E72E4688
:10464000AAE74FF00008BAE70010024000700040EF
:1046500001F046FCA0EB0A000228BBD90325B8F103
:10466000000F03D0BB6D23F08053BB652368DA07CE
:1046700008D58E49A06BD1F8882022F003020243AE
:10468000C1F888209F0708D58849E06BD1F88820B9
:1046900022F00C020243C1F888205E0708D5834946
:1046A000206CD1F8882022F030020243C1F8882023
:1046B000180708D57D49606CD1F8882022F0C00227
:1046C0000243C1F88820D90608D57849A06CD1F8F2
:1046D000882022F440720243C1F888209A0608D547
:1046E0007249E06CD1F8882022F440620243C1F89C
:1046F00088209F0508D56D49E06DD1F8882022F407
:1047000040220243C1F888205E0508D56749206E23
:10471000D1F8882022F440120243C1F888205806BC
:1047200008D56249206DD1F8882022F44052024316
:10473000C1F88820190608D55C49606DD1F8882039
:1047400022F440420243C1F88820DA0508D55749CF
:10475000A06DD1F8882022F440320243C1F88820AD
:104760009B040FD5514AE16ED2F8883023F04063A4
:104770000B43B1F1006FC2F888306DD1D36843F4B8
:104780008013D36023681F030FD5484A216FD2F8E6
:10479000883023F040630B43B1F1006FC2F88830DA
:1047A00065D1D36843F48013D36023685E030FD5CB
:1047B0003E4A616FD2F8883023F040630B43B1F179
:1047C000006FC2F888305DD1D36843F48013D360A2
:1047D0002368580412D53549A26FD1F8883023F0E8
:1047E00040531343B2F1805FC1F8883055D10221A4
:1047F000201DFFF76FFD002818BF05462268110431
:1048000008D52A49E06FD1F8883023F0804303436C
:10481000C1F88830D30309D5244AD4F88010D2F8DF
:10482000883023F000430B43C2F88830284602B09A
:10483000BDE8F08701F054FB41F288390546D7F80E
:10484000903099073FF5EAAE01F04AFB401B48451E
:10485000F5D903E7354609E7B1F1806F92D101211F
:10486000201DFFF737FD002818BF05468AE7B1F184
:10487000806F9AD10121201DFFF72CFD002818BF61
:10488000054692E7B1F1806FA2D10121201DFFF70B
:1048900021FD002818BF05469AE7B2F1005FADD1AF
:1048A000022104F12000FFF7A1FDA4E7001002405F
:1048B00003685A6822F0E0025A604268B2F5827FCB
:1048C0000AD18268B2F5004F02D0B2F5806F03D1F1
:1048D0001A6822F040021A60826AB2F5005F07D1BE
:1048E0001A6822F400521A601A6842F400521A60E0
:1048F000012380F85D30002380F85C30032070478E
:104900002DE9F041DDF8188005460F4616461C4695
:104910002A68936837EA03030CBF012300239E42F1
:1049200002D10020BDE8F081631CF2D024B92846F2
:10493000BDE8F041FFF7BCBF01F0D2FAA0EB0800E0
:10494000A042E5D3F3E72DE9F341DDF820800746E7
:104950000E4615461C463A6890683040A84203D17E
:10496000002002B0BDE8F081B6F5C06F06D12DB9C8
:10497000137BDBB28DF807309DF80730631CEBD05A
:104980002CB9384602B0BDE8F041FFF791BF01F005
:10499000A7FAA0EB0800A042DDD3F2E74368B3F525
:1049A000827FF7B504460E4617460BD18368B3F5F0
:1049B000004F02D0B3F5806F04D12268136823F052
:1049C0004003136000973346002280212046FFF702
:1049D00097FF054628B1236E43F020032366032585
:1049E00014E06368B3F5827F10D1A368B3F5004F7C
:1049F00002D0B3F5806F09D10097334600224FF4FF
:104A0000C0612046FFF79FFF0028E4D1284603B08D
:104A1000F0BD73B50B4600920D4616464FF4C051DB
:104A200000220446FFF78FFF024628B1236E43F0B1
:104A300020032366032011E000962B4680212046A8
:104A4000FFF75EFF02460028F0D100962B464FF498
:104A5000C0612046FFF777FF0028E7D102B070BDA4
:104A60007047F8B50446002853D090F85D3003F045
:104A7000FF021BB980F85C20FFF7F2FF02232268D7
:104A800084F85D301368E56823F04003B5F5E06F06
:104A900013604FF000033ED84FF4805000D0A36263
:104AA000236B2BB9B5F5E06F8CBF02230123236381
:104AB000D4E901373B432769A169A66A3B4367698B
:104AC0003B43E7693B43276A3B43334301F40077A9
:104AD0003B431360236B022B02BF136843F4006354
:104AE0001360636A1D43636B090C1D4301F00401ED
:104AF000B6F5005F45EA010540EA050008BFE36A34
:104B0000506008BF136100200123206684F85D30E7
:104B1000F8BD0120FCE71846B5F5706FBEE72DE93A
:104B2000F3411E4690F85C30012B04460D4690463A
:104B300000F0CC80012380F85C3001F0D1F9074609
:104B400094F85D00C0B2012840F0BE80002D6DD009
:104B5000B8F1000F6AD0032384F85D300023236688
:104B60002364A4F83E80A4F84430A4F84630C4E995
:104B70001333A3682068A563B3F5004F08BF03682B
:104B8000A4F83C8004BF43F480430360A36AB3F5F8
:104B9000005F07D1036823F400530360036843F404
:104BA000005303600368E2685B065EBF036843F07E
:104BB00040030360B2F5E06F636848D91BB1E38F2F
:104BC0009BB2012B06D135F8023BC360E38F013B5A
:104BD0009BB2E387E38F9BB2F3B9A36AB3F5005F9F
:104BE00004D12268136843F4805313603A46314677
:104BF0002046FFF70EFF08B120232366A368B3F514
:104C0000004F57D12268136823F040031360206ED1
:104C1000003018BF012009E023689A68900703D587
:104C200035F8022BDA60D1E74EB90320012384F86E
:104C30005D30002384F85C3002B0BDE8F081711C67
:104C4000C8D001F04DF9C01BB042C3D3EDE71BB192
:104C5000E38F9BB2012B09D1E38F012B15D935F8D6
:104C6000023BC360E38F023B9BB2E387E38F9BB2BF
:104C7000002BB2D023689A68920711D5E28F012ADF
:104C80000BD935F8022BDA60ECE72B780373E38F4E
:104C9000013B9BB2E3870135E8E72A781A73F6E710
:104CA000002EC2D0731CE1D001F01AF9C01BB04233
:104CB000DCD3BAE7002BAAD101932368DA6801920A
:104CC0009B680193019BA2E70220AFE70220B3E7B4
:104CD0002DE9F04385B098460023ADF80E3090F8EA
:104CE0005C300C9E012B04460D46914600F0A181DC
:104CF000012380F85C3001F0F3F894F85D306168CE
:104D0000DBB2012B07460AD0B1F5827F40F08F81DC
:104D1000A268002A40F08B81042B40F08881002D8E
:104D200000F06E81B9F1000F00F06A81B8F1000F58
:104D300000F0668194F85D30A26AC4F84090042BBC
:104D40001CBF052384F85D300023B2F5005F2366A5
:104D5000C4E91333A4F84680A4F84480A563A4F8FA
:104D60003E80A4F83C80236807D11A6822F40052E0
:104D70001A601A6842F400521A60E068B0F5E06FF9
:104D800003D8B4F84620012A36D95A6822F4805252
:104D90005A601A6852065EBF1A6842F040021A60F2
:104DA000B0F5E06F7DD919B1E28F92B2012A06D138
:104DB00035F8022BDA60E38F013B9BB2E3874FF0BB
:104DC0000108E38F9BB2DBB9B4F846309BB2BBB9A4
:104DD000A36AB3F5005F40F0FC80012200973346E0
:104DE00011462046FFF78CFD002800F0E780236E77
:104DF00043F00203236649E05A6842F48052C7E751
:104E0000B8F1000F28D0E38F9BB22BB323689A68C8
:104E1000900721D535F8022BDA60E28F013A92B281
:104E2000E287B4F83E801FFA88F8B8F1000F11D17C
:104E3000A16AB1F5005F0FD11A68510706D45A680C
:104E4000120742BF1A6842F400721A601A6842F4EC
:104E500080521A604FF00008B4F846309BB273B12C
:104E600023689A68D0070AD5DB6829F8023BB4F8B2
:104E70004630013B9BB2A4F846304FF00108711C4C
:104E80009FD001F02DF8C01BB0429AD30325012317
:104E900084F85D30002384F85C30284605B0BDE816
:104EA000F08319B1E28F92B2012A09D1E28F012A6F
:104EB00068D935F8022BDA60E38F023B9BB2E387B7
:104EC0004FF00108E38F9BB22BB9B4F846309BB288
:104ED000002B3FF47DAFB8F1000F2CD0E38F9BB2D5
:104EE0004BB323689A68920725D5E28F012A51D9DE
:104EF00035F8022BDA60E38F023B9BB2E387B4F80C
:104F00003E801FFA88F8B8F1000F12D1A26AB2F5FC
:104F1000005F10D123681A68500706D45A68110739
:104F200042BF1A6842F400721A601A6842F4805252
:104F30001A604FF00008B4F846309BB2D3B1236832
:104F40009A68D20716D5B4F84620012A2AD9DA6819
:104F500029F8022BB4F84620023A92B2A4F846206F
:104F6000B4F84620012A03D85A6842F480525A60A5
:104F70004FF00108731CA5D000F0B2FFC01BB04277
:104F8000A0D383E72A781A73E38F013B9BB2E387B0
:104F9000013595E72A781A73E38F013B9BB2E387CB
:104FA0000135ACE71B7B89F80030B4F84630013B93
:104FB0009BB2A4F8463009F10109D9E7E2682368F9
:104FC000B2F5706F1ED1DB689BB2ADF80E30BDF844
:104FD0000E302268956815F0100507D0236E43F057
:104FE000020323664FF6EF73936001253A4631467C
:104FF0002046FFF70EFD00283FF449AF202323662B
:10500000012544E71B7BADF80E30BDF80E30236B55
:10501000022BDED101220097334611462046FFF7CE
:105020006FFC00287FF4E3AE23681B7BCDE70225ED
:105030002DE7022531E72DE9FF411D460023ADF89C
:105040000E304368B3F5827F04460E4690460CD17D
:10505000836853B9042380F85D30134600950A46EF
:10506000FFF736FE04B0BDE8F08194F85C30012B08
:1050700000F0F680012384F85C3000F031FF074631
:1050800094F85D00C0B2012840F0E880002E00F0E6
:105090009280B8F1000F00F08E80A26A266404238B
:1050A00084F85D30B2F5005F4FF000032366A36320
:1050B000A4F84680A387E387C4E91333A4F84480A7
:1050C00023680DD11A6822F400521A601A6842F45B
:1050D00000521A60B4F84620013A92B2A4F8462071
:1050E000E1685A68B1F5E06F8CBF22F4805242F457
:1050F00080525A60A268B2F5004F02BF1A6822F4CB
:1051000080421A601A6850065EBF1A6842F0400278
:105110001A60B1F5E06F1ED9B4F846309BB2FBB10E
:1051200023689A68D10755D5DB6826F8023BB4F8A6
:105130004630013B9BB2A4F84630EDE723689A68FD
:10514000D20736D51B7B06F8013BB4F84630013B4D
:105150009BB2A4F84630B4F846309BB2002BEDD198
:10516000A36AB3F5005F4AD12268136843F4805301
:105170001360012200972B4611462046FFF7C0FB23
:10518000C0B9E2682368B2F5E06F8ABFDB681B7BB9
:1051900033804FF0010298BF337000972B461146C1
:1051A0002046FFF7ADFBF8B1236E43F00203236600
:1051B00000E03DB90320012384F85D30002384F82A
:1051C0005C304FE7681CC6D000F08AFEC01BA842C6
:1051D000C1D3EFE7002DEDD06A1C9DD000F080FE1A
:1051E000C01BA84298D3E5E7E2682368B2F5706F68
:1051F0001DD1DB689BB2ADF80E30BDF80E303A46DB
:1052000029462046FFF7CAFB08B1202323662268FF
:105210009368DB0606D5236E43F0020323664FF640
:10522000EF739360206E003018BF0120C3E71B7B33
:10523000ADF80E30B2F5E06FBDF80E30DFD1236B64
:10524000022BDCD1012200972B4611462046FFF7A6
:1052500057FB0028A8D123681B7BCCE70220AAE7D4
:105260000220FFE670470000304A0368904212D0E7
:10527000B0F1804F0FD0A2F5943290420BD002F5DE
:105280008062904207D002F58062904203D002F51E
:105290009432904219D14A6823F070031343234A91
:1052A00090421DD0B0F1804F1AD0A2F594329042B6
:1052B00016D002F58062904212D002F580629042D0
:1052C0000ED002F5943290420AD0194A904207D08B
:1052D00002F58062904203D002F58062904203D1D1
:1052E000CA6823F4407313434A6923F080031343CD
:1052F00003608B68C3620B6883620C4B98420FD0CB
:1053000003F5006398420BD003F54063984207D041
:1053100003F58063984203D003F58063984201D17E
:105320000B69036301234361704700BF002C0140F8
:105330000040014010B50446A0B190F83D3003F0A4
:10534000FF021BB980F83C20FFF78CFF022384F892
:105350003D302068211DFFF787FF012384F83D3091
:10536000002010BD0120FCE7036A10B501248C4029
:1053700023EA04030362036A8A401A43026210BDEF
:1053800010B5044601220068FFF7EEFF23680E4ABD
:1053900093420FD002F5006293420BD002F54062B7
:1053A000934207D002F58062934203D002F58062F7
:1053B000934203D15A6C42F400425A641A6842F094
:1053C00001021A60002010BD002C014010B50446F7
:1053D00000220068FFF7C8FF2368184A93420FD0E5
:1053E00002F5006293420BD002F54062934207D06F
:1053F00002F58062934203D002F5806293420DD1A0
:10540000196A41F21112114208D1196A40F244425C
:10541000114202BF5A6C22F400425A64196A41F2E6
:105420001112114208D1196A40F24442114202BFDE
:105430001A6822F001021A60002010BD002C014001
:10544000704700000268C169F8B5044683680069C6
:105450001568034360690343BA480B43284003437C
:1054600013605368E06823F4405303435360B64B22
:10547000A0699A421CBF236A1843936823F43063DF
:1054800003439360B14B9A4219D103F55843B04A94
:10549000D3F8883003F00303B1F5004FD35C40F03C
:1054A0003981082B00F2D580DFE813F01B01D00012
:1054B0000201D3001501D300D300D3003900A54B5E
:1054C0009A4207D103F5E633A34AD3F8883003F0B4
:1054D0000C03E1E7A14B9A4226D103F5E433D3F85C
:1054E000883003F03003102B00F0EB800BD8002B3A
:1054F00056D0954B9A4264D0B1F5004F00F0A98088
:1055000001220023B1E0202B00F0CC80302BF0D121
:105510008D4B9A425BD0B1F5004F40F0BE80606881
:10552000430803F58033C9E08D4B9A420ED103F551
:10553000E233D3F8883003F0C003402B00F0C18081
:10554000D5D9802B00F0AE80C02BE0E7854B9A4286
:1055500011D103F5E033D3F8883003F44073B3F589
:10556000807F00F0AE80C2D9B3F5007F00F09A8052
:10557000B3F5407FCBE7744B9A42BDD103F5C833F6
:10558000D3F8883003F44063B3F5806F00F099805E
:10559000ADD9B3F5006F00F08580B3F5406FB6E785
:1055A000694B9A4240F09A80FEF756FE002318B9E4
:1055B000024607E06C480223626802EB4201814226
:1055C00009D901220023C4E918331046F8BD082385
:1055D0004FF40040F0E7B0EB023FF2D8082B32D88E
:1055E000DFE803F005311231253131312800FEF7B3
:1055F00033FE62684FF4807156080027E1FB0067B4
:1056000000233046394607E0584E550800277019E8
:105610004FF0000347F1000102F0EAF90022544B79
:10562000A0F540719942CCD82368D860CAE7FEF74C
:105630009BFADEE75008002610F500004FF000034B
:1056400046F10001E8E701220020E8E7FEF714FE3A
:1056500049E0012200234EE0FEF7FEFD626800EB08
:105660005203B3FBF2F39BB20022A3F110004FF6FA
:10567000EF718842A5D82168CB60A3E7FEF7FCFD57
:10568000ECE76068430803F5740303F51053B3FBBC
:10569000F0F3E8E7FEF768FAE0E76068430803F52F
:1056A0000043F4E7284B9A4284D0B1F5004FE8D18B
:1056B0006068430803F1F47303F59043B3FBF0F320
:1056C00017E0214B9A4203D1FEF74EFA04236EE70E
:1056D000B1F5004FDED1FEF747FA04E0B1F5004F17
:1056E000BAD1FEF7B9FD61684A0802EB4003B3FB8B
:1056F000F1F39BB20022A3F110004FF6EF71884244
:105700003FF65FAF23F00F012068C3F342030B4362
:10571000C36057E7082B3FF654AF01A252F823F0BD
:10572000595600087D56000883560008C3550008E6
:1057300095560008C3550008C3550008C355000816
:105740009B560008F369FFEF0080004000380140DD
:10575000FC85000800440040008600080048004026
:10576000004C0040005000400024F400000024F4ED
:10577000FFFC0F00436ADA0710B506D50168846A9A
:105780004A6822F4003222434A609C0706D5016829
:10579000C46A4A6822F4803222434A60590706D517
:1057A0000168046B4A6822F4802222434A601A0787
:1057B00006D50168446B4A6822F4004222434A60DD
:1057C000DC0606D50168846B8A6822F48052224385
:1057D0008A60990606D50168C46B8A6822F4005273
:1057E00022438A605A060FD50168046C4A6822F485
:1057F00080122243B4F5801F4A6005D14A68446C88
:1058000022F4C00222434A601B0606D50268816C5E
:10581000536823F400230B43536010BD2DE9F0417E
:10582000069D04460F46164698462168CA6937EA1F
:1058300002030CBF01220022B24201D0002014E07A
:105840006B1CF3D09DB923681A6822F4D0721A60D9
:105850009A6822F001029A60202384F8713084F85B
:105860007230002384F870300320BDE8F08100F02E
:1058700037FBA0EB0800A842D7D9E4E773B504468C
:105880000026466700F02CFB23681B681A070546B4
:1058900017D423681B685B070AD56FF07E4300931B
:1058A00000222B464FF480012046FFF7B7FFA0B936
:1058B0002023002084F8713084F8700084F872305E
:1058C0000CE06FF07E430093324603464FF4001124
:1058D0002046FFF7A3FF0028DBD0032002B070BDF5
:1058E00010B5044660B390F8713003F0FF021BB9A5
:1058F00080F87020FFF7A4FD2268242384F871301B
:10590000136823F0010313602046FFF79BFD012875
:1059100016D0636A13B12046FFF72CFF23685A683C
:1059200022F490425A609A6822F02A029A601A6819
:1059300042F0010220461A60BDE81040FFF79EBF0A
:10594000012010BD90F87030012B0FD00268242385
:1059500080F87130136843F002031360202380F84D
:105960007130002380F8703018467047022070476D
:1059700090F87030012B0FD00268242380F871302A
:10598000136823F002031360202380F87130002392
:1059900080F87030184670470220704790F87030D9
:1059A000012B0FD00268242380F87130936823F410
:1059B00000039360202380F87130002380F870305A
:1059C0001846704702207047234A24491368244828
:1059D0001B0755BFD2F894301368C3F30323C3F3F6
:1059E000031310B551F82340916801F00C01082908
:1059F0000ED00C290ED004292CD11A4B03609368C9
:105A0000194AC3F30313D25C0368D340036010BD8B
:105A1000164BF3E7D168D36801F00301C3F3021317
:105A2000022903F1010304D0032911D0B4FBF3F3DD
:105A300002E00C49B1FBF3F3D468D168C1F34161D2
:105A4000C4F30624013163434900B3FBF1F3D5E706
:105A50000649EFE70460D2E70010024028860008FC
:105A6000480000200024F4000D86000800127A008F
:105A7000002070470020704730B52C4D87B00C4691
:105A80000023298801934FF6FF7399421DBF284BCD
:105A900003EA812303F100634FF00163A34204D8BA
:105AA0004FF0FF34204607B030BDB4F1006FF7D39C
:105AB000FDF77EFE0028F3D11E4B9A6942F00042AA
:105AC0009A614CF2FA321A612B884FF6FF729342B8
:105AD00018BF1949194A08BF194912681CBF01EAC1
