:020000040800F2
:10000000008000107D380008B1380008E9080008B9
:10001000F1080008F90800080109000800000000C4
:10002000000000000000000000000000B1380008DF
:10003000B138000800000000B1380008B1380008ED
:10004000B1380008B1380008B1380008B1380008EC
:10005000B1380008B1380008B1380008B1380008DC
:10006000B1380008B1380008B1380008B1380008CC
:10007000B1380008B1380008B1380008B1380008BC
:10008000B1380008B1380008B1380008B1380008AC
:10009000B1380008B1380008B1380008B13800089C
:1000A000B1380008B1380008B1380008B13800088C
:1000B000B1380008B1380008B1380008B13800087C
:1000C000B1380008B1380008B1380008B13800086C
:1000D000B1380008B1380008B1380008B13800085C
:1000E000B1380008B1380008B1380008B13800084C
:1000F000B1380008B1380008B1380008B13800083C
:10010000B1380008B1380008B1380008B13800082B
:10011000B1380008B1380008B1380008B13800081B
:10012000B1380008B1380008B1380008B13800080B
:10013000B1380008B1380008B1380008B1380008FB
:10014000B1380008B1380008B1380008B1380008EB
:10015000B1380008B1380008B1380008B1380008DB
:10016000B1380008B1380008B1380008B1380008CB
:10017000B1380008B1380008B1380008B1380008BB
:10018000B1380008B138000810B5054C237833B9F0
:10019000044B13B10448AFF300800123237010BD5A
:1001A000D801002000000000008B000808B5034BB8
:1001B0001BB103490348AFF3008008BD00000000F5
:1001C000DC010020008B0008154B002B08BF134BEF
:1001D0009D46A3F5803A00218B460F461348144AEA
:1001E000121A07F0ADFB0F4B002B00D098470E4BB7
:1001F000002B00D098470020002104000D000D487E
:10020000002802D00C4803F0D9F907F04BFB20007E
:10021000290003F081FA03F0CEF900BF00000800C6
:10022000008000100000000009370008D8010020FD
:10023000084A0020BD3500080000000073B50546DF
:1002400006200E46144601F0BDFC10B9094802B064
:1002500070BDA368019373680093D5E90121B36869
:1002600001F0A0FD10F0FF0FF0D1202363600248E1
:10027000EDE700BF010043550000435530B501686C
:100280001F2985B0044606D80F4D2268A0680021BA
:1002900007F056FB14E0806807F034F90028F3D12A
:1002A0000A4A07CA01AB83E80700102262601946B8
:1002B00022462046FFF7C2FF054B98420546E4D18F
:1002C000284605B030BD00BF01004355047E00083C
:1002D0000000435570B50C46054608B9022070BDB4
:1002E0000029FBD06C2100F0BDF8064605F16C003A
:1002F00000F0D0F88642F1D105F1080000F0D5F801
:10030000C4E9000105F1100000F0CFF82022C4E993
:10031000020105F1180104F1100007F006FB10229C
:1003200005F1580104F1300007F0FFFA0020D6E78C
:1003300038B50C46054600283AD0002938D00B685D
:100340006F2B35D970220021A06807F0F9FA1949FE
:10035000A06800F0DEF8A0680221043000F0D9F8AF
:10036000A068D5E90023083000F0DCF8A068D5E9E2
:100370000223103000F0D6F8A068202205F1100109
:10038000183007F0D2FAA068102205F13001583079
:1003900007F0CBFA6C21A06800F064F8A36801466E
:1003A00003F16C0000F0B5F870236360002038BDE5
:1003B0000220FCE7D4B3515AF0B50F469BB0064675
:1003C00018B311B30AAB202500212A46184607F0BE
:1003D000B7FA0022CDE9022001A80195FFF74EFFF0
:1003E00001B291B9E823CDE9043312AB2A4618468D
:1003F000069607F0A5FA07AA099004A901A8CDE975
:100400000755FFF71BFF00B208B1022027E006F1F5
:10041000E80307A904A8CDE90455069300F092F873
:1004200004460028F1D106F1080000F03EF8C7E9C3
:10043000000106F1100000F038F82A46C7E9020171
:1004400006F1180107F1100007F06FFA102206F10B
:10045000A00107F1300007F068FA3C6420461BB0A9
:10046000F0BD000030B50A4C01444FF0FF33884224
:1004700001D1D84330BD10F8012B5340082203F0BE
:1004800001055B0805B16340013AF8D1EFE700BF11
:100490002083B8ED40B103888278C0785BBA9BB204
:1004A00042EA032340EA032070472DE9F04868B38D
:1004B000036804791BBA1F0E00251E0245EA070CCB
:1004C00044EA060B4FEA0C23447943EA1B630025F8
:1004D00045EA03074FEA0B2244EA02063B0243EADD
:1004E00016638479C0790025320245EA030744EA9D
:1004F00002063B0243EA16633202002140EA02048C
:1005000041EA030520462946BDE8F088002400257D
:10051000F8E730B10B0AC17083700B0C090E437001
:100520000170704768B1110AC2718171110C120E0D
:1005300002711A0AC37082701A0C1B0E417142704C
:1005400003707047F0B54B6844689C421DD100238E
:10055000806889681A4624F00F06B34208D3C5188C
:100560000B44291A8C4209D850421043C00FF0BDE9
:10057000C558CF587D402A430433EEE715F8011BD8
:1005800013F8016B71400A43EBE70120EFE700002D
:10059000014B186000207047F401002008B5044B9F
:1005A0001B6813B11B68984708BD0220FCE700BF19
:1005B000F4010020044B1B6810B51BB112B19B69FC
:1005C000984710BD0220FCE7F401002008B5044B59
:1005D0001B681BB110B11B6A984708BD0220FCE7DD
:1005E000F401002008B5044B1B681BB111B15B6A14
:1005F000984708BD0220FCE7F401002038B5054605
:1006000078B100F0F9F8044624B2284600F02EF83C
:100610002CB900B2002814BF0420002038BD0420EB
:10062000FCE70220FAE70000024B1B6803B1184701
:10063000704700BFF801002010B598B90A4B1B683D
:100640006FF07C44B4FBF3F404FB03340C604FF014
:100650008461B1FBF3F15943091BB1FBF3F14B4347
:10066000136010BD0220FCE70402002070B50546AF
:1006700008B9022070BD00F08BF8044600F090F835
:100680000B4E306000F096F80A4B1860336840F269
:100690002712B2FBF3F202FB0333074A1360002C6C
:1006A000E7D1064B20461D60FFF7BEFF2046E1E77D
:1006B0000002002004020020FC010020F8010020BC
:1006C0007FB50E4614464AB393683BB304AA4FF075
:1006D000FF3342F8043D02A90293FFF7ADFF104B30
:1006E00062681B68013AB2FBF3F202FB0333226833
:1006F0009A4205460FD30B4A1168029A00930A44A6
:10070000A0683244002300F05FF8044618B90420C2
:10071000FFF78AFF2546284604B070BD0225FAE798
:1007200000020020FC0100202DE9F04184B00224E9
:1007300002AF0E4629B307F108024FF0FF3342F82B
:10074000043D39463B60FFF777FF104B3A68196864
:10075000CB1D23F00703E846ADEB030D02AD0446C5
:1007600000910023284600F02FF848B9314628466A
:10077000FFF722FE03B2044613B90720FFF754FF28
:10078000C54620460837BD46BDE8F081FC01002083
:10079000024B186803689B68184700BF5801002087
:1007A00008B5034B186803689B6A984708BD00BFEB
:1007B0005801002008B5034B18680368DB6A9847A6
:1007C00008BD00BF5801002037B50649069D0C68DA
:1007D00021680095002501954D6901462046A847EE
:1007E00003B030BD58010020024B1B6803B118470D
:1007F000704700BF0802002038B5054600F05AF8DF
:10080000044628B9034B1D60FFF7EEFF204638BDB4
:100810000224FBE708020020F0B505469FB018B996
:10082000022420461FB0F0BD002308221849684664
:10083000CDE9003300F048F804240646D0B96846F4
:10084000FFF728FE07460DEB0400FFF723FE022802
:1008500010D1104B70229F4208BF0024314602A8DD
:1008600007F06EF834B97022094902A800F02CF89C
:1008700038B1042423B2002BD3D10620FFF7B4FFF4
:10088000CFE7294602A8FFF725FD0446F2E700BF9F
:1008900000A00008D4B3515A38B50368044633B9F0
:1008A00010F1080502D0284600F021FF25602068DD
:1008B00038BD000008B50348FFF7EEFF00F022FF47
:1008C000002008BD1002002070B50D4616460446F3
:1008D0000448FFF7E1FF33462A462146BDE8704051
:1008E00000F052BF100200204FF0100300F00CB8CF
:1008F0004FF0200300F008B84FF0300300F004B8C8
:100900004FF0400300F000B8EFF308804FF004010F
:1009100072460A4201D0EFF309809C46244B1968C5
:1009200002680A60043142680A60043182680A6021
:100930000431C2680A600431F0C147460F600431D7
:100940004F460F60043157460F6004315F460F6019
:10095000043102690A60083142690A60043182691F
:100960000A600431C2690A600431034620334FF43F
:100970000076324200D0043375464FF010063542FF
:1009800000D148330C46103C2360EFF309820A6023
:100990000431EFF308820A60043172460A600431C0
:1009A000EFF314820A606046014900F079F8FEE72F
:1009B000347E0008F0B52C4C2C4F85B0002526461F
:1009C00054F8252029463846013502F07FFC0D2DCC
:1009D000F6D1A36C0293636C0193236C0093D4E96A
:1009E0000E23616B224C234802F070FC21682248E0
:1009F00002F06CFCE16AA26AA36AA06A256BE76B4D
:100A0000000CCDE901570090C3F30723D2B21B4875
:100A100002F05CFCA36A1D0603D5616B184802F066
:100A200055FCA36A180403D5A16B164802F04EFCCE
:100A3000F36C190712D5144802F048FC336DDA073D
:100A40000FD5124802F042FCF36C5B074CBF104814
:100A5000104805B0BDE8F04002F038BC0E4802F086
:100A600035FC0E48EEE700BF28060020C87E0008CF
:100A700000ED00E0D67E0008257F0008337F0008E7
:100A8000827F0008907F00089E7F0008AD7F0008ED
:100A9000DD7F0008E97F0008CD7F0008BA7F0008ED
:100AA00013B50446154802F011FC302C17D0402C29
:100AB0001AD0202C1DD11248124C02F007FC12480B
:100AC00002F004FCFFF776FF104802F0FFFB002362
:100AD0000F4A0093D26B0F49204602F0A3FC0E4848
:100AE0000E4C02F0F3FBEAE70D480E4C02F0EEFB71
:100AF000E5E70D480D4C02F0E9FBE0E7387E000821
:100B0000617E00083E01FF808E7E0008997E00080D
:100B100028060020B87E0008707E00083F01FF8094
:100B2000797E00084001FF80847E00083D01FF803F
:100B300000207047002070470368DB6A18470120D7
:100B400000217047D0F8B4010021704790F8DC31E3
:100B500023B100F5E070D0E90001704700200021CA
:100B60007047FF207047000037B5054604461E4811
:100B700045F8040B4FF0FF300090284600F000FFCE
:100B800004F1DC031C221846002106F0D9FE9DF971
:100B9000181002F045F804F5E0730020002103224C
:100BA000C3E90001C4F8C82108220023C4F8CC21FD
:100BB000C4F8D4210122C4F8D83184F8DC31C4F857
:100BC000D031C4F8B431C4F8282184F8A8312846BB
:100BD000079900F02DFFD4F8E430D4F8DC201A6037
:100BE000204603B030BD00BF048000082DE9F0416D
:100BF000FF271F604C78069E1C601C2A36DD079A72
:100C0000341F043A06F10C080125BC4644F804CF11
:100C100091F81CE00127BEF1000F03D07F000EF118
:100C2000FF3EF8E7012F42F8047F19D04F7F27607D
:100C30001768D0F8B4E1774502D3BEF1000F01D1B7
:100C4000C0F8B4711768B7F5805F04D127681E68D3
:100C5000BE4218BF1F6090F8A8712F4380F8A8719A
:100C60006D004445EDB201F10201CFD10020BDE895
:100C7000F081F0B51D4600F5E0731446D3E900237A
:100C8000AB4208BFA24217D3D0F82811A1B1012965
:100C900010D000EBC1008B1E00F5A870002B0BDB01
:100CA00070E90267AF4208BFA64201D2581CF0BDEE
:100CB000013BF3E70020FAE74FF0FF30F7E710B50C
:100CC0000446FFF7D6FF03465A1CD4F8B40109D0F6
:100CD0002344012293F8A8110023114204D0463383
:100CE00054F82300002110BD01335200042B52B2EE
:100CF000F3D1F7E7F0B5059D074600260320082449
:100D0000EB1A0D7825420BD007EB8006D6F8186158
:100D1000964201DA9E4209DB25EA04050D7006467B
:100D200010F1FF304FEA5404EBD23046F0BD0368B7
:100D300013B900F108030360006870472DE9F04B18
:100D40001546D0F8D42106464FEAD209D0F8E8205B
:100D5000D0F8DC00106006F104084046DDE908B771
:100D600000F082FED6F8C84104F10054013CE400D2
:100D7000002C11DBC4F12000A4F120022BFA04F1B5
:100D800007FA00F0014327FA02F21143C9B24046C4
:100D900000F06AFE083CEBE700244C4513D105F156
:100DA000FF3900240025DDE90A239D4208BF944253
:100DB0000FD00021404600F057FE013409F8010F22
:100DC00045F10005EFE70021404600F04DFE0134FB
:100DD000E3E7D6F8E420D6F8DC3013600020BDE865
:100DE000F08B0000F0B51F4690F8DC3185B004466A
:100DF0000D461646EBB11048FFF799FFD4F8CC31F9
:100E0000C4F8D431DDE90A23CDE90067CDE9022336
:100E1000D4F8F8102A462046FFF790FFD4F8D031D6
:100E2000C4F8D43105460448FFF781FF284605B0D1
:100E3000F0BD6FF47A65F9E7200200202DE9F04358
:100E400095B0002304ADCDE90223CDE900132A4675
:100E50005A210446FFF772FF00284DD19DF810304B
:100E600003F00303032B03D09DF81130002B43D074
:100E70009DF8120001300A28C4F828013CDC002348
:100E800004F5967904F5D47804F5AC7E4FF00F0C98
:100E900019460131884255F8212015F8216022F0C9
:100EA000FF0202F5807249F8042B02F1FF3206F0CE
:100EB0000F06134408F8016B4FEAE3770CEA060CBF
:100EC0001E46EEE8026703F10103E2DC0122002383
:100ED00012EA0C0008D04633002054F82330C4F83E
:100EE000B43115B0BDE8F08301335200042BD2B207
:100EF000EED1C4F8B401F4E74FF0FF30F1E730B5BC
:100F0000002395B01546CDE90223CDE9001304AACC
:100F10005A210446FFF712FF00283BD19DF81230FA
:100F200013F0040236D19DF91730002B32DB059BFC
:100F3000C4F8C4210133DB08C4F8C0310322022302
:100F4000C4E93E23282D4FF02003C4F8003107DD0B
:100F50009DF838200123121122B15B00013AFBE712
:100F60004FF48073C4F8B83104F58C73019304F521
:100F7000847300932A4604F5827304A92046FFF780
:100F800035FED4F80431C4F800310020C4F8CC0197
:100F900015B030BD4FF0FF30FAE700002DE9F04FFB
:100FA0008FB04FF0000907930823C0F8CC31C0F888
:100FB000D43106919346CDE90239CDE900990AAAC8
:100FC0005A2180469A464D46FFF7B8FE002863D165
:100FD000042233490AA806F099FC059000285BD149
:100FE0009DF82D30012B57D19DF82E200023901C09
:100FF00043F10001CF0047EA5077C6005446CDE9DF
:1010000002A9CDE9004508AA5A214046FFF796FEFD
:10101000002841D19DF82230012B3DD19DF8203090
:1010200013BB9DF82730FF2B13D19DF825309DF879
:1010300026201B0243EA02439DF824201343069A0C
:1010400013609DF823309B00402BA8BF4023CBF8B2
:101050000030083445F10005BD4208BFB442CED18E
:1010600005980FB0BDE8F08F512BF2D19DF82730D5
:10107000FF2BEED19DF825309DF826201B0243EA78
:1010800002439DF824201343079A13609DF82330F0
:10109000189A9B001360DCE74FF0FF330593DFE7FE
:1010A000F57F00082DE9F84F9046D0F8D421064688
:1010B0004FEAD209D0F8E820D0F8DC001060351DE6
:1010C0002846DDE90AB700F0CFFCD6F8C84104F1A4
:1010D0000054013CE400002C11DBC4F12000A4F119
:1010E00020022BFA04F107FA00F0014327FA02F27A
:1010F0001143C9B2284600F0B7FC083CEBE70024D6
:101100004C4515D108F1FF384FF0000A4FF0000BA5
:10111000DDE90C34A34508BF9A450FD018F8011F2C
:10112000284600F0A1FC1AF1010A4BF1000BEFE791
:101130000021284600F098FC0134E1E7D6F8E420CD
:10114000D6F8DC3013600020BDE8F88F2DE9F743B6
:101150001F46D0F8E830D0F8D491164600F10408C4
:10116000D0F8DC201A600546404600F07DFC7B1C70
:1011700008BFB6F1FF3F24D0D5F8C84104F10054B0
:10118000013CE400002C0ADA4FEAD90900244C455E
:1011900017D20021404600F067FC0134F7E7C4F1A4
:1011A0002002A4F1200326FA04F107FA02F2114307
:1011B00027FA03F31943C9B2404600F055FC083C36
:1011C000E0E70D9B00930A99DDE90B23404600F010
:1011D0005FFCD5F8E430D5F8DC201A60002003B0BD
:1011E000BDE8F0837FB506461248FFF7A0FD96F8EC
:1011F000DC513DB9C6F8D8510E48FFF798FD284696
:1012000004B070BDD6F8D841013CC6F8D8417CB9CD
:10121000CDE90244CDE900444FF0FF324FF0FF33F7
:1012200004213046FFF792FF86F8DC410546E3E7EC
:101230000025E1E7200200201FB5074B00241340E2
:101240001A46CDE90244CDE90044DB17FFF77EFFE3
:10125000204604B010BD00BF00F0FF002DE9F041B2
:1012600086B0064642F210744FF0010805AF002523
:10127000012002F067FA4FF0FF33CDE90278CDE9A3
:1012800000554FF0FF3205213046FFF75FFF9DF814
:101290001430DB0705D5013CEAD1204606B0BDE895
:1012A000F0810120FAE730B587B006AA002322F8C2
:1012B000043D0121CDE90221CDE900334FF0FF3299
:1012C0004FF0FF3305210546FFF740FF20B14FF0F7
:1012D000FF34204607B030BDCDE90200CDE9000063
:1012E0004FF0FF324FF0FF3366212846FFF72EFF05
:1012F0000028ECD1CDE90200CDE900004FF0FF322B
:101300004FF0FF3399212846FFF720FF003018BF28
:10131000012044422846FFF7A1FFDAE770B5002319
:1013200086B0CDE90233CDE900334FF0FF324FF004
:10133000FF3306210546FFF709FF044618B14FF0B9
:10134000FF3006B070BD2846FFF788FF0028F6D0B2
:1013500005AE02222146304606F0F2FA0123CDE91D
:101360000263CDE900444FF0FF324FF0FF33052117
:101370002846FFF7EBFE0028E1D19DF8140080F02D
:10138000020040F34000DCE72DE9F04F9B4690F867
:10139000DC3185B004460D469246002B42D0DFF882
:1013A000A480DDE90E23134342D0D4F8B89100277E
:1013B0004A463B465046594606F098FBDDE90E0189
:1013C00080185941B94208BF48451E4834BFDDF86E
:1013D0003890A9EB0209FFF7AAFC2046FFF79EFF11
:1013E00040BB00274E46CDE900ABCDE902672A4657
:1013F000D4F8FC102046FFF755FEDDE90E231AEB6A
:10140000090A4BEB070BB2EB090263EB070320461B
:101410004D44CDE90E23FFF721FF80B14046FFF791
:1014200086FCBEE76FF47A64204605B0BDE8F08F15
:101430000024F9E7044C0348FFF779FCF4E7034C78
:10144000F9E700BF200200205CF0FFFF5DF0FFFF26
:101450002DE9F04F90F8DC1187B0044616461F4680
:10146000DDE91089002900F08D80FFF702FC2318C8
:1014700018EB060293F8A8318DF8173049EB0703F3
:10148000994604F5E07345469046D3E900234B4561
:1014900008BF4245824603D23F4807B0BDE8F08FFF
:1014A00023683246D96B20463B46884702460B46A6
:1014B0003046394606F01AFB1343EDD1236818F184
:1014C000FF32D96B204649F1FF33884702460B466D
:1014D0004046494606F00AFB1343DDD1DFF8BC90D5
:1014E000002D52DD04EBCA0303F5AC7BD3F8583171
:1014F00000932A4633460DF117012046FFF7FAFB09
:1015000004EB80003946D0F81881D0F808310393F5
:1015100042460023304606F0E9FAAB1898454846A3
:1015200094BFA8EB0208A846FFF701FC2046FFF78E
:10153000F5FE60BB2A46EB17CDE90023039932463E
:101540003B462046FFF778FEA5EB080516EB08069C
:1015500047F10007002D0DDDDBE90023BB4208BF8A
:10156000B2423FBF0AF1010A04EB0A0393F8A83123
:101570008DF817302046FFF771FE40B14846FFF75F
:10158000D6FBADE76FF47A6087E7002085E7034874
:10159000FFF7CDFB024880E75BF0FFFF2002002051
:1015A0005DF0FFFFF0B5044600238BB04048CDE965
:1015B0000633CDE90833FFF7BAFB94F8DC310BB9F9
:1015C000C4F8D831D4F8D8310133012BC4F8D8315C
:1015D0006AD12046FFF767FE013007D16FF47A65C4
:1015E0003348FFF7A4FB28460BB0F0BD0323039359
:1015F00005AB02930023CDE900334FF0FF324FF0EB
:10160000FF339F212046FFF7A1FD05460028E5D1C5
:101610009DF81430BF2B0ED12046FFF77FFECDE999
:101620000255CDE900554FF0FF324FF0FF33042152
:101630002046FFF78BFD2046FFF710FE002835D02F
:1016400009AB009307AA08AB06A92046FFF7A6FC42
:1016500008B1184DC4E7DDE906122046FFF74FFC3C
:1016600005460028F5D104F5E073D3E9006716F1CB
:10167000FF3204F5AC7147F1FF33C4F82C61C1E9C6
:101680000023089939B9D4F8D031C4F8D4310123F2
:1016900084F8DC31A4E7099A002AF4D02046FFF749
:1016A000CDFB0028EFD0D4E7002599E7024D97E75E
:1016B000200200205EF0FFFF5DF0FFFF38B504461A
:1016C000054B44F8043B0546FFF78CFD204600F02F
:1016D000FDF9284638BD00BF0480000810B5044657
:1016E000FFF7ECFF204601F0F3FF204610BD7047E6
:1016F000704704F0C3BB04F0A3BB04F0C1BB04F00B
:10170000C3BB000070B50F4E05463046FFF70FFB18
:1017100001F09AFE01F0BCFE284604F0C5FA04462A
:1017200001F0C8FE01F0A2FE284604F0A7FB01F07C
:10173000CDFF68603046FFF7FAFA201C18BF012081
:10174000404270BD3002002038B505460D48FFF715
:10175000EEFA01F079FE01F09BFE284604F0A6FAAD
:10176000003018BF0120444201F0A4FE01F07EFECB
:10177000686808B101F0AEFF0248FFF7D8FA2046CA
:1017800038BD00BF300200202DE9F0410E4C0F465D
:101790001646984605462046FFF7C9FA01F054FE62
:1017A00001F076FE43463A463146284601F00EFAED
:1017B000054601F07FFE01F059FE2046FFF7B7FA1B
:1017C0002846BDE8F08100BF300200202DE9F84F27
:1017D00016461D468046894604F050FB07464046A3
:1017E00004F052FB0446404604F04AFBB6FBF7F314
:1017F00007FB1363002B57D1B9F1000F54D07319B5
:101800000444A34250D82A48FFF791FABDB33146A9
:10181000404604F015FBB6FBF0F400FB1464041B17
:10182000AC4228BF2C4619F0030F01D1A7422CD996
:10183000BC4228BF3C4622464946D8F8040006F080
:1018400074F8A742A24606D9D8F804003A1BFF2133
:10185000204406F075F8D8F804B03C4601F0F4FDD9
:1018600001F016FE23465A463146404604F086FAF9
:1018700088B101F01FFE01F0F9FD4FF0FF350C4873
:10188000FFF755FA2846BDE8F88FB4FBF7F47C4320
:10189000A246CB46E2E701F00DFEA5EB0A0501F0FA
:1018A000E5FD5644D144B1E74FF0FF35EAE700BF0C
:1018B00030020020F8B50D461446064604F0E4FA5E
:1018C0000746304604F0DCFA38442F19B84203D2F8
:1018D0004FF0FF342046F8BD18D81548FFF727FA17
:1018E0000CB301F0B1FD01F0D3FD2946304604F000
:1018F000DFF9074601F0DEFD01F0B8FD8FB929469A
:10190000304604F09DFA241A0544E9E7394630468A
:1019100004F096FAB7FBF0F303FB10700028DCD05C
:10192000D6E74FF0FF340248FFF701FAD2E700BFD5
:1019300030020020C36810B504460BB19B6898477D
:10194000204610BD034B1A6812B903F108021A6051
:10195000704700BFA802002030B4446801466CB153
:10196000D0E9032303F0010502B93DB15B10E01893
:101970000DB1E3589A58896830BC104730BC7047A5
:101980002DE9F743064699461B4B46F8043B0446AF
:101990000F46904600219822304605F0D1FF0025E1
:1019A000164BC4F89C302946C4F8A040C4E9295518
:1019B000C4F8AC50C4F8B050102204F1B40005F0E3
:1019C000BFFF0823C4E932350D4BC4F8D030FF23E4
:1019D00084F8D4309DF928300093304684F8C45000
:1019E00084F8C5504B464246394604F059FE20461D
:1019F00003B0BDE8F08300BF4C800008591900080F
:101A000040420F0070B5094D2B68834204460CD04C
:101A1000061DD0E932120023304604F0EFFED4F860
:101A2000D010304604F01CFF2C6070BDB8020020BE
:101A3000036870B51B6904460D469847094BC4F806
:101A4000D0501B68A34209D12946201D04F008FF8D
:101A5000236820465B69BDE8704018472046FFF7C1
:101A6000D1FFF5E7B802002038B5036804461B69CA
:101A70000D4698472046FFF7C5FF2946201D04F074
:101A80000DFF236805465B6920469847284638BD08
:101A9000F7B51F46036804461B690D46164698476E
:101AA0002046FFF7AFFF94F8D4300193089B0093D2
:101AB00029463B463246201D04F020FF2368054698
:101AC0005B6920469847284603B0F0BD0A4B10B525
:101AD00003600A4B1A680446824208BF002200F1E4
:101AE000B40008BF1A60FFF725FFD4F8B00001F07A
:101AF00033FB204610BD00BF4C800008B802002018
:101B000010B50446FFF7E2FF204601F0E1FD204654
:101B100010BD38B5044648B100F15805AC4205D0B7
:101B20002C3D05F11800FFF705FFF7E7204638BD0B
:101B300038B500250446294640F8045B282205F004
:101B4000FFFE1022294604F1180005F0F9FE204698
:101B500038BD000010B50A4C2046FFF7E9FF04F13C
:101B60002C00FFF7E5FF0023C4E9163384F860304A
:101B70002046044A0449BDE8104001F01ABD00BFE8
:101B80004002002000000020131B000803681B69AE
:101B9000184703689B69184703689B6A1847002920
:101BA0000CBF6FF01800002070470120704770478D
:101BB000036801221B6900211847036800221B6982
:101BC00011461847052804D00628034818BF0020EE
:101BD00070470248704700BF948000086480000886
:101BE0000C22002105F0ACBE10B50446A8B1036874
:101BF0009BB1406808B15B6A9847A06838B1236818
:101C0000D968490000F024F9A06805F077FE204665
:101C10000C21BDE8104000F01BB910BD70B50446A2
:101C200016460D4699B190B10B6A9847606048B16D
:101C300056B1E968022005F027FEA06020B96B6A62
:101C400060689847034801E02560002070BD0248A5
:101C5000FCE700BF80AEFFFF00AFFFFF2DE9F041C2
:101C60000E4688B017460446002857D00368002B5C
:101C700054D08268002A51D0DA68BA4217D21B6960
:101C8000406898470546002834D1236860685B693E
:101C90003A4631469847054660BB236860689B69B1
:101CA00069469847054628BB23689F686E462368A7
:101CB000D4F80880DA683621404608EB020505F0C2
:101CC0003FFE23685C21DA68284605F039FE013EB4
:101CD0004346681E47449F4214D1236860681B69CD
:101CE0009847054630B9236860685D69DA684146FF
:101CF000A84705462021684600F0AAF8284608B003
:101D0000BDE8F08116F8011F1A784A4003F8012B4C
:101D100010F8012F31784A400270DCE7004DEDE702
:101D200000AFFFFF10B440B1036833B1846824B141
:101D30005B6940685DF8044B184702485DF8044B46
:101D4000704700BF00AFFFFFF0B50E4689B00446F4
:101D500020B3036813B3826802B3DD6840689B69EF
:101D6000694615449847B8B9236860681B69984765
:101D700090B9236860685F69DA682946B84758B93E
:101D8000236860685D699A686946A84720B9236836
:101D900060689B693146984709B0F0BD0048FBE791
:101DA00000AFFFFFF0B50E4685B017461D4604464E
:101DB00010B301A8FFF714FF2146012201A8FFF785
:101DC0002DFF044690B93A46314601A8FFF746FF79
:101DD000044658B90A9A294601A8FFF7A3FF04460A
:101DE00020B90B9901A8FFF7AFFF044601A8FFF740
:101DF000FBFE204605B0F0BD004CFAE700AFFFFF48
:101E000000F090B800F035B810B5044600F02CF89A
:101E10002046BDE8104005F071BD10B56C210120D1
:101E200005F032FD044608B100F01AF8204610BD56
:101E3000012300F0E5B9002300F0E2B900F049B950
:101E400000F008B9012100F019B8002100F016B81F
:101E5000024B0A461B680021184700BF30000020D3
:101E60006C22002105F06CBD10B16C21FFF7F0BFB2
:101E7000704708B56C2205F058FD08BD0023C0E985
:101E80000033C1B9194A1A4BDFF88CC0C0E90223EC
:101E9000184B194AC0E904C3184BC0E90623184B74
:101EA000036203F17453A3F52303A3F69243436241
:101EB000816600207047134B134ADFF860C0C0E909
:101EC000022303F1794303F5740303F5016303610E
:101ED0000E4BC0E905C303F1D14303F5C01303F56D
:101EE0001E63C3610A4B03620A4BE0E767E6096AB7
:101EF00085AE67BB3AF54FA57F520E518C68059BA6
:101F0000ABD9831F07D57C36D89E05C1310BC0FFE6
:101F1000A78FF964A44FFABE72F36E3C39590EF7DD
:101F2000FFF7ACBF2DE9F04FCBB000F108030093F1
:101F30001A460191002302A852F8041B40F823100E
:101F40000133082BF7D1DDE90787DDE90236DDE94A
:101F500004EBDDF82490069909AA00240F2C5ED822
:101F6000019D05EB840C15F824A09CF8035045EA6C
:101F70000A659CF801A045EA0A459CF802A045EADA
:101F80000A2555604FEAF12C88EA07058CEAB11C56
:101F90000D408CEA716A7D400AEB050C2C4D55F81A
:101FA0002450654452F804CF6544A94446EA030A24
:101FB0004FEA733509EB0B0C85EAB30506EA030B10
:101FC0000AEA0E0A4AEA0B0A85EAB3550134554477
:101FD000402C4D44F346B9461AD1CDE90718CDE956
:101FE000046ECDE902530997CDF818C00023009A7A
:101FF000116802AA52F823200A440099013341F8DB
:10200000042B082B0091F2D100204BB0BDE8F08FDB
:10201000B64647461E4688462B4661469EE752F81E
:10202000045C52F838AC52F8180C4FEAF54C8CEAC4
:10203000754C8CEA952C52F83C5C28444FEABA4522
:1020400085EAFA15844485EADA0A0CEB0A0598E772
:10205000D48000082DE9F84305460E46144612B90F
:102060000020BDE8F883036803F03F07D31803603E
:1020700022BF436801334360A7B1C7F1400842451E
:1020800010D300F12809424609EB070005F04DFC8A
:1020900049462846FFF746FF0028E2D14644A4EB14
:1020A00008040746264405E02846FFF73BFF0028C2
:1020B000D7D1403C3F2CA6EB0401F5D8002CCFD063
:1020C00005F128002246384405F02FFCC8E7FFF749
:1020D000C1BF036803F03F035A1C034470B5382A9C
:1020E0000D4600F128064FF08001044683F82810C1
:1020F00006EB020073D8C2F13802002105F020FC83
:10210000D4E900315A0F42EAC102110EDB0084F813
:102110006010110C84F8611084F86320110A1A0E03
:1021200084F864201A0C84F865201A0A84F8621076
:1021300084F8662084F8673031462046FFF7F2FEC7
:1021400000284BD1E37A2B7063896B70A3681B0A5C
:10215000AB70A368EB70E37B2B71E3896B71E36871
:102160001B0AAB71E368EB71E37C2B72638A6B72C1
:1021700023691B0AAB722369EB72E37D2B73E38A3D
:102180006B7363691B0AAB736369EB73E37E2B7438
:10219000638B6B74A3691B0AAB74A369EB74E37F55
:1021A0002B75E38B6B75E3691B0AAB75E369EB7504
:1021B00094F823302B76638C6B76236A1B0AAB76FC
:1021C000236AEB76A36E4BB994F827302B77E38C18
:1021D0006B77636A1B0AAB77636AEB7770BD00218C
:1021E000C2F1400205F0ACFB31462046FFF79AFEF3
:1021F0000028F3D10146382230467FE7FFF769BF58
:10220000F0B59DB01C46064601A80F461546FFF7DF
:1022100027FE214601A8FFF731FE044658B93A4689
:10222000314601A8FFF716FF044620B9294601A848
:10223000FFF74FFF044601A8FFF716FE20461DB02A
:10224000F0BD000030B5084D11448A420BD012F8A1
:10225000013B5840082340F300042C40013B84EA32
:102260005000F8D1F1E730BD2083B8ED084A026094
:1022700010210022C0E901220273C1810282C0E95B
:102280000522C0E90722C0E90D22C263704700BFE2
:10229000DC81000800EBC101406B496A0A440099E7
:1022A000FFF772BA04312DE9F84307469046994684
:1022B000102400EBC1056A680899786B4B464244CC
:1022C000FFF784FA064620B1012001F03BFA013CF9
:1022D000F1D13046BDE8F883F8B50746102400EB8D
:1022E000C106D6E90912786BFFF7E4FA054620B17A
:1022F000012001F027FA013CF3D12846F8BD000087
:102300002DE9F74F0446406BFFF7F7F90646606B7F
:10231000FFF7F5F931468046606BFFF7ECF9384B73
:10232000B8FBF0F00130984294BF80004FF0FF30CE
:1023300001F0CCF910228246324904F1240005F064
:10234000F4FA0027D4F82890AAF104023B46BB46D1
:102350003D46CDE90032B8F1000F24D03146606B24
:10236000FFF7C9F9019A009B42F8046F0135B9F1F2
:10237000000F12D004EBCB0CDCF82410B14200D0DB
:102380005BB1DCF828300744BB420AD1BBF1000F37
:1023900009D15B4600274FF0010B0644A8EB00086B
:1023A000D7E70123F9E70AEB85014AF82560B9F17F
:1023B000000F19D1C4F83090013D0120CC466B1CB0
:1023C00012D004EBC0070A68BB6A51F8046D1A44C6
:1023D000921BB2F5805FBA6204D37E6220B1C4F86A
:1023E00028C00020013DEAE7BAF1000F05D05046B1
:1023F00003B0BDE8F04F01F06DB903B0BDE8F08F58
:10240000FEFFFF1F340000202DE9F04183691360B7
:10241000A2B0064688461446002502AFB369B5EB64
:10242000D31F19D222680097803A22608023414648
:102430003046FFF72FFF38B980235A1EB95CFF29B9
:1024400005D022681344236022B0BDE8F081134612
:10245000002AF2D10135E1E70020F5E72DE9F04F40
:10246000A5B09A46319CDDF8C8800123236002ACF8
:102470000094082307468B461546FFF70BFF0646D8
:1024800028B14FF0FF36304625B0BDE8F08F224628
:1024900004214FF0FF30FFF7D5FE2F9BBDF80A4017
:1024A0001E80BDF80830C3F30B02A8F80020339A51
:1024B00003F470431380349B220B1A70B8F8003079
:1024C000FA899A42814607D840F6FE72934203D0B9
:1024D000319A00231360D6E7309BC4F30B04083510
:1024E0007BB9544511D92F9B359A1C80BB6B013C9D
:1024F0002544B5FBF3F505FB033313606FF00506C8
:10250000C1E704AB4FF0800A2E93C4B15445A046F6
:102510002E9B009328BFD04643462A46594638464C
:10252000FFF7B8FE0028ACD148462E9A4146FFF787
:1025300089FEA4EB08048146A4B24544E5E7039B69
:102540004B45C5D1BDF80A302F9AC3F30B03138056
:10255000BB6B359A013DB5FBF3F505FB0333B9E7DA
:102560002DE9F04F85B09346BDF83820DDE91059CC
:102570001343ADF808309DF83C3045EA0333ADF81D
:102580000A30074600238A4602AA04214FF0FF3092
:102590000393FFF757FE034625B14A462946FFF746
:1025A00051FE03460393BB6B082B2CD9D7F83C8014
:1025B00008220DEB0201404605F0B7F945B30822A9
:1025C0000DEB0201404605F0B0F9BE6B083EAE428D
:1025D00028BF2E463246494608F1080005F0A5F905
:1025E000AD1B06F10804CDF8008023465A4651463B
:1025F0003846FFF757FE804668B16FF00108404645
:1026000005B0BDE8F08F082400260DEB0408EAE7CA
:102610002E460824E7E75C4455B14E4400962B460D
:10262000224651463846FFF73DFE0028E5D12C44AE
:10263000BB6B129A013CB4FBF3F404FB033313604D
:10264000DDE700B589B0049306ABADF8182003931D
:1026500000220823CDE90123009240F6FE73ADF875
:102660001A200792FFF77CFF09B05DF804FB2DE903
:10267000F04F1C46836BA5B0082B8ABF9BB280230A
:10268000D0F83C80029398BF0DF11008CDF800807F
:10269000082307468B469246FFF7FCFD20B14FF01A
:1026A000FF3025B0BDE8F08FB8F90030002B08DA14
:1026B000BB6B2E9A013CB4FBF3F404FB03331360B1
:1026C000EFE7B8F80250BA69C5F30B0505F1080346
:1026D0002344934231D2CBF10102D2B20AF1080A6B
:1026E00008F108034FF008090392029AA2EB0906C9
:1026F000B6B2AE4228BF2E4666B9B144CDF80080CE
:102700004B46224603993846FFF7CCFD60B16FF087
:102710000100C6E700935246334659463846FFF754
:10272000B9FD0028E9D0BAE7AD1BADB24C44B244C4
:1027300043468146002DD8D1BAE76FF00600B0E7D6
:102740002DE9F04F1D46836B4FF00F08B8FBF3F8EF
:1027500008FB033840F6FF73994289B004460F46E0
:10276000164625D0130423D407AB017B0493139B97
:102770000393BDF84830C1F10101CDE901530023B5
:10278000009342463B46C9B2FFF7EAFE002857D104
:102790007313217B226A03F0020343EA057343EAC1
:1027A0000803C1F101010B4342F82730DDF81C801A
:1027B000DFF8949000270DF11C0BE289257BBBB25A
:1027C0009A4224D99A46236A53F82A6016EA0902E3
:1027D0001BD006F001039D4217D1CDF800B043464F
:1027E00029462046FFF743FF50BBC5F1010343EAEA
:1027F000080306F0704843EA0803226A06F006065A
:102800001E4342F82A60DDF81C800137D5E7228A92
:10281000013292B2C5F10101228207ABC9B2204652
:10282000FFF70FFF60B9217BC4F81480C1F10103E9
:1028300023732046FFF750FD002818BF6FF00100FA
:1028400009B0BDE8F08F00BFF8FFFF0F2DE9F0479A
:10285000456892B00446002D75D10121083000F082
:1028600073FD012806D06368002B6CD1012000F0B5
:1028700069FFF8E7E089800000F028FFE289206224
:10288000ADF826502B4629469EB2B24204D940F8F4
:10289000235001210133F7E709B1ADF826200120CB
:1028A00000F004FF4FF0FF33A361E061082000F067
:1028B000FDFE0546FEF71BFF65632846FEF722FF77
:1028C000606BFEF716FF0828034638BF0823082868
:1028D000A36303D9184600F0F9FEE0632046FFF732
:1028E0000FFD0DAE0025B2460DF124082F4604EB76
:1028F000C50346F8047FA2699B6A9A4294BFA2610D
:10290000A3615FFA85F905F808702AF81570324658
:1029100049462046FFF778FD3368D3B9012308F80C
:102920000530A5B19DF82430012B47D19DF8253005
:10293000012B60D10021217304F114032A462046A3
:10294000FFF77FFE6560002012B0BDE8F08701252B
:10295000CDE70BAB07930DF1230306930AAB059369
:102960000DF1260304930CABCDE902730DF12A039C
:10297000019310AB00930022082349462046FFF73D
:102980006DFD063008BF0C970C9B2BB1BDF82620BF
:1029900040F6FE739A4204D049462046FFF79CFC5D
:1029A000BCE70B9ABDF84030626102222AF815306C
:1029B00008F8052084F80C902382B2E7022B1AD184
:1029C0009DF82530022B16D1BDF83430BDF83620E5
:1029D0009A4201D3002B3DD100232373217B12ABFC
:1029E00003EB4103C1F1010133F8143C2382C9B266
:1029F0002046FFF771FC0BAD0DF123060AAF217BDA
:102A0000626912AB03EB810353F8103C9A421ED269
:102A10000DF1260304930CAB0393012302934FF0B3
:102A200000080DF12A030193CDE906654346059799
:102A3000CDF800802046FFF711FD0C9B63B9CDE96E
:102A400000331A4640F6FF712046FFF779FE012356
:102A5000636078E72573C1E7BDF82830BDF826101C
:102A6000226A180404D542F821800B9B6361C6E7F3
:102A70009DF823005B1303F0020343EA00736069CF
:102A80000343207B034342F82130EEE7F0B51D46B7
:102A900043688DB004460F4616462BB1E389BB420E
:102AA00008D86FF0040003E0FFF7D0FE0028F5D04F
:102AB0000DB0F0BD15B90DF126050026236A53F8B7
:102AC000272002F0010122F0704222F00702E2B159
:102AD0000BAB07930DF1230306930DF1260305932A
:102AE00009AB04930AAB0393139B0293129B2046FA
:102AF000CDE900533346FFF7B1FC0028D8D10A9B3B
:102B0000002B08BF6FF00300D2E76FF00200CFE7A1
:102B100013B500240194049C0094FFF7B7FF02B0A2
:102B200010BD38B543680446C3B1406BFEF70CFED8
:102B3000656B2DB12846FEF7DBFD284600F0C8FD89
:102B4000E06908B100F0C4FD206A08B100F0C2FDE0
:102B5000E06B18B100F0BEFD0023E3630020C4E980
:102B6000010038BD044B10B50360436804460BB147
:102B7000FFF7D7FF204610BDDC81000810B50446E2
:102B8000FFF7F0FF204600F0A3FD204610BD000037
:102B9000EFF31083DB4372B6044A117829B9044974
:102BA00003F001030B70012313707047BD02002076
:102BB000BC020020034B00221A70034B1B7803B1A8
:102BC00062B67047BD020020BC02002008B5104666
:102BD0001A4604F0AAFE002008BD38B504460D468A
:102BE00003685AB1826813602046012103F072FA2B
:102BF00029462046BDE8384003F068BAC268F2E7CB
:102C000070B50E460446154603F03EFA013606D06E
:102C10002A4620460021BDE87040FFF7DEBF70BDA8
:102C20000022FFF7EDBF000013B5044601300FD1BD
:102C300002B010BDA3420AD12046896803F0BEFA53
:102C40000021204602B0BDE8104003F041BB0C312A
:102C500091F900305A1CEDD1002300932246194609
:102C6000014800F0DFFB00BF30010180884207B55A
:102C700002460AD0431C08D0013105D0002300933E
:102C80001946044800F0CEFB0146084603B05DF843
:102C900004FB00BF3001018091F900305A1C01D1C2
:102CA00018467047834201D1486870470C31F3E7FA
:102CB000431C07B50AD0FFF7EFFF431C06D10023E2
:102CC000024600931946034800F0ACFB03B05DF8E0
:102CD00004FB00BF300101802DE9F34DD0F80480E2
:102CE00098F83A300446002B64D103685B68984733
:102CF00063681B6A83425DD0D8F82010D8F80C3086
:102D0000C8F82000411AD8F80860374819408642B0
:102D10000C464FF0000546D098F83B30A1FB00125E
:102D20000027D8E90AABCDE90012002B45D0009965
:102D300021FA03F40199C3F1200CA3F1200201FA56
:102D40000CFC21FA02F221FA03F5DDE9000144EA64
:102D50000C04144310EB0A00A3F1200C41EB0B010F
:102D6000C3F1200205FA03FB04FA0CFC24FA02F278
:102D700004FA03FA4BEA0C0B4BEA020BB0EB0A0223
:102D800061EB0B03BB4208BFB24202D2C8E90A237F
:102D900009E0013445F10005921B63EB070310467F
:102DA0001946C8E90A01D8E90C01021941EB0503EB
:102DB000C8E90C2302B0BDE8F08D32463B46DDE9A0
:102DC000000104F093FE044612EB0A000D4643EBAB
:102DD0000B01B94208BFB042E3D3013445F100050D
:102DE000821B61EB0703D1E740420F00824206D904
:102DF0008A420BD9884294BF002001207047884244
:102E000006D98A428CBF00200120704701207047FC
:102E1000002070472DE9F74F466896F83A3007468C
:102E2000002B40F0918096F83930002B40F08C80D8
:102E3000FFF752FF7D68D7F800A06968002978D0B5
:102E4000D5E90C23D1E900018B4208BF824205D3AA
:102E5000DAF8143003B0BDE8F04F1847801A61EB80
:102E60000301CDE90001DDE90023D5E9060199421E
:102E700008BF90422C6907D3A9683548814218D110
:102E8000009B9C4228BF1C462A6ADAF81030144482
:102E9000EA681440204698473B685B68984722469A
:102EA0000146306AFFF7A2FF00284DD03B685B69FE
:102EB000D0E795F83BC0BCF1000F28D0019B244A15
:102EC00003FA0CF31946009BACF1200803FA08F84A
:102ED00041EA08031946009BDFF87880CCF1200E08
:102EE00023FA0EFE41EA0E031946009B03FA0CF387
:102EF00018464FF0000910EB08004FF0000341EBBB
:102F0000090104F0F3FD844228BF0446BCE7009B9E
:102F1000DFF840B00E4AA1FB0389019B4FF0000C83
:102F200001FB03991BEB08004FF000034CEB090178
:102F3000E7E73369306AF2681844DAF81030104075
:102F400003B0BDE8F04F184703B0BDE8F08F00BFF5
:102F500040420F003F420F0043682DE9F74F93F8BE
:102F600038200546002A60D193F83A30002B5CD116
:102F700003681B6898472B68DB6998472C4BD0F88F
:102F800000800122B8F1000F08BF98461F2302FA03
:102F900003F141455FFA83FA02D0013BF7D19A462B
:102FA0004468234E231F1D2B28BF2024231F4FF0CE
:102FB000070918F1FF3009FA03F94FF0000343F154
:102FC000FF314246C6FB090104F090FD6B682A6898
:102FD00001934FF0000BC3E900BB52680F46064651
:102FE0009047019B0122186202FA04F46B680021E9
:102FF0000020013CC3E90A01C3E90C01C3F80880C1
:10300000284683F83BA0C3E90349C3E9066783F870
:1030100039B083F83AB083F83820FFF75DFE2846D0
:1030200003B0BDE8F04FFFF7F5BE03B0BDE8F08F89
:1030300040420F0070B5044600F062F92368DB6877
:103040009847636893F83A201AB1BDE8704000F0E1
:1030500061B9012283F8392063685B68A3B1204617
:10306000FFF73AFE65686E68D5E90C01D6E90023E2
:10307000994208BF904207D3F3686B602B68002B1E
:10308000EAD0B0689847E7E76368002283F8392000
:103090002046FFF7BFFED8E710B50446FFF75CFFF8
:1030A00000F02EF92046FFF717FE00F033F96368B1
:1030B000D3E90C0110BD08B5FFF7EEFF08BD000015
:1030C00000487047E4810008024B1B680BB10248BE
:1030D0001847704744000020E4810008BFF34F8F79
:1030E000034B00225A60BFF36F8FBFF34F8F7047BF
:1030F00090ED00E0BFF34F8F064A00239360136901
:1031000023F0010318431061BFF36F8FBFF34F8F9C
:10311000704700BF90ED00E0BFF34F8F0D4B0122D1
:103120009A601A6922F0010202431A6102229A602F
:103130001A6922F0010202431A6103229A601A6995
:1031400022F0010210431861BFF36F8FBFF34F8F5E
:10315000704700BF90ED00E0024B1B6803B11847B9
:10316000704700BF000300200020704704F04CBCF3
:1031700004F0FCBB04F0ECBBF8B5054672B6254A7A
:10318000DFF89CC0002313604FF0E0221C4651681A
:1031900001F00F0101314FF0FF371E46A20002F18E
:1031A000604202F56142C2F88070C2F8807100226C
:1031B000D01860440132082A80F80063F8D1013445
:1031C000A14203F10803E9DC134B4FF020625A607F
:1031D00040F2FA529D60DA6000221E611146981892
:1031E00001320C2A0176FAD14FF0FF3259629A620D
:1031F0000A4ADA621F221A63FFF770FFD5E900312D
:1032000040F2000282F314889D4682F3108808473A
:10321000F8BD00BF10E000E000ED00E0020000C0DB
:1032200000E100E000B589B000F06AF81F2101A8B4
:10323000FFF7F6FC0424039B019A1A60962000F025
:1032400081FA049B019A1A60962000F07BFA013CF7
:10325000F1D10424039B019A1A604FF4C87000F066
:1032600071FA049B019A1A604FF4C87000F06AFA70
:10327000013CEFD1DEE710B5044600F041F82046EE
:1032800004F02CFC21460246022000F0F5F9BDE8CE
:10329000104000F03FB8000010B5A2B00B46024647
:1032A000842101A803F00EFE8328044605D90522D7
:1032B00005490DF1830004F038FB002C02DD01A864
:1032C000FFF7D9FF22B010BD0C8200080FB407B57C
:1032D00004A951F8040B0191FFF7DEFF03B05DF87C
:1032E00004EB04B07047EFF31080C04300F001001E
:1032F0007047EFF30580003018BF012070470000D1
:1033000008B5FFF745FC024A13680133136008BD96
:1033100004030020054B1A6832B11A68013A1A609A
:103320001B680BB9FFF746BC704700BF04030020C1
:103330000122D0E84F3FC0E8412F0029F9D1D8B28F
:10334000003018BF0120704750E8003F0B4440E8B0
:103350000032002AF8D118467047000008B50B4823
:10336000FFF7E6FF28B1FFF7CBFFBFF34F8F20BF7A
:10337000FDE7FFF7BEFF08B1FFF754FFFFF7B3FF0C
:103380000028F9D0012000F016F900BF4803002002
:1033900070B5164C8EB034EA200428BF04460D46A2
:1033A00016460021342201A804F0CAFACDE90146EC
:1033B0000395FFF7A5FF0E4A13680133012B136035
:1033C00004D1342201A90B4804F0AFFA342201A938
:1033D000094804F0AAFA094B1B680BB10648984744
:1033E000FFF798FF00200EB070BD00BF0101FF8005
:1033F00008030020140300204C0300200C030020CD
:103400000FB4064808B57446FFF792FF014618B995
:1034100022460348FFF7BCFFFFF7A0FF1003002080
:103420000001FF8008B50446064876461546FFF7BA
:103430007FFF20B9324629462046FFF7A9FFFFF754
:103440008DFF00BF1003002010B5074CFFF758FF99
:10345000208808B9FFF760FE238801332380BDE888
:103460001040FFF757BF00BF8203002008B5FFF7E9
:1034700047FF064A1388013B9BB2138013B9012012
:10348000FFF74AFEBDE80840FFF744BF8203002073
:1034900010B5074CFFF734FF208808B9FFF72AFE64
:1034A000238801332380BDE81040FFF733BF00BFFE
:1034B0008003002008B5FFF723FF064A1388013B6D
:1034C0009BB2138013B90120FFF714FEBDE808403A
:1034D000FFF720BF800300206FF01C0070476FF0E3
:1034E00015007047012070470020704770470000AA
:1034F000F8B5074E15460C468F18BC4205D014F897
:10350000011B304602F0FCFCF7E72846F8BD00BF7F
:103510006C09002038B58DB215F0010405D00848BB
:1035200002F014FF041C18BF0124EB0605D5044863
:1035300002F01CFF08B144F01004204638BD00BF63
:103540006C09002010B5044604F0D8F9204610BDDF
:1035500010B50C462AB1044802F0BCFC20700120D2
:1035600010BD1046FCE700BF6C09002038B51D46B1
:10357000074B0360074B1B68044633B9064802F04B
:10358000ADFF2946044802F03FFF204638BD00BF8A
:103590001C820008900300206C0900200020704766
:1035A0000020704702F080BC08B508B1FFF73AFE72
:1035B000FEE70120704708B5FFF7F6FF01207047CE
:1035C0007047704708B5FFF7FBFF08BD08B5FFF768
:1035D000F8FF08BD037803F00302012A1DBF43F082
:1035E00002030370012000207047037823F00303D7
:1035F00043F00103037070473F2870B504462FDC89
:10360000184D55F820305A1C13D1022811DCFFF751
:10361000C7FF034658B92046FFF7C0FF034630B93D
:10362000114E3378BFF35B8FDB0704D50F4B45F8A2
:103630002430184670BD3046FFF7CCFF0028F5D087
:103640004FF4E133032202210848FFF78FFF304691
:10365000FFF7CBFF064A07490448FFF7AAFFE5E753
:103660000023E6E7480000208403002088030020B0
:1036700000000020ED34000838B50C461546FFF771
:10368000BBFF38B904F008F9092303604FF0FF3499
:10369000204638BD03682146DB682A469847041E49
:1036A000F6DA04F0F9F864420460EFE713B5044673
:1036B00004F01CF9034628B900900146224602484E
:1036C000FFF7B0FE02B010BD1F010180FFF7EEBF93
:1036D00004F014B904F012B970477047084B094957
:1036E00098684FF08053C21802F17042126843F894
:1036F000042B8B42F7D1024B4FF080529A607047F7
:1037000000ED00E08801001008B5FFF7E7FF02F0C8
:1037100027FDFFF7E2FF08BD08B5FFF7DDFFBDE8B5
:10372000084003F037BE70B50446FFF7C9FC0646F3
:10373000FFF7C1FC05463046FFF7BDFC401BA04229
:10374000F9D370BD4FF47A735843FFF7ECBF000014
:103750000F49D1F8883043F47003C1F888300D4B1D
:103760001A68002042F001021A6098601A6822F07C
:10377000A85222F410221A604FF48052DA601A68BC
:1037800022F480221A609861034B8B60704700BF5F
:1037900000ED00E0001002400000000830B5B9B0B4
:1037A000142200210546684604F0CAF8442200218C
:1037B00005A804F0C5F80021882216A804F0C0F876
:1037C000264B196811F4806102D0002039B030BD59
:1037D00001246846009400F0A7FD07230593002DFF
:1037E00038D14FF48033CDE906340023142201246C
:1037F000089303250223CDE9114205A80722CDE94C
:103800000F35CDE91323159300F032FB0028DCD1EE
:103810000F23CDE90200049004216846CDE900356C
:1038200000F082FD0028D0D10D4B16934FF4406379
:10383000299316A84FF48073379300F06FFF002888
:10384000C3D110230B900F9005A8059300F010FB37
:103850002046BBE74FF4A0230693C6E700100240C2
:103860002000020008B50020FFF798FF10B90248B9
:10387000FFF7C6FD08BD00BF3C830008DFF820D07D
:10388000002103E0074B5B58435004310648074BC7
:1038900042189A42F6D3FFF75BFFFCF795FC70479E
:1038A000008000100C8B000800000020D8010020D0
:1038B000FEE7704708B5032000F008F80F2002F07B
:1038C00032FCFFF7F6FF002008BD0000074AD3686E
:1038D00023F4E0631B041B0C43F0BF63000243F4BA
:1038E000003300F4E0600343D360704700ED00E074
:1038F000324B1A69920741BF31494A6842F00102CE
:103900004A601B691B0741BF2D4A536843F00203FD
:1039100053602A4B1A69D00641BF29494A6842F0D0
:1039200004024A601B69990641BF254A536843F067
:1039300008035360214B1A69520641BF20494A6867
:1039400042F010024A601B691B0641BF1C4A5368C3
:1039500043F020035360194B1A69D00541BF184941
:103960004A6842F040024A601B69990541BF144A07
:10397000536843F080035360104B1A69520441BFEF
:103980000F494A6842F480724A601B691B0441BFB8
:103990000B4A536843F400735360084B9A69002A3A
:1039A000BFBF07494A6842F480624A609A6942F0A0
:1039B00000429A614CF2FA321A61704700200240CC
:1039C0007C060020074A536943F48023536172B692
:1039D00001F58073401A0A680A5004319942FAD1FD
:1039E00062B6704700200240064B5A69002ABFBFEA
:1039F000054A9A6002F188329A60BABF5869C00FCE
:103A0000002070470020024023016745034A5369A4
:103A100043F0004353610020704700BF0020024084
:103A200070B5054602F084FB1E4C06462369D80398
:103A300026D4236999071FD423691A071CD4236944
:103A4000DB0619D423699E0616D423695D0613D4B8
:103A50002369180610D42369D9050DD423699A0562
:103A60000AD423695B0407D40E490A6912F40042A0
:103A700002D18B69002B0CDAFFF73AFF012070BDF1
:103A80006B1CD3D002F054FB801BA842CED3032082
:103A9000F5E7086910F00100F1D001230B61104631
:103AA000EDE700BF002002402DE9F047244C9A4684
:103AB0002378012B0746884691463FD001234CF2DC
:103AC00050302370FFF7ACFF064620BB60601D48F6
:103AD000056815F4806517BF0368257723F48063B4
:103AE00003601CBF02232377D7B9456945F0010560
:103AF0004561C8F800900125C8F804A04CF2503088
:103B0000FFF78EFF064625B10E4A536923EA0505E5
:103B1000556100F051F8002323703046BDE8F0876E
:103B20007B1E012B01D90025E8E749464046FFF7F7
:103B300049FF022FF7D14FF48025DFE70226ECE79B
:103B40007C06002000200240094B10F0010F1EBF30
:103B50005A6942F004025A61820742BF5A6942F42C
:103B600000425A615A6942F480325A61704700BF7C
:103B7000002002400F4B5A6911F0010F14BF22F4CC
:103B8000006242F400625A615A694FF4FF6191FA8F
:103B9000A1F1B1FA81F122F4FF628840104358612B
:103BA0005A6942F002025A615A6942F480325A61FB
:103BB000704700BF00200240144B1A7F012A02D038
:103BC0001A7F032A0CD1124A116841F40061116076
:103BD000116821F400611160116841F400711160F5
:103BE0001A7F022A02D01A7F032A0CD1084A1168D0
:103BF00041F480511160116821F480511160116805
:103C000041F48061116000221A7770477C06002021
:103C1000002002402DE9F047354C2378012B064661
:103C2000884662D001274CF250302770FFF7F8FE2B
:103C3000054640BB2F4B60601A6812F4007F1A687B
:103C400026D022F400721A601A68510506D51A6847
:103C500022F480621A600323237700E02777336819
:103C6000012B1FD17068FFF76FFF4CF25030FFF748
:103C7000D7FE204A536923F4004323F0040305468A
:103C80005361FFF799FF002323702846BDE8F087B2
:103C9000520505D51A6822F480621A600223DBE718
:103CA0002077DCE74FF0FF33C8F80030B768DFF863
:103CB0004490DFF844A0D6E902321344BB42E0D975
:103CC00071683846FFF756FF4CF25030FFF7A8FEF8
:103CD000D9F8143003EA0A03C9F8143018B1C8F847
:103CE00000700546CDE70137E5E70225CDE700BFC7
:103CF0007C0600200020024005F8FFFF024B1868F8
:103D000000F4C060704700BF00700040024A536872
:103D100043F40073536070470070004037B51E4D88
:103D2000AB6DDA00044618D5FFF7E8FFB0F5007F69
:103D300023D1802C29D9A02C8CBF02200120174A26
:103D4000136823F0070303431360136803F00703AA
:103D5000181A18BF012003B030BDAB6D43F080537B
:103D6000AB65AB6D03F080530193019BFFF7C6FF7A
:103D7000AB6D23F08053AB65D8E7802C07D808D013
:103D8000A4F1700358425841D9E70020D7E7032037
:103D9000D5E70220D3E700BF001002400020024018
:103DA0002F4B9A6812F00C0F10B509D09A6802F0E8
:103DB0000C020C2A2DD1DA6802F00302012A28D164
:103DC0001A682849120755BFD3F894201A68C2F31D
:103DD0000322C2F3031251F82220996811F00C0F4C
:103DE0000CBF10460020996801F00C010C2930D15D
:103DF000DC68D868C0F30210411C04F003000228FC
:103E000019D0032826D0B2FBF1F2D868C0F30620FF
:103E100017E09A6802F00C02042A07D09A6802F0B0
:103E20000C02082A04D110480022DCE70F48FBE707
:103E300000200246D7E7DA680C48C2F30622B0FB3E
:103E4000F1F0DB68C3F34163013350435B00B0FB27
:103E5000F3F010BDDA680448C2F30622EFE700BFB2
:103E6000001002407C83000800127A000024F40055
:103E700003682DE9F3410446D80639D5A94DAB684E
:103E800013F00C0F5ED12B68990703D5A3690BB90A
:103E900001207BE02B68206A1A0756BFD5F89430C2
:103EA0002B681B0903F0F003984236D9FFF736FF61
:103EB0000028EDD12B6843F008032B602B68226AA1
:103EC00023F0F00313432B606B68E26923F47F4314
:103ED00043EA02236B60FFF763FFAB68924AC3F3C8
:103EE0000313D35CD840914B18600F2002F01BF9EC
:103EF0002368DE075DD423689D0700F1A580236851
:103F0000190700F1E38023685A0700F11181A16AC3
:103F1000002940F07881002038E02B6843F0080346
:103F20002B602B6823F0F00303432B606B68E2697E
:103F300023F47F4343EA02236B60FFF7EFFE002880
:103F4000C9D0A5E7A36923B32B6843F001032B6015
:103F500002F0EEF806462B689B0711D52B6843F05C
:103F600008032B602B68226A23F0F00313432B60B5
:103F70006B68E26923F47F4343EA02236B60B7E78F
:103F800002F0D6F8801B0228E5D9032002B0BDE874
:103F9000F0812B6823F001032B6002F0C9F806467C
:103FA0002B689F07A4D502F0C3F8801B0228F7D91D
:103FB000EBE75C4DAB6803F00C03082B09D0AB6852
:103FC00003F00C030C2B0BD1EB6803F00303032B62
:103FD00006D12B6898038ED56368002B8BD157E7E9
:103FE0006368B3F5803F10D12B6843F480332B60B6
:103FF00002F09EF806462B6899033FF57CAF02F06D
:1040000097F8801BC828F6D9BFE7B3F5A02F04D1D5
:104010002B6843F480232B60E6E72A6822F4803281
:104020002A602A6822F480222A60002BE0D102F064
:104030007FF806462B689A037FF55DAF02F078F8AB
:10404000801BC828F6D9A0E7364DAB6803F00C03F7
:10405000042B09D0AB6803F00C030C2B13D1EB68D5
:1040600003F00303022B0ED12B685B0503D5E36835
:10407000002B3FF40DAF6B68226923F0F85343EA3D
:1040800002636B603BE7E3687BB12B6843F48073AA
:104090002B6002F04DF806462B685F05EBD402F06A
:1040A00047F8801B0228F7D96FE72B6823F4807349
:1040B0002B6002F03DF806462B6858057FF51FAFD0
:1040C00002F036F8801B0228F6D95EE76369154DC9
:1040D0009BB1D5F8943043F00103C5F8943002F059
:1040E00027F80646D5F894309B073FF50CAF02F051
:1040F0001FF8801B0228F5D947E7D5F8943023F044
:104100000103C5F8943002F013F80646D5F8943050
:104110009F077FF5F8AE02F00BF8801B0228F5D957
:1041200033E700BF0010024061830008480100200F
:104130007B4DAB6DDE0027D4AB6D43F08053AB6598
:10414000AB6D03F080530193019B0127754E3368DB
:10415000D8051BD5A368012B29D1D5F8903043F0A1
:104160000103C5F8903001F0E3FF41F288380646BC
:10417000D5F890309A0740D5002F3FF4C8AEAB6D0C
:1041800023F08053AB65C2E60027DFE7336843F4D2
:104190008073336001F0CCFF80463368D905D9D4F1
:1041A00001F0C6FFA0EB08000228F6D9EDE6052BCA
:1041B00006D1D5F8903043F00403C5F89030CCE731
:1041C000D5F8902022F00102C5F89020D5F8902073
:1041D00022F00402C5F89020002BC4D101F0A8FF02
:1041E00041F288380646D5F890309B07C4D501F0D7
:1041F0009FFF801B4045F6D9C7E601F099FF801B61
:104200004045B5D9C1E6464B9A6802F00C020C2A2B
:104210001D465AD01B68022923F080732B6037D1CA
:1042200001F086FF06462B689F012BD4626BE36A80
:1042300043EA0223226B013A43EA0213A26B1209FA
:1042400043EA4243E26B5208013A43EA4253226C8A
:104250005208013A43EA4263EB602B6843F08073F3
:104260002B60EB6843F08073EB6001F061FF044664
:104270002B6898013FF54FAE01F05AFF001B022852
:10428000F6D982E601F054FF801B0228CBD97CE6E8
:104290002B68190106D42B689A005EBFEB6823F0E7
:1042A0000303EB60EB6823F0887323F48033EB6047
:1042B00001F03EFF04462B689B017FF52CAE01F018
:1042C00037FF001B0228F6D95FE69A68E16A02F020
:1042D00003028A427FF4DCAD9A68216B02F070021F
:1042E0008A427FF4D5AD9A68616B02F4FE428A423D
:1042F0007FF4CEAD9A68A16B02F400328A427FF45B
:10430000C7AD9A68E16B02F4C0028A427FF4C0AD87
:104310009868236C00F0C060C01A18BF012035E611
:104320000010024000700040554A136803F0070374
:104330008B422DE9F04105460E462AD32B68D9075A
:1043400034D429688A0700F181804D4A136803F04C
:104350000703B34200F2828011F0040F494C40F091
:1043600088800B0706D5A3682A6923F4605343EAC3
:10437000C203A360FFF714FDA368434AC3F303130A
:10438000D35CD840414B18600F2001F0CCFE0020D8
:104390000AE0136823F007030B431360136803F06C
:1043A00007038B42CAD00120BDE8F0816A68354C12
:1043B000032A23681BD113F0007FF4D0A36823F0F5
:1043C00003031343A36001F0B3FE6B68032B07469E
:1043D00041F2883817D1A36803F00C030C2BB0D03E
:1043E00001F0A6FEC01B4045F5D90320DCE7022AF8
:1043F00002D113F4003FE0E712B913F0020FDCE73B
:1044000013F4806FD9E7022B0AD1A36803F00C03E1
:10441000082B96D001F08CFEC01B4045F5D9E4E78F
:1044200073B9A36813F00C0F8BD001F081FEC01B91
:104430004045F6D9D9E701F07BFEC01B4045D4D8F2
:10444000A36803F00C03042BF5D17AE70D4AA868A2
:10445000936823F0F0030343936076E7136823F037
:10446000070333431360136803F00703B3429AD181
:1044700072E7A368EA6823F4E0631343A36070E77C
:104480000020024000100240618300084801002023
:10449000044B054A9B68C3F30223D35C034A1068AC
:1044A000D840704700100240718300084801002086
:1044B000044B054A9B68C3F3C223D35C034A1068CC
:1044C000D840704700100240718300084801002066
:1044D0000F2303600B4B9A6802F0030242609A6854
:1044E00002F0F00282609A6802F4E062C2609B68A7
:1044F000DB0803F4E0630361034B1B6803F007036D
:104500000B6070470010024000200240F8B5444B99
:10451000DA6812F0030F05460E4600681C462AD0E2
:10452000DA6802F0030282423CD1002A3AD0DB680A
:104530006A68C3F302130133934233D1236823F033
:104540008063236001F0F4FD074623681A0132D42A
:10455000AB681F02002E35D0012E4ED12A69216989
:104560005208531E21F4C00222F4FE423A4342EAAA
:104570004352226131E0022810D0032814D00128D0
:1045800010D11B689F071CD5E3686A6823F073038A
:10459000013A184340EA0210E060CFE71B6813F4C9
:1045A000806FF1D101200CE01A689103ECD41B68F4
:1045B00013F4802FF5E701F0BBFDC01B0228C4D91E
:1045C0000320F8BD2169EB6821F41F3121F440710B
:1045D0001B09394341EA43412161236843F0806369
:1045E000236001F0A5FD064623681B0112D523694F
:1045F000AA69134323610020E3E76B6922695B0822
:10460000591E22F0C06323F4FE433B4343EA416357
:104610002361E2E701F08CFD801B0228E4D9CFE79B
:1046200000100240F8B53C4BDA6812F0030F054663
:104630000E4600681C4627D0DA6802F00302824268
:1046400039D1002A37D0DB686A68C3F3021301331B
:10465000934230D1236823F08053236001F068FD3A
:10466000074623689A002FD4AB6818029EB363698B
:10467000296923F0C063490823F4FE430139034349
:1046800043EA4163636131E0022810D0032814D06B
:10469000012810D11B689F071CD5E3686A6823F0C6
:1046A0007303013A184340EA0210E060D2E71B6846
:1046B00013F4806FF1D101200CE01A689103ECD45F
:1046C0001B6813F4802FF5E701F032FDC01B0228B0
:1046D000C7D90320F8BD6269EB6822F41F3222F4C7
:1046E00040721B09024342EA43426261236843F07D
:1046F0008053236001F01CFD064623689B0005D50E
:1047000063696A69134363610020E3E701F010FD08
:10471000801B0228F1D9DCE7001002402DE9F347A5
:10472000066816F40066044624D0416EB1F5800F89
:104730002CD002D8C1B101261CE0B1F5000F0DD07C
:10474000B1F5400FF7D14E4A616ED2F8883023F4AC
:1047500040030B43C2F8883000260BE0484AD36878
:1047600043F48033D360EEE70430FFF7CFFE064614
:104770000028E8D02368D80406D5A16EB1F1807F67
:1047800073D008D8A9B10126354621E00021203098
:10479000FFF748FFEBE7B1F1007F04D0B1F1407FB4
:1047A000F1D1354609E0364AD36843F48033D3600B
:1047B000F7E7201DFFF7AAFE0546002D5BD1304A22
:1047C000A16ED2F8883023F040730B43C2F88830D2
:1047D0002368990340F15A81294FBB6DDA004CD40C
:1047E000BB6D43F08053BB65BB6D03F080530193F9
:1047F000019B4FF00108DFF88C90D9F8003043F4AA
:104800008073C9F8003001F093FC8246D9F800307B
:10481000DB0539D5002D3ED1D7F8903013F4407325
:1048200015D0D4F884209A4211D0D7F89030D7F818
:10483000902042F48032C7F89020D7F8902023F4DB
:10484000407322F48032C7F89020C7F89030D80720
:1048500000F10C81D7F89030D4F8842023F4407311
:104860001343C7F89030354615E0002104F12000CD
:10487000FFF7D8FEA0E72E46AAE74FF00008BAE7F8
:10488000001002400070004001F052FCA0EB0A0052
:104890000228BBD90325B8F1000F03D0BB6D23F06C
:1048A0008053BB652368DA0708D58E49A06BD1F821
:1048B000882022F003020243C1F888209F0708D510
:1048C0008849E06BD1F8882022F00C020243C1F83D
:1048D00088205E0708D58349206CD1F8882022F013
:1048E00030020243C1F88820180708D57D49606C62
:1048F000D1F8882022F0C0020243C1F88820D906EE
:1049000008D57849A06CD1F8882022F4407202437F
:10491000C1F888209A0608D57249E06CD1F8882041
:1049200022F440620243C1F888209F0508D56D49F2
:10493000E06DD1F8882022F440220243C1F888209B
:104940005E0508D56749206ED1F8882022F4401210
:104950000243C1F88820580608D56249206DD1F875
:10496000882022F440520243C1F88820190608D555
:104970005C49606DD1F8882022F440420243C1F8BE
:104980008820DA0508D55749A06DD1F8882022F48F
:1049900040320243C1F888209B040FD5514AE16E92
:1049A000D2F8883023F040630B43B1F1006FC2F8B6
:1049B00088306DD1D36843F48013D36023681F031C
:1049C0000FD5484A216FD2F8883023F040630B435B
:1049D000B1F1006FC2F8883065D1D36843F4801319
:1049E000D36023685E030FD53E4A616FD2F88830EA
:1049F00023F040630B43B1F1006FC2F888305DD102
:104A0000D36843F48013D3602368580412D5354922
:104A1000A26FD1F8883023F040531343B2F1805F86
:104A2000C1F8883055D10221201DFFF76FFD002805
:104A300018BF05462268110408D52A49E06FD1F84D
:104A4000883023F080430343C1F88830D30309D56D
:104A5000244AD4F88010D2F8883023F000430B4366
:104A6000C2F88830284602B0BDE8F08701F060FB4C
:104A700041F288390546D7F8903099073FF5EAAEFC
:104A800001F056FB401B4845F5D903E7354609E7D9
:104A9000B1F1806F92D10121201DFFF737FD002871
:104AA00018BF05468AE7B1F1806F9AD10121201D18
:104AB000FFF72CFD002818BF054692E7B1F1806F83
:104AC000A2D10121201DFFF721FD002818BF0546B6
:104AD0009AE7B2F1005FADD1022104F12000FFF7A7
:104AE000A1FDA4E70010024003685A6822F0E0022A
:104AF0005A604268B2F5827F0AD18268B2F5004FEF
:104B000002D0B2F5806F03D11A6822F040021A6019
:104B1000826AB2F5005F07D11A6822F400521A6067
:104B20001A6842F400521A60012380F85D300023B5
:104B300080F85C30032070472DE9F041DDF81880E3
:104B400005460F4616461C462A68936837EA030353
:104B50000CBF012300239E4202D10020BDE8F0815A
:104B6000631CF2D024B92846BDE8F041FFF7BCBF72
:104B700001F0DEFAA0EB0800A042E5D3F3E72DE94F
:104B8000F341DDF8208007460E4615461C463A687C
:104B900090683040A84203D1002002B0BDE8F08107
:104BA000B6F5C06F06D12DB9137BDBB28DF8073097
:104BB0009DF80730631CEBD02CB9384602B0BDE835
:104BC000F041FFF791BF01F0B3FAA0EB0800A0425B
:104BD000DDD3F2E74368B3F5827FF7B504460E46AE
:104BE00017460BD18368B3F5004F02D0B3F5806F41
:104BF00004D12268136823F0400313600097334602
:104C0000002280212046FFF797FF054628B1236E3A
:104C100043F020032366032514E06368B3F5827F25
:104C200010D1A368B3F5004F02D0B3F5806F09D15E
:104C30000097334600224FF4C0612046FFF79FFFE4
:104C40000028E4D1284603B0F0BD73B50B460092AE
:104C50000D4616464FF4C05100220446FFF78FFF61
:104C6000024628B1236E43F020032366032011E09F
:104C700000962B4680212046FFF75EFF0246002863
:104C8000F0D100962B464FF4C0612046FFF777FF26
:104C90000028E7D102B070BD7047F8B5044600287F
:104CA00053D090F85D3003F0FF021BB980F85C2010
:104CB000FFF7F2FF0223226884F85D301368E5688D
:104CC00023F04003B5F5E06F13604FF000033ED8CA
:104CD0004FF4805000D0A362236B2BB9B5F5E06F81
:104CE0008CBF022301232363D4E901373B432769A7
:104CF000A169A66A3B4367693B43E7693B43276A6F
:104D00003B43334301F400773B431360236B022B97
:104D100002BF136843F400631360636A1D43636B4F
:104D2000090C1D4301F00401B6F5005F45EA0105D9
:104D300040EA050008BFE36A506008BF1361002025
:104D40000123206684F85D30F8BD0120FCE7184699
:104D5000B5F5706FBEE72DE9F3411E4690F85C3063
:104D6000012B04460D46904600F0CC80012380F8CC
:104D70005C3001F0DDF9074694F85D00C0B201280F
:104D800040F0BE80002D6DD0B8F1000F6AD0032333
:104D900084F85D30002323662364A4F83E80A4F8E1
:104DA0004430A4F84630C4E91333A3682068A563EF
:104DB000B3F5004F08BF0368A4F83C8004BF43F478
:104DC00080430360A36AB3F5005F07D1036823F44F
:104DD00000530360036843F4005303600368E26810
:104DE0005B065EBF036843F040030360B2F5E06F0B
:104DF000636848D91BB1E38F9BB2012B06D135F80C
:104E0000023BC360E38F013B9BB2E387E38F9BB21E
:104E1000F3B9A36AB3F5005F04D12268136843F4C1
:104E2000805313603A4631462046FFF70EFF08B123
:104E300020232366A368B3F5004F57D12268136877
:104E400023F040031360206E003018BF012009E0FA
:104E500023689A68900703D535F8022BDA60D1E70A
:104E60004EB90320012384F85D30002384F85C30C0
:104E700002B0BDE8F081711CC8D001F059F9C01B27
:104E8000B042C3D3EDE71BB1E38F9BB2012B09D135
:104E9000E38F012B15D935F8023BC360E38F023B4A
:104EA0009BB2E387E38F9BB2002BB2D023689A6852
:104EB000920711D5E28F012A0BD935F8022BDA605F
:104EC000ECE72B780373E38F013B9BB2E38701355B
:104ED000E8E72A781A73F6E7002EC2D0731CE1D0F7
:104EE00001F026F9C01BB042DCD3BAE7002BAAD1EF
:104EF00001932368DA6801929B680193019BA2E702
:104F00000220AFE70220B3E72DE9F04385B09846D1
:104F10000023ADF80E3090F85C300C9E012B044657
:104F20000D46914600F0A181012380F85C3001F02C
:104F3000FFF894F85D306168DBB2012B07460AD0B8
:104F4000B1F5827F40F08F81A268002A40F08B810A
:104F5000042B40F08881002D00F06E81B9F1000F24
:104F600000F06A81B8F1000F00F0668194F85D30BE
:104F7000A26AC4F84090042B1CBF052384F85D305E
:104F80000023B2F5005F2366C4E91333A4F846801A
:104F9000A4F84480A563A4F83E80A4F83C8023686C
:104FA00007D11A6822F400521A601A6842F40052BB
:104FB0001A60E068B0F5E06F03D8B4F84620012A23
:104FC00036D95A6822F480525A601A6852065EBF77
:104FD0001A6842F040021A60B0F5E06F7DD919B14D
:104FE000E28F92B2012A06D135F8022BDA60E38F04
:104FF000013B9BB2E3874FF00108E38F9BB2DBB923
:10500000B4F846309BB2BBB9A36AB3F5005F40F079
:10501000FC8001220097334611462046FFF78CFDA5
:10502000002800F0E780236E43F00203236649E086
:105030005A6842F48052C7E7B8F1000F28D0E38FD6
:105040009BB22BB323689A68900721D535F8022BC1
:10505000DA60E28F013A92B2E287B4F83E801FFA3A
:1050600088F8B8F1000F11D1A16AB1F5005F0FD136
:105070001A68510706D45A68120742BF1A6842F4E8
:1050800000721A601A6842F480521A604FF00008E9
:10509000B4F846309BB273B123689A68D0070AD53A
:1050A000DB6829F8023BB4F84630013B9BB2A4F818
:1050B00046304FF00108711C9FD001F039F8C01B39
:1050C000B0429AD30325012384F85D30002384F88D
:1050D0005C30284605B0BDE8F08319B1E28F92B28A
:1050E000012A09D1E28F012A68D935F8022BDA604A
:1050F000E38F023B9BB2E3874FF00108E38F9BB243
:105100002BB9B4F846309BB2002B3FF47DAFB8F119
:10511000000F2CD0E38F9BB24BB323689A689207A1
:1051200025D5E28F012A51D935F8022BDA60E38FB9
:10513000023B9BB2E387B4F83E801FFA88F8B8F1CF
:10514000000F12D1A26AB2F5005F10D123681A686D
:10515000500706D45A68110742BF1A6842F4007219
:105160001A601A6842F480521A604FF00008B4F8CE
:1051700046309BB2D3B123689A68D20716D5B4F8EB
:105180004620012A2AD9DA6829F8022BB4F84620E9
:10519000023A92B2A4F84620B4F84620012A03D875
:1051A0005A6842F480525A604FF00108731CA5D02F
:1051B00000F0BEFFC01BB042A0D383E72A781A7369
:1051C000E38F013B9BB2E387013595E72A781A7399
:1051D000E38F013B9BB2E3870135ACE71B7B89F88A
:1051E0000030B4F84630013B9BB2A4F8463009F1D8
:1051F0000109D9E7E2682368B2F5706F1ED1DB6858
:105200009BB2ADF80E30BDF80E302268956815F0EF
:10521000100507D0236E43F0020323664FF6EF73A9
:10522000936001253A4631462046FFF70EFD0028DF
:105230003FF449AF20232366012544E71B7BADF8EB
:105240000E30BDF80E30236B022BDED10122009709
:10525000334611462046FFF76FFC00287FF4E3AE8B
:1052600023681B7BCDE702252DE7022531E72DE9D9
:10527000FF411D460023ADF80E304368B3F5827F31
:1052800004460E4690460CD1836853B9042380F837
:105290005D30134600950A46FFF736FE04B0BDE8C0
:1052A000F08194F85C30012B00F0F680012384F843
:1052B0005C3000F03DFF074694F85D00C0B2012865
:1052C00040F0E880002E00F09280B8F1000F00F06E
:1052D0008E80A26A2664042384F85D30B2F5005FF4
:1052E0004FF000032366A363A4F84680A387E387F7
:1052F000C4E91333A4F8448023680DD11A6822F45A
:1053000000521A601A6842F400521A60B4F846203B
:10531000013A92B2A4F84620E1685A68B1F5E06F0C
:105320008CBF22F4805242F480525A60A268B2F5D7
:10533000004F02BF1A6822F480421A601A685006B1
:105340005EBF1A6842F040021A60B1F5E06F1ED9E4
:10535000B4F846309BB2FBB123689A68D10755D5A3
:10536000DB6826F8023BB4F84630013B9BB2A4F858
:105370004630EDE723689A68D20736D51B7B06F8DE
:10538000013BB4F84630013B9BB2A4F84630B4F878
:1053900046309BB2002BEDD1A36AB3F5005F4AD132
:1053A0002268136843F480531360012200972B4650
:1053B00011462046FFF7C0FBC0B9E2682368B2F58A
:1053C000E06F8ABFDB681B7B33804FF0010298BF20
:1053D000337000972B4611462046FFF7ADFBF8B11E
:1053E000236E43F00203236600E03DB9032001234E
:1053F00084F85D30002384F85C304FE7681CC6D029
:1054000000F096FEC01BA842C1D3EFE7002DEDD0FF
:105410006A1C9DD000F08CFEC01BA84298D3E5E723
:10542000E2682368B2F5706F1DD1DB689BB2ADF8FE
:105430000E30BDF80E303A4629462046FFF7CAFB2B
:1054400008B12023236622689368DB0606D5236E05
:1054500043F0020323664FF6EF739360206E003033
:1054600018BF0120C3E71B7BADF80E30B2F5E06F2B
:10547000BDF80E30DFD1236B022BDCD10122009767
:105480002B4611462046FFF757FB0028A8D123687A
:105490001B7BCCE70220AAE70220FFE67047000052
:1054A000304A0368904212D0B0F1804F0FD0A2F57D
:1054B000943290420BD002F58062904207D002F500
:1054C0008062904203D002F59432904219D14A682A
:1054D00023F070031343234A90421DD0B0F1804F54
:1054E0001AD0A2F59432904216D002F58062904212
:1054F00012D002F5806290420ED002F594329042B2
:105500000AD0194A904207D002F58062904203D037
:1055100002F58062904203D1CA6823F440731343BA
:105520004A6923F08003134303608B68C3620B68EE
:1055300083620C4B98420FD003F5006398420BD066
:1055400003F54063984207D003F58063984203D087
:1055500003F58063984201D10B6903630123436122
:10556000704700BF002C01400040014010B50446C8
:10557000A0B190F83D3003F0FF021BB980F83C2049
:10558000FFF78CFF022384F83D302068211DFFF7D0
:1055900087FF012384F83D30002010BD0120FCE787
:1055A000036A10B501248C4023EA04030362036AF2
:1055B0008A401A43026210BD10B5044601220068F9
:1055C000FFF7EEFF23680E4A93420FD002F5006208
:1055D00093420BD002F54062934207D002F58062FD
:1055E000934203D002F58062934203D15A6C42F495
:1055F00000425A641A6842F001021A60002010BD8D
:10560000002C014010B5044600220068FFF7C8FFD7
:105610002368184A93420FD002F5006293420BD0E0
:1056200002F54062934207D002F58062934203D0B4
:1056300002F5806293420DD1196A41F211121142B2
:1056400008D1196A40F24442114202BF5A6C22F456
:1056500000425A64196A41F21112114208D1196AC2
:1056600040F24442114202BF1A6822F001021A605D
:10567000002010BD002C0140704700000268C16985
:10568000F8B50446836800691568034360690343FD
:10569000BA480B432840034313605368E06823F47F
:1056A000405303435360B64BA0699A421CBF236A20
:1056B0001843936823F4306303439360B14B9A42D9
:1056C00019D103F55843B04AD3F8883003F00303E7
:1056D000B1F5004FD35C40F03981082B00F2D58042
:1056E000DFE813F01B01D0000201D3001501D30045
:1056F000D300D3003900A54B9A4207D103F5E63316
:10570000A34AD3F8883003F00C03E1E7A14B9A4297
:1057100026D103F5E433D3F8883003F03003102B9F
:1057200000F0EB800BD8002B56D0954B9A4264D0FA
:10573000B1F5004F00F0A98001220023B1E0202B39
:1057400000F0CC80302BF0D18D4B9A425BD0B1F57C
:10575000004F40F0BE806068430803F58033C9E025
:105760008D4B9A420ED103F5E233D3F8883003F023
:10577000C003402B00F0C180D5D9802B00F0AE8053
:10578000C02BE0E7854B9A4211D103F5E033D3F803
:10579000883003F44073B3F5807F00F0AE80C2D947
:1057A000B3F5007F00F09A80B3F5407FCBE7744BF0
:1057B0009A42BDD103F5C833D3F8883003F440636F
:1057C000B3F5806F00F09980ADD9B3F5006F00F0AC
:1057D0008580B3F5406FB6E7694B9A4240F09A80F6
:1057E000FEF756FE002318B9024607E06C48022374
:1057F000626802EB4201814209D901220023C4E917
:1058000018331046F8BD08234FF40040F0E7B0EB22
:10581000023FF2D8082B32D8DFE803F0053112310D
:10582000253131312800FEF733FE62684FF4807174
:1058300056080027E1FB006700233046394607E0A1
:10584000584E5508002770194FF0000347F100012A
:1058500002F04CF90022544BA0F540719942CCD88B
:105860002368D860CAE7FEF79BFADEE750080026F7
:1058700010F500004FF0000346F10001E8E70122B7
:105880000020E8E7FEF714FE49E0012200234EE085
:10589000FEF7FEFD626800EB5203B3FBF2F39BB22E
:1058A0000022A3F110004FF6EF718842A5D82168BD
:1058B000CB60A3E7FEF7FCFDECE76068430803F567
:1058C000740303F51053B3FBF0F3E8E7FEF768FA4F
:1058D000E0E76068430803F50043F4E7284B9A4289
:1058E00084D0B1F5004FE8D16068430803F1F47348
:1058F00003F59043B3FBF0F317E0214B9A4203D139
:10590000FEF74EFA04236EE7B1F5004FDED1FEF745
:1059100047FA04E0B1F5004FBAD1FEF7B9FD61686E
:105920004A0802EB4003B3FBF1F39BB20022A3F160
:1059300010004FF6EF7188423FF65FAF23F00F0182
:105940002068C3F342030B43C36057E7082B3FF6BD
:1059500054AF01A252F823F091580008B55800083E
:10596000BB580008FB570008CD580008FB5700083B
:10597000FB570008FB570008D3580008F369FFEFF6
:10598000008000400038014050830008004400407F
:105990005483000800480040004C00400050004084
:1059A0000024F400000024F4FFFC0F00436ADA072F
:1059B00010B506D50168846A4A6822F40032224391
:1059C0004A609C0706D50168C46A4A6822F480329E
:1059D00022434A60590706D50168046B4A6822F4DD
:1059E000802222434A601A0706D50168446B4A6840
:1059F00022F4004222434A60DC0606D50168846B2B
:105A00008A6822F4805222438A60990606D501688A
:105A1000C46B8A6822F4005222438A605A060FD56A
:105A20000168046C4A6822F480122243B4F5801F96
:105A30004A6005D14A68446C22F4C00222434A609D
:105A40001B0606D50268816C536823F400230B43C0
:105A5000536010BD2DE9F041069D04460F461646E1
:105A600098462168CA6937EA02030CBF0122002266
:105A7000B24201D0002014E06B1CF3D09DB9236822
:105A80001A6822F4D0721A609A6822F001029A60B1
:105A9000202384F8713084F87230002384F8703049
:105AA0000320BDE8F08100F043FBA0EB0800A84212
:105AB000D7D9E4E773B504460026466700F038FB03
:105AC00023681B681A07054617D423681B685B0701
:105AD0000AD56FF07E43009300222B464FF48001DD
