:020000040800F2
:1000000000800010FD260008312700083127000875
:1000100031270008312700083127000800000000C0
:100020000000000000000000000000003127000870
:1000300031270008000000003127000831270008A0
:100040003127000831270008312700083127000830
:100050003127000831270008312700083127000820
:100060003127000831270008312700083127000810
:100070003127000831270008312700083127000800
:1000800031270008312700083127000831270008F0
:1000900031270008312700083127000831270008E0
:1000A00031270008312700083127000831270008D0
:1000B00031270008312700083127000831270008C0
:1000C00031270008312700083127000831270008B0
:1000D00031270008312700083127000831270008A0
:1000E0003127000831270008312700083127000890
:1000F0003127000831270008312700083127000880
:10010000312700083127000831270008312700086F
:10011000312700083127000831270008312700085F
:10012000312700083127000831270008312700084F
:10013000312700083127000831270008312700083F
:10014000312700083127000831270008312700082F
:10015000312700083127000831270008312700081F
:10016000312700083127000831270008312700080F
:1001700031270008312700083127000831270008FF
:10018000312700083127000810B5054C237833B912
:10019000044B13B10448AFF300800123237010BD5A
:1001A000D800002000000000DC7B00080C4B43B1AD
:1001B0000C480D4910B5AFF300800C48036823B913
:1001C00010BD0A48036833B97047094B002BF7D0BC
:1001D000BDE810401847064B002BF5D0184700BF6C
:1001E00000000000DC7B0008DC000020D4000020C0
:1001F00000000000154B002B08BF134B9D46A3F5D4
:10020000803A00218B460F461348144A121A06F012
:10021000F7FC0F4B002B00D098470E4B002B00D063
:1002200098470020002104000D000D48002802D04E
:100230000C4802F059F906F095FC2000290002F064
:10024000A9F902F04EF900BF00000800008000107C
:100250000000000085250008D8000020AC470020E1
:10026000E92400080000000073B5054606200E468C
:10027000144600F08BFD10B9094802B070BDA368A8
:100280000193736800936A68B368A96800F072FE0E
:1002900010F0FF0FF0D1202363600248EDE700BFAC
:1002A000010043550000435530B501681F2985B052
:1002B000044606D80F4D2268A068002106F0A0FC75
:1002C00014E0806806F062F80028F3D10A4A07CAF1
:1002D00001AB83E8070010226260194622462046DF
:1002E000FFF7C2FF054B98420546E4D1284605B00A
:1002F00030BD00BF01004355FC70000800004355AD
:1003000070B50C46054608B9022070BD0029FBD027
:100310006C2100F0BDF8064605F16C0000F0D0F845
:100320008642F1D105F1080000F0D6F8C4E90001D9
:1003300005F1100000F0D0F82022C4E9020105F117
:10034000180104F1100006F050FC102205F15801CC
:1003500004F1300006F049FC002070BD38B50C46B1
:10036000054600283AD0002938D00B686F2B35D9C4
:1003700070220021A06806F043FCA068184900F034
:10038000E9F8A0680221043000F0E4F8A068D5E99B
:100390000023083000F0E7F8A068D5E90223103008
:1003A00000F0E1F8A06805F110012022183006F0F5
:1003B0001CFCA068102205F13001583006F015FC35
:1003C0006C21A06800F064F8A368014603F16C009A
:1003D00000F0C0F870236360002038BD022038BDF3
:1003E000D4B3515AF0B50F469BB0064618B311B3BB
:1003F0000AAC202500212A46204606F001FC0023F5
:1004000001A8019502930394FFF74EFF01B291B941
:1004100012ACE8232A46204604930593069606F07C
:10042000EFFB07AA04A901A8079508950994FFF70F
:100430001BFF00B208B1022027E006F1E80307A97C
:1004400004A804950595069300F09DF8044600283D
:10045000F1D106F1080000F03FF8C7E9000106F10C
:10046000100000F039F82A46C7E9020106F1180128
:1004700007F1100006F0B9FB102206F1A00107F108
:10048000300006F0B2FB3C6420461BB0F0BD00001B
:1004900010B50A4C01444FF0FF33884201D1D843D4
:1004A00010BD10F8012B5340082213F0010F4FEA42
:1004B000530318BF6340013AF7D1EEE72083B8ED4C
:1004C00048B14378027843EA02228378C07843EA4D
:1004D000022340EA0320704730B5002837D0047863
:1004E00000232202002544781D4314432B0243EAD3
:1004F00014632202002584781D4314432B0243EA2F
:10050000146322020025C4781D4314432B0243EADE
:1005100014632202002504791D4314432B0243EA8D
:1005200014632202002544791D4314432B0243EA3D
:100530001463220200258479C0791D4314432B02E1
:1005400043EA1463220200211043194330BD002006
:10055000002130BD30B10B0AC17083700B0C090E45
:1005600043700170704768B1110AC2718171110C3A
:10057000120E02711A0AC37082701A0C1B0E41719E
:10058000427003707047F0B54B6844689C421FD1BD
:100590000023806889681A4624F00F07BB4208D3FD
:1005A000C5180B44291A8C420BD850421043C00F77
:1005B000F0BD23F00306043385598E5975402A4354
:1005C000ECE715F8011B13F8016B71400A43E9E7EA
:1005D0000120F0BD014B186000207047F40000209E
:1005E00008B5044B1B6813B11B68984708BD02206F
:1005F00008BD00BFF4000020044B1B6810B51BB100
:1006000012B19B69984710BD022010BDF400002074
:1006100008B5044B1B681BB110B11B6A984708BD95
:10062000022008BDF400002008B5044B1B681BB174
:1006300011B15B6A984708BD022008BDF400002094
:1006400038B5054678B100F0FDF8044624B22846D6
:1006500000F032F82CB900B2002814BF04200020AA
:1006600038BD042038BD022038BD0000024B1B6895
:1006700003B11847704700BFF800002010B5A0B9BB
:1006800099B192B10A4B0B4C1B68B4FBF3F404FB19
:1006900003340C604FF48001B1FBF3F15943091BA3
:1006A000B1FBF3F14B43136010BD022010BD00BF3E
:1006B00004010020FFFF1F0070B5054608B90220A5
:1006C00070BD00F08BF8044600F090F80B4E3060DF
:1006D00000F096F80A4B1860336840F22712B2FB1C
:1006E000F3F202FB0333074A1360002CE7D1064BF9
:1006F00020461D60FFF7BAFF204670BD00010020B4
:1007000004010020FC000020F80000207FB50E4608
:1007100014464AB393683BB304AA4FF0FF3342F840
:10072000043D02A90293FFF7A9FF104B62681B6802
:10073000013AB2FBF3F202FB033322689A42054608
:100740000FD30B4A1168029A00930A44A0683244FE
:10075000002300F05FF8044618B90420FFF786FF75
:100760002546284604B070BD0225FAE700010020A6
:10077000FC0000202DE9F04184B0022402AF0E46B7
:1007800029B307F108024FF0FF3342F8043D394620
:100790003B60FFF773FF104B3A681968CB1D23F0DD
:1007A0000703E846ADEB030D02AD044600910023BC
:1007B000284600F02FF848B931462846FFF712FEC8
:1007C00003B2044613B90720FFF750FFC546204681
:1007D0000837BD46BDE8F081FC000020024B1868D8
:1007E00003689B68184700BF5800002008B5034BFA
:1007F000186803689B6A984708BD00BF580000202E
:1008000008B5034B18680368DB6A984708BD00BF4A
:100810005800002037B50649069D0C6821680095F0
:10082000002501954D6901462046A84703B030BD1B
:1008300058000020024B1B6803B11847704700BFE7
:100840000801002038B5054600F058F8044628B9DC
:10085000034B1D60FFF7EEFF204638BD0224FBE787
:1008600008010020F0B505469FB018B902242046C3
:100870001FB0F0BD00230822184900936846019379
:1008800000F046F804240646D0B96846FFF718FE83
:1008900007460DEB0400FFF713FE022810D1104BA2
:1008A00070229F4208BF0024314602A806F0A8F932
:1008B00034B97022094902A800F02AF838B104249A
:1008C00023B2002BD3D10620FFF7B4FFCFE7294690
:1008D00002A8FFF715FD0446F2E700BF00A00008DC
:1008E000D4B3515A38B5036804462BB9051D02D05C
:1008F000284600F01DF82560206838BD08B503487B
:10090000FFF7F0FF00F024F8002008BD0C010020E4
:1009100070B50D46164604460448FFF7E3FF33461C
:100920002A462146BDE8704000F044B80C01002082
:100930007047704704F000BA04F0E0B904F0FEB963
:1009400004F000BA03680BB9031D03600068704728
:1009500070B50B4E05463046FFF7F4FF284604F00D
:100960000FF90446284604F0E7F901F0DBFD686062
:100970003046FFF7E7FF201C18BF0120404270BD42
:100980001801002038B505460948FFF7DBFF284667
:1009900004F0F8F8003018BF01204442686808B13C
:1009A00001F0D6FD0248FFF7CDFF204638BD00BF5D
:1009B000180100202DE9F0410A4C0F461646054665
:1009C00098462046FFF7BEFF43463A463146284642
:1009D00001F0F8F905462046FFF7B4FF2846BDE8C8
:1009E000F08100BF180100202DE9F84316461C468F
:1009F00080460F4604F0A0F90546404604F0A2F9EF
:100A00008146404604F09AF9B6FBF5F305FB136303
:100A100003B917B94FF0FF3443E0331981444B4514
:100A2000F8D82148FFF78EFFC4B33146404604F0A2
:100A300065F9B6FBF0F300FB1363C31AA34228BFAA
:100A40002346BA0701D19D4220D9AB4228BF2B468D
:100A500099461A463946D8F8040006F0C6F8A94562
:100A600007D2D8F80400A5EB0902FF21484406F09C
:100A7000C7F8D8F804202B463146404604F0E6F883
:100A800050B9A4EB09044E444F44CDE7B3FBF5F352
:100A90006B4399463A46EFE74FF0FF340248FFF7C1
:100AA00051FF2046BDE8F88318010020F8B50D4637
:100AB0001446064604F046F90746304604F03EF96F
:100AC00038442F19B84202D24FF0FF30F8BD0FD88A
:100AD0001048FFF737FFC4B12946304604F054F8F8
:100AE00088B92946304604F009F9241A0544F2E78A
:100AF0003946304604F002F9B7FBF0F303FB1070FF
:100B00000028E1D1E4E74FF0FF340248FFF71AFF75
:100B10002046F8BD18010020C36810B504460BB18B
:100B20009B689847204610BD024B1A680AB91A1DE7
:100B30001A6070478401002010B480B114685368B3
:100B40000CB9DA070BD513F0010F4FEA63031CBF92
:100B5000C2581459184423465DF8044B18475DF8F1
:100B6000044B704770B50A4D2B68834204460ED083
:100B7000061DD0F8D820D0F8D4100023304604F059
:100B800073FDD4F8DC10304604F0A0FD2C6070BD7D
:100B90008C010020036870B59B6804460D46984799
:100BA000094BC4F8DC501B689C4209D12946201D22
:100BB00004F08CFD23682046DB68BDE870401847D0
:100BC0002046FFF7CFFFF5E78C01002038B503681A
:100BD00004469B680D4698472046FFF7C3FF294609
:100BE000201D04F091FD23680546DB6820469847E8
:100BF000284638BDF7B51F46036804469B680D4676
:100C0000164698472046FFF7ADFF94F8E030019371
:100C1000089B009329463B463246201D04F0A4FD64
:100C200023680546DB6820469847284603B0F0BD98
:100C30002DE9F04306469946274B46F8043B85B01C
:100C4000044600250F46904600219822304605F0C4
:100C5000D7FF04AB0295039513E9030004F1A0024A
:100C60001E4B82E80300C4F8A83048F20703C4F81A
:100C7000AC301B4BC4F8B450C4F8B040C4F8B82032
:100C8000C4F8BC30BFF36F8FBFF34F8F10222946DB
:100C900004F1C00005F0B4FF0823C4F8D430114BB0
:100CA000C4F8DC30FF2384F8E0309DF93030009345
:100CB00042464B463946304684F8D05084F8D150ED
:100CC000C4F8D85004F022FC2046FFF74BFF204622
:100CD00005B0BDE8F08300BF3471000801A090E8C2
:100CE000390B000840420F0010B5044B044640F891
:100CF000C03BFFF711FF204610BD00BF3471000854
:100D000010B50446FFF7F0FF204601F01FFC204617
:100D100010BD38B5044648B15830A04206D0A0F105
:100D20002C051438FFF7F8FE2846F6E7204638BDB4
:100D300038B500250446294640F8045B282205F012
:100D40005FFF1022294604F1180005F059FF2046E4
:100D500038BD000010B50A4C2046FFF7E9FF04F14A
:100D60002C00FFF7E5FF0023A365E36584F86030FE
:100D70002046044A0449BDE8104001F0B0BB00BF62
:100D80002001002000000020130D0008052804D0D9
:100D90000628034818BF002070470248704700BF6C
:100DA0007C7100084C7100080C22002105F028BF5E
:100DB00010B50446A8B103689BB1406808B15B6AEE
:100DC0009847A06838B12368D968490000F028F92D
:100DD000A06805F0F3FE20460C21BDE8104000F0AD
:100DE0001FB910BD70B5044616460D4699B190B1B5
:100DF0000B6A9847606048B156B1E968022005F077
:100E0000A3FEA06020B96B6A60689847034870BD74
:100E10002560002070BD024870BD00BF80AEFFFF9E
:100E200000AFFFFF2DE9F0410E4688B0174604469B
:100E3000002857D00368002B54D08268002A51D074
:100E4000DA68BA4217D21B694068984705460028FD
:100E500034D1236860685B693A4631469847054655
:100E600060BB236860689B6969469847054628BB54
:100E700023689F686E462368D4F80880DA683621B4
:100E8000404608EB020505F0BBFE23685C21DA68EA
:100E9000284605F0B5FE013E4346681E47449F4282
:100EA00014D1236860681B699847054630B92368E8
:100EB00060685D69DA684146A847054620216846B2
:100EC00000F0AEF8284608B0BDE8F08171781A78D5
:100ED0004A4003F8012B427816F8011F4A4000F8F7
:100EE000012FDCE7004DEDE700AFFFFF10B440B18C
:100EF000036833B1846824B15B6940685DF8044BD2
:100F0000184702485DF8044B704700BF00AFFFFF71
:100F10002DE9F0410E4688B0044630B3036823B390
:100F2000856815B3D3F80C8040689B69694698477B
:100F3000C0B9236860681B69984798B923686068DE
:100F40005F69DA6805EB0801B84758B9236860683B
:100F50005D699A686946A84720B9236860689B69FB
:100F60003146984708B0BDE8F0810148FAE700BF74
:100F700000AFFFFFF0B50E4685B017461D4604468C
:100F800010B301A8FFF710FF2146012201A8FFF7C7
:100F900029FF044690B93A46314601A8FFF742FFBF
:100FA000044658B90A9A294601A8FFF79FFF04464C
:100FB00020B90B9901A8FFF7ABFF044601A8FFF782
:100FC000F7FE204605B0F0BD004CFAE700AFFFFF8A
:100FD00000F08EB800F035B810B5044600F02CF8DB
:100FE0002046BDE8104005F0E9BD10B56C21012098
:100FF00005F0AAFD044608B100F01AF8204610BD1D
:10100000012300F0EAB9002300F0E7B900F04FB97E
:1010100000F00CB9012100F019B8002100F016B859
:10102000024B0A461B680021184700BF3000002011
:101030006C22002105F0E4BD10B16C21FFF7F0BF78
:10104000704708B56C2205F0D0FD08BD0023036091
:101050004360B9B9184B8360184BC360184B0361E8
:10106000184B4361184B8361184BC361184B0362E3
:1010700003F17453A3F52303A3F6924343628166FD
:1010800000207047134B8360134BC36003F1794317
:1010900003F5740303F501630361104B4361104BC7
:1010A000836103F1D14303F5C01303F51E63C361EC
:1010B0000C4B03620C4BE1E767E6096A85AE67BB40
:1010C00072F36E3C3AF54FA57F520E518C68059B2A
:1010D000ABD9831FD89E05C107D57C3639590EF789
:1010E000310BC0FFA78FF964A44FFABEFFF7AEBF64
:1010F0002DE9F04FCBB000F1080300931A4600230E
:1011000002A852F8044B40F823400133082BF7D1D2
:1011100002AC94E85004059BDDF824B0069D089FBE
:10112000DDF81CC00193ADF118024FF0000EBEF1C6
:101130000F0F62D84B7891F800901B0443EA0968BE
:10114000CB7848EA030391F8028043EA082313644A
:10115000354B53F82E301846136C4FEAF5281844D7
:1011600088EAB5188CEA070388EA75682B40804442
:101170007B409844019BCDF804A0D84443441846D2
:1011800046EA04094FEA743306EA040B83EAB4031F
:1011900009EA0A0949EA0B0983EAB4530EF1010E80
:1011A0004B44BEF1400F434401F1040102F104023B
:1011B000BB461BD1029309970690CDF820C0079536
:1011C00003940496CDF814A00023009A02A9126893
:1011D00051F823100A440099013341F8042B082BDD
:1011E0000091F2D100204BB0BDE8F08FB2466746C7
:1011F0002646AC461C46054699E7936BD2F8049008
:101200004FEAF34888EA734888EA9328536A1846F5
:10121000136818444FEAB94383EAF913804483EA18
:10122000D90908EB090392E7BC7100082DE9F041E8
:1012300005460F46144612B90020BDE8F081036848
:1012400003F03F0013449A422B6082BF6B68013366
:101250006B6008B3C0F14006B24216D305F128080E
:101260003246404405F0C1FC41462846FFF740FFA6
:101270000028E2D13744A61B3446311B3F2C3944A9
:101280000CD8002CD8D00F460020283522463946ED
:10129000284405F0AAFCCFE71646EDE72846FFF7FD
:1012A00027FF0028C9D1403CE7E7FFF7BFBF03682D
:1012B00070B503F03F030446581C234480223828AD
:1012C0000D4683F8282004F1280674D8C0F13802AE
:1012D0000021304405F094FC236861685A0F42EA0B
:1012E000C102110EDB0084F86010110C84F861104B
:1012F00084F86320110A1A0E84F864201A0C84F80A
:1013000065201A0A84F8621084F8662084F8673031
:1013100031462046FFF7ECFE00284BD1E37A2B70D4
:1013200063896B70A3681B0AAB70A368EB70E37BE7
:101330002B71E3896B71E3681B0AAB71E368EB7196
:10134000E37C2B72638A6B7223691B0AAB7223697D
:10135000EB72E37D2B73E38A6B7363691B0AAB73D8
:101360006369EB73E37E2B74638B6B74A3691B0A55
:10137000AB74A369EB74E37F2B75E38B6B75E36947
:101380001B0AAB75E369EB7594F823302B76638CFD
:101390006B76236A1B0AAB76236AEB76A36E4BB996
:1013A00094F827302B77E38C6B77636A1B0AAB7753
:1013B000636AEB7770BDC0F140020021304405F054
:1013C0001FFC31462046FFF793FE0028F2D101466C
:1013D000382230467EE7FFF76ABFF0B59DB01C4665
:1013E000064601A80F461546FFF722FE214601A832
:1013F000FFF72CFE044658B93A46314601A8FFF7DC
:1014000015FF044620B9294601A8FFF750FF0446FE
:1014100001A8FFF711FE20461DB0F0BD0020704767
:101420000020704730B5084D11448A420BD012F8A5
:10143000013B5840082340F300042C40013B84EA60
:101440005000F8D1F1E730BD2083B8ED084A0260C2
:1014500010210022426082600273C18102824261D7
:101460008261C261026242638263C263704700BFED
:10147000C472000800EBC101406B496A0A4400993C
:10148000FFF798BA04312DE9F8430746904699468C
:10149000102400EBC1056A680899786B4B464244FA
:1014A000FFF7A2FA064620B1012001F089F8013CBD
:1014B000F1D13046BDE8F883F8B50746102400EBBB
:1014C000C106B26A716A786BFFF7F0FA054620B17F
:1014D000012001F075F8013CF3D12846F8BD000069
:1014E0002DE9F74F0446406BFFF728FA0646606B7C
:1014F000FFF726FA31468046606BFFF71DFA384B3E
:10150000B8FBF0F00130984294BF80004FF0FF30FC
:1015100001F008F810228246324904F1240005F057
:1015200064FB0027D4F82890AAF104023B46BB468E
:101530003D4601920093B8F1000F24D03146606B14
:10154000FFF7FAF9019A009B42F8046F0135B9F1EF
:10155000000F12D004EBCB0EDEF824108E4200D028
:101560005BB1DEF8283007449F420AD1BBF1000F7F
:1015700009D15B4600274FF0010B0644A8EB000899
:10158000D7E70123F9E70AEB85014AF82560B9F1AD
:10159000000F19D1C4F83090013D0120CE466B1CDC
:1015A00012D004EBC0070A68BB6A51F8046D1A44F4
:1015B000921BB2F5805FBA6204D37E6220B1C4F898
:1015C00028E00020013DEAE7BAF1000F05D05046BF
:1015D00003B0BDE8F04F00F0BBBF03B0BDE8F08F33
:1015E000FEFFFF1F340000202DE9F04183691360E6
:1015F000A2B0064688461446002502AFB369B5EB93
:10160000D31F19D222680097803A22608023414676
:101610003046FFF72FFF38B980235A1EB95CFF29E7
:1016200005D022681344236022B0BDE8F081134640
:10163000002AF2D10135E1E70020F5E72DE9F04F6E
:10164000A5B09A46319CDDF8C8800123236002AC26
:101650000094082307468B461546FFF70BFF064606
:1016600028B14FF0FF36304625B0BDE8F08F224656
:1016700004214FF0FF30FFF7D5FE2F9BBDF80A4045
:101680001E80BDF80830C3F30B02A8F80020339A7F
:1016900003F470431380349B220B1A70B8F80030A7
:1016A000FA899342814607DB40F6FE72934203D0EB
:1016B000319A00231360D6E7309BC4F30B0408353E
:1016C000EBB104AB4FF0800A2E9344B3A245D04651
:1016D0002E9B0093A8BFA04643462A46594638464B
:1016E000FFF7C8FE0028BCD148462E9A4146FFF7B6
:1016F00099FEA4EB08048146A4B24544E5E75445AD
:10170000E3DD2F9B359A1C80BB6B013C2544B5FB68
:10171000F3F505FB033313606FF00506A3E7039BA6
:101720009945C5D1BDF80A302F9AC3F30B03138036
:10173000BB6B359A013DB5FBF3F505FB0333B9E708
:101740002DE9F04F85B09346BDF83820109DDDF8A7
:1017500044901343ADF808309DF83C3045EA03331C
:10176000ADF80A30074600238A4602AA04214FF04A
:10177000FF300393FFF756FE034625B14A4629463C
:10178000FFF750FE03460393BB6B082B2CD9D7F809
:101790003C8008220DEB0201404605F026FA45B3D5
:1017A00008220DEB0201404605F01FFABE6B083E11
:1017B000AE4228BF2E463246494608F1080005F0E1
:1017C00014FAAD1B06F10804CDF8008023465A46F2
:1017D00051463846FFF756FE804668B16FF0010863
:1017E000404605B0BDE8F08F082400260DEB040844
:1017F000EAE72E460824E7E75C4455B14E440096DC
:101800002B46224651463846FFF73CFE0028E5D1DC
:101810002C44BB6B129A013CB4FBF3F404FB03337E
:101820001360DDE700B589B0049306ABADF818206E
:1018300003930022082302930192009240F6FE7364
:10184000ADF81A200792FFF77BFF09B05DF804FBA3
:101850002DE9F04F1C46836BA5B0082B8ABF9BB2C5
:101860008023D0F83C80029398BF0DF11008CDF88A
:101870000080082307468B469246FFF7FBFD20B108
:101880004FF0FF3025B0BDE8F08FB8F80250B8F93E
:101890000020C5F30B05002A05F1080308DABB6B2D
:1018A0002E9A013CB4FBF3F404FB03331360E9E725
:1018B000BA692344934231D2CBF10102D2B20AF188
:1018C000080A08F108034FF008090392029AA2EBF4
:1018D0000906B6B2AE42A8BF2E4666B9B144CDF8ED
:1018E00000804B46224603993846FFF7CBFD60B196
:1018F0006FF00100C6E7009352463346594638461A
:10190000FFF7B8FD0028E9D0BAE7AD1BADB24C44F3
:10191000B24443468146002DD8D1C0E76FF006009F
:10192000B0E700002DE9F04F856B1F460F23B3FB96
:10193000F5F303FB055540F6FF73994289B0044661
:101940000E46904626D012F4004F23D107AB017B00
:101950000493139B0393BDF848300293C1F1010136
:1019600000230093019733462A46C9B2FFF7E8FEE9
:10197000002856D1227B236AC2F10102154318F4D4
:10198000804F14BF0222002245EA0775154343F831
:101990002650079DDFF890A04FF000080DF11C0BBA
:1019A000E3891FFA88F9994522DA236A53F82960F6
:1019B00016EA0A0219D0277B06F001039F4214D1D0
:1019C000CDF800B02B4639462046FFF741FF40BB1B
:1019D00006F07042154306F006062E43236AC7F14F
:1019E0000107374343F82970079D08F10108D7E73D
:1019F000228A217B013292B2C1F10101228207AB1E
:101A0000C9B22046FFF70EFF58B9217B6561C1F1CD
:101A1000010323732046FFF74FFD002818BF6FF026
:101A2000010009B0BDE8F08FF8FFFF0F2DE9F04F7E
:101A3000456895B00446002D40F0B480012108307F
:101A400000F0C2FC012807D06368002B40F0AA8098
:101A5000012000F0B5FDF7E7E089800000F062FDAD
:101A6000E6892062ADF82E502B4629465A1CB34217
:101A700092B204DA40F8235001211346F6E709B187
:101A8000ADF82E30012000F05FFD4FF0FF33A36171
:101A9000E061082000F058FD0546FEF749FF656348
:101AA0002846FEF755FF606BFEF744FF082838BF55
:101AB00008200828A06302D000F034FDE06320462F
:101AC000FFF70EFD0DF12B0700250DF140083E46F6
:101AD000A9460DF13C0B022D5FFA85FA51D004EBBB
:101AE000C502A169926A914294BFA161A26107F8FF
:101AF000019F424651462046CDF82480C8F8009008
:101B00002BF81590FFF770FD099B1B6808F104087E
:101B10001BB901233B700135DDE70DAB07930CAB1F
:101B200005930DF12E0304930EAB03930DF13203D5
:101B3000019312AB009306960823CDF8089000227B
:101B400051462046FFF77AFD063008BFCDF83890A1
:101B50000E9B2BB1BDF82E2040F6FE739A4204D0A6
:101B600051462046FFF7A8FCD3E70D9ABDF8483050
:101B7000626102222BF815303A7084F80CA023829F
:101B8000C9E79DF82C30012B10D19DF82D50012D67
:101B900029D10021217304F114032A462046FFF7BE
:101BA00041FE6560002015B0BDE8F08F022B1AD110
:101BB0009DF82D30022B16D1BDF83C30BDF83E20EB
:101BC000934201DC002B3CD100232373217B14AB17
:101BD00003EB4103C1F1010133F8143C2382C9B284
:101BE0002046FFF769FC0DAD0CAF0DF12E08217BEF
:101BF000626914AB03EB810353F8103C9A421DD287
:101C00000EAB0393012302934FF000090DF1320351
:101C1000019307954B4606960597CDF81080CDF8B1
:101C200000902046FFF70AFD0E9B63B901930093D5
:101C30001A4640F6FF712046FFF774FE01236360E9
:101C4000B0E70123C1E7BDF83000BDF82E10226ACD
:101C500010F4004F04D042F821900D9B6361C6E759
:101C600063699DF82BC094F80CE010F4804F43EAB0
:101C70000C7314BF0220002043EA0E03034342F812
:101C80002130EAE7F0B51D4643688DB004460F46A3
:101C900016462BB1E3899F4208DB6FF0040003E096
:101CA000FFF7C4FE0028F5D00DB0F0BD15B90DF159
:101CB00026050026236A53F8272002F0010122F0AE
:101CC000704222F00702E2B10BAB07930DF1230340
:101CD00006930DF12603059309AB04930AAB039316
:101CE000139B0293129B0193009533462046FFF706
:101CF000A5FC0028D8D10A9B002B08BF6FF0030079
:101D0000D2E76FF00200CFE713B500240194049CE2
:101D10000094FFF7B7FF02B010BD38B54368044622
:101D2000C3B1406BFEF72EFE656B2DB12846FEF762
:101D300000FE284600F00AFCE06908B100F006FC4D
:101D4000206A08B100F004FCE06B18B100F000FC60
:101D50000023E3630020A060606038BD044B10B531
:101D60000360436804460BB1FFF7D7FF204610BD60
:101D7000C472000810B50446FFF7F0FF204600F0DB
:101D8000E5FB204610BD0000EFF31083DB4372B685
:101D9000044A117829B9044903F001030B700123A7
:101DA000137070479101002090010020034B002226
:101DB0001A70034B1B7803B162B670479101002083
:101DC0009001002008B510461A4604F00EFF0020CE
:101DD00008BD38B504460D4603685AB182681360E1
:101DE0002046012103F0DEF829462046BDE83840B0
:101DF00003F0D4B8C268F2E770B50E460446154643
:101E000003F0AAF8013606D02A4620460021BDE894
:101E10007040FFF7DEBF70BD0022FFF7EDBF00008E
:101E200013B5044601300FD102B010BD9C420AD157
:101E30002046896803F00AF90021204602B0BDE877
:101E4000104003F08DB90C3191F900305A1CEDD1DE
:101E50000023009322461946014800F023FBE3E7E4
:101E600030010180884207B502460BD0431C09D0DF
:101E700001310BD0002319460093054800F012FBF6
:101E80004FF0FF31084603B05DF804FB0146F9E767
:101E90003001018091F900305A1C01D11846704779
:101EA000834201D1486870470C31F3E7421C13B5F7
:101EB00004460BD0FFF7EEFF431C044606D1002377
:101EC000024600931946034800F0ECFA204602B09F
:101ED00010BD00BF300101802DE9F74FD0F804A0FC
:101EE0009AF83A300446002B46D103685B6898475D
:101EF00063681B6A98423FD0DAF82030DAF808406D
:101F0000CAF82000A0EB0308DAF80C30314808EAE0
:101F10000308844246464FF0000727D0DAE90A2337
:101F20009AF83BB0A8FB0089CDE900230025BBF15E
:101F3000000F2BD05A464046494604F033FFDDE9F6
:101F4000002312EB080243EB090390465A469946D8
:101F500006460F4604F032FFB8EB000069EB0101C2
:101F6000A94208BFA0420AD2CAE90A01DAE90C2351
:101F7000B6185F41CAE90C6703B0BDE8F08F0136BF
:101F800047F10007001B61EB0501EDE722462B46F8
:101F90004046494604F01EFF224606460F4640468C
:101FA00049462B4604F016FFDDE9008918EB0208CC
:101FB00049EB0309A94508BFA04502D2CAE90A892D
:101FC000D4E7013647F10007B8EB040869EB0509CF
:101FD000F4E700BF40420F00824206D98A420BD983
:101FE000884294BF002001207047884206D98A4267
:101FF0008CBF0020012070470120704700207047EF
:102000002DE9F047466896F83A300746002B66D12E
:1020100096F83930002B62D1FFF75EFF7D68D7F864
:1020200000A06B68002B50D0D5E90C89D3E90001E2
:10203000894508BF804504D3DAF81430BDE8F0477D
:102040001847D5E90623B0EB080861EB09094B45B1
:1020500008BF42452C6906D3AB68224A934216D189
:10206000444528BF44462A6ADAF810301444EA6826
:102070001440204698473B685B68984722460146D3
:10208000306AFFF7A9FF50B33B685B69D6E795F864
:102090003B20AAB14046494604F090FEDFF8488054
:1020A000104A18EB00084FF0000949EB0109002322
:1020B0004046494604F08EFE844228BF0446D2E7DB
:1020C000A3FB080103FB0911E8E73369306AF268F2
:1020D00018441040DAF81030BDE8F0471847BDE862
:1020E000F08700BF40420F003F420F002DE9F04F44
:1020F000436893F8382085B00546002A64D193F8E8
:102100003A30002B60D103681B6898472B68DB6965
:1021100098472F4B06680122002E08BF1E461F233A
:1021200002FA03F1B1425FFA83FB02D0013BF7D11F
:102130009B464768264C3B1F1D2B28BF20273B1F73
:102140004FF0070A16F1FF300AFA03FA4FF00003C6
:1021500043F1FF313246C4FB0A0104F03BFE6C68D8
:102160002A6800232360636052680393CDE900016D
:10217000904720626C684FF000084FF000093A4623
:10218000C4E90A89A66084F83BB00120002104F06C
:1021900015FEDDE90023C4E90623039B84F83930EA
:1021A00084F83A3001380123E060C4F810A02846D2
:1021B000C4E90C8984F83830FFF78EFE284605B054
:1021C000BDE8F04FFFF71CBF05B0BDE8F08F00BFC2
:1021D00040420F0070B5044600F0DEF82368DB686B
:1021E0009847636893F83A201AB1BDE8704000F050
:1021F000DDB8012283F8392063685B68A3B120460B
:10220000FFF76AFE65686E68D5E90C01D6E9002320
:10221000994208BF904207D3F3686B602B68002B8C
:10222000EAD0B0689847E7E76368002283F839206E
:102230002046FFF7E5FED8E710B50446FFF756FF46
:1022400000F0AAF82046FFF747FE00F0AFF86368F9
:10225000D3E90C0110BD08B5FFF7EEFF08BD000083
:1022600000487047CC720008024B1B680BB1024853
:102270001847704744000020CC72000804F024BDC9
:1022800004F0D4BC04F0C4BCF0B572B6234A244FA9
:10229000002313604FF0E0224FF0FF36516801F049
:1022A0000F0101311D469A0002F1604202F56142C0
:1022B0004FEAC30EC2F88060C2F88061002202EBD0
:1022C0000E043C440132082A84F80053F7D101334C
:1022D0009942E8DC134B4FF020625A6040F2FA5208
:1022E0009860DA6000221D6111469C1801320C2AA8
:1022F0002176FAD14FF0FF3259629A620A4ADA62C5
:102300001F221A634168036840F2000282F31488B6
:102310009D4682F310880847F0BD00BF10E000E042
:1023200000E100E000ED00E0020000C010B588B060
:1023300000F032F81F2101A8FFF76EFD0424039B73
:10234000019A1A60962000F03BF9049B019A1A60EA
:10235000962000F035F9013CF1D10424039B019A49
:102360001A604FF4C87000F02BF9049B019A1A60B0
:102370004FF4C87000F024F9013CEFD1DEE7EFF331
:102380001080C04300F001007047EFF3058000307B
:1023900018BF01207047000008B5FFF7F5FC024A9E
:1023A00013680133136008BDD8010020054B1A687B
:1023B00032B11A68013A1A601B680BB9FFF7F6BC14
:1023C000704700BFD801002050E8003F0B4440E8B0
:1023D0000032002AF8D11846704750E8003F5B1AD7
:1023E00040E80032002AF8D1184670472DE9F04144
:1023F0001B4C1C4E237836EA200628BF0646012BCC
:102400008EB00F46904600D1FEE7174DFFF7C4FF90
:1024100001232370FFF7CAFF2B6800220133342108
:1024200001A82B6004F0ECFB2B680196012BCDF882
:102430000880039704D1342201A90C4804F0D5FB8D
:10244000342201A90A4804F0D0FB0A4B1B680BB1E7
:1024500007489847002020700EB0BDE8F08100BF0B
:10246000E40100200101FF80DC010020E8010020E0
:102470001C020020E00100200FB410B5074C2178A9
:10248000724631B90648FFF7B1FF0120207000F015
:1024900028F8BDE8104004B0704700BFE4010020F8
:1024A0000001FF8008B511467246FFF79FFF50B943
:1024B000FFF76BFF10B9FFF762FF08B930BFFDE708
:1024C000012000F00EF8014808BD00BF0F01FF8099
:1024D00002F048BC08B508B1FFF728FFFEE701206D
:1024E000704708B5FFF7F6FF012070477047704747
:1024F00008B5FFF7FBFF08BD08B5FFF7F8FF08BDFB
:10250000037803F00302012A1DBF43F002030370A6
:10251000012000207047037823F0030343F00103F8
:102520000370704737B5054604F040FB044630B9E8
:102530000090034601462A460248FFF7B3FF2046B3
:1025400003B030BD1F010180FFF7ECBF04F036BBC4
:1025500004F034BB70477047074B08499A68084835
:1025600010B5043A52F8044F41F8044F8142F9D1B2
:102570004FF080529A6010BD00ED00E0FCFFFF0FAD
:102580008401001008B5FFF7E7FF02F031FDFFF707
:10259000E2FF08BD08B5FFF7DDFFBDE8084003F026
:1025A00033BE70B50446FFF75BFE0646FFF753FEE9
:1025B00005463046FFF74FFE401BA042F9D370BDE1
:1025C0004FF47A735843FFF7ECBF00000F49D1F87E
:1025D000883043F47003C1F888300D4B1A6800202E
:1025E00042F001021A6098601A6822F0A85222F4A0
:1025F00010221A604FF48052DA601A6822F48022A6
:102600001A609861034B8B60704700BF00ED00E0DB
:10261000001002400000000830B5B9B014220021BB
:102620000546684604F0ECFA4422002105A804F0AF
:10263000E7FA0021882216A804F0E2FA264B19686E
:1026400011F4806102D0002039B030BD0124684609
:10265000009400F0A9FD07230593002D38D14FF415
:102660008033069307940023142208930325022342
:102670000124129205A8072210950F93119413922A
:102680001493159300F034FB0028DCD10F23029043
:1026900003900490042168468DE8280000F084FD32
:1026A0000028D0D10D4B16934FF44063299316A800
:1026B0004FF48073379300F077FF0028C3D11023C5
:1026C0000B900F9005A8059300F012FB2046BBE786
:1026D0004FF4A0230693C6E700100240200002003A
:1026E00008B50020FFF798FF20B90348BDE808406F
:1026F000FFF7C2BE08BD00BFCC730008DFF820D0D2
:10270000002103E0074B5B58435004310648074B58
:1027100042189A42F6D3FFF759FFFDF76BFD704759
:1027200000800010E87B000800000020D800002096
:10273000FEE7704708B5032000F008F80F2002F00C
:1027400039FCFFF7F6FF002008BD0000074AD368F8
:1027500023F4E0631B041B0C43F0BF63000243F44B
:10276000003300F4E0600343D360704700ED00E005
:10277000324B1A69920741BF31494A6842F001025F
:102780004A601B691B0741BF2D4A536843F002038F
:1027900053602A4B1A69D00641BF29494A6842F062
:1027A00004024A601B69990641BF254A536843F0F9
:1027B00008035360214B1A69520641BF20494A68F9
:1027C00042F010024A601B691B0641BF1C4A536855
:1027D00043F020035360194B1A69D00541BF1849D3
:1027E0004A6842F040024A601B69990541BF144A99
:1027F000536843F080035360104B1A69520441BF81
:102800000F494A6842F480724A601B691B0441BF49
:102810000B4A536843F400735360084B9A69002ACB
:10282000BFBF07494A6842F480624A609A6942F031
:1028300000429A614CF2FA321A617047002002405D
:1028400020040020074A536943F48023536172B681
:1028500001F58073401A0A680A5004319942FAD18E
:1028600062B6704700200240064B5A69002ABFBF7B
:10287000054A9A6002F188329A60BABF5869C00F5F
:10288000002070470020024023016745034A536936
:1028900043F0004353610020704700BF0020024016
:1028A00070B5054602F08CFB1E4C06462369D80322
:1028B00026D4236999071FD423691A071CD42369D6
:1028C000DB0619D423699E0616D423695D0613D44A
:1028D0002369180610D42369D9050DD423699A05F4
:1028E0000AD423695B0407D40E490A6912F4004232
:1028F00002D18B69002B0CDAFFF73AFF012070BD83
:102900006B1CD3D002F05CFB801B8542CED8032029
:1029100070BD086910F00100FAD001230B61104668
:1029200070BD00BF002002402DE9F047244C9A46BC
:102930002378012B0746884691463FD001234CF26D
:1029400050302370FFF7ACFF064620BB60601D4887
:10295000056815F4806517BF0368257723F4806345
:1029600003601CBF02232377D7B9456945F00105F1
:102970004561C8F800900125C8F804A04CF2503019
:10298000FFF78EFF064625B10E4A536923EA050577
:10299000556100F051F8002323703046BDE8F08700
:1029A0007B1E012B01D90025E8E749464046FFF789
:1029B00049FF022FF7D14FF48025DFE70226ECE72D
:1029C0002004002000200240094B10F0010F1EBF20
:1029D0005A6942F004025A61820742BF5A6942F4BE
:1029E00000425A615A6942F480325A61704700BF0E
:1029F000002002400F4B5A6911F0010F14BF22F45E
:102A0000006242F400625A615A694FF4FF6191FA20
:102A1000A1F1B1FA81F122F4FF62884010435861BC
:102A20005A6942F002025A615A6942F480325A618C
:102A3000704700BF00200240144B1A7F012A02D0C9
:102A40001A7F032A0CD1124A116841F40061116007
:102A5000116821F400611160116841F40071116086
:102A60001A7F022A02D01A7F032A0CD1084A116861
:102A700041F480511160116821F480511160116896
:102A800041F48061116000221A7770472004002011
:102A9000002002402DE9F047354C2378012B0646F3
:102AA000884662D001274CF250302770FFF7F8FEBD
:102AB000054640BB2F4B60601A6812F4007F1A680D
:102AC00026D022F400721A601A68510506D51A68D9
:102AD00022F480621A600323237700E027773368AB
:102AE000012B1FD17068FFF76FFF4CF25030FFF7DA
:102AF000D7FE204A536923F4004323F0040305461C
:102B00005361FFF799FF002323702846BDE8F08743
:102B1000520505D51A6822F480621A600223DBE7A9
:102B20002077DCE74FF0FF33C8F80030B768DFF8F4
:102B30004490DFF844A0B368F26813449F42E0D2A7
:102B400071683846FFF756FF4CF25030FFF7A8FE89
:102B5000D9F8143003EA0A03C9F8143018B1C8F8D8
:102B600000700546CDE70137E5E70225CDE700BF58
:102B7000200400200020024005F8FFFF024B1868E7
:102B800000F4C060704700BF00700040024A536804
:102B900043F40073536070470070004037B51E4D1A
:102BA000AB6DDA00044618D5FFF7E8FFB0F5007FFB
:102BB00023D1802C29D9A02C8CBF02200120174AB8
:102BC000136823F0070303431360136803F007033C
:102BD000181A18BF012003B030BDAB6D43F080530D
:102BE000AB65AB6D03F080530193019BFFF7C6FF0C
:102BF000AB6D23F08053AB65D8E7802C07D808D0A5
:102C0000A4F1700358425841D9E70020D7E70320C8
:102C1000D5E70220D3E700BF0010024000200240A9
:102C20002F4B9A6812F00C0F10B509D09A6802F079
:102C30000C020C2A2DD1DA6802F00302012A28D1F5
:102C40001A682849120755BFD3F894201A68C2F3AE
:102C50000322C2F3031251F82220996811F00C0FDD
:102C60000CBF10460020996801F00C010C2930D1EE
:102C7000DC68D868C0F30210411C04F0030002288D
:102C800019D0032826D0B2FBF1F2D868C0F3062091
:102C900017E09A6802F00C02042A07D09A6802F042
:102CA0000C02082A04D110480022DCE70F48FBE799
:102CB00000200246D7E7DA680C48C2F30622B0FBD0
:102CC000F1F0DB68C3F34163013350435B00B0FBB9
:102CD000F3F010BDDA680448C2F30622EFE700BF44
:102CE000001002400C74000800127A000024F40066
:102CF00003682DE9F3410446D80639D5A94DAB68E0
:102D000013F00C0F5ED12B68990703D5A3690BB99B
:102D100001207BE02B68206A1A0756BFD5F8943053
:102D20002B681B0903F0F003834236D2FFF736FF0E
:102D30000028EDD12B6843F008032B602B68226A32
:102D400023F0F00313432B606B68E26923F47F43A5
:102D500043EA02236B60FFF763FFAB68924AC3F359
:102D60000313D35CD840914B18600F2002F022F976
:102D70002368DE075DD423689D0700F1A5802368E2
:102D8000190700F1E38023685A0700F11181A16A55
:102D9000002940F07881002038E02B6843F00803D8
:102DA0002B602B6823F0F00303432B606B68E26910
:102DB00023F47F4343EA02236B60FFF7EFFE002812
:102DC000C9D0A5E7A36923B32B6843F001032B60A7
:102DD00002F0F6F806462B689B0711D52B6843F0E6
:102DE00008032B602B68226A23F0F00313432B6047
:102DF0006B68E26923F47F4343EA02236B60B7E721
:102E000002F0DEF8801B0228E5D9032002B0BDE8FD
:102E1000F0812B6823F001032B6002F0D1F8064605
:102E20002B689F07A4D502F0CBF8801B0228F7D9A6
:102E3000EBE75C4DAB6803F00C03082B09D0AB68E3
:102E400003F00C030C2B0BD1EB6803F00303032BF3
:102E500006D12B6898038ED56368002B8BD157E77A
:102E60006368B3F5803F10D12B6843F480332B6047
:102E700002F0A6F806462B6899033FF57CAF02F0F6
:102E80009FF8801BC828F6D9BFE7B3F5A02F04D15F
:102E90002B6843F480232B60E6E72A6822F4803213
:102EA0002A602A6822F480222A60002BE0D102F0F6
:102EB00087F806462B689A037FF55DAF02F080F82D
:102EC000801BC828F6D9A0E7364DAB6803F00C0389
:102ED000042B09D0AB6803F00C030C2B13D1EB6867
:102EE00003F00303022B0ED12B685B0503D5E368C7
:102EF000002B3FF40DAF6B68226923F0F85343EACF
:102F000002636B603BE7E3687BB12B6843F480733B
:102F10002B6002F055F806462B685F05EBD402F0F3
:102F20004FF8801B0228F7D96FE72B6823F48073D2
:102F30002B6002F045F806462B6858057FF51FAF59
:102F400002F03EF8801B0228F6D95EE76369154D52
:102F50009BB1D5F8943043F00103C5F8943002F0EA
:102F60002FF80646D5F894309B073FF50CAF02F0DA
:102F700027F8801B0228F5D947E7D5F8943023F0CD
:102F80000103C5F8943002F01BF80646D5F89430DA
:102F90009F077FF5F8AE02F013F8801B0228F5D9E1
:102FA00033E700BF00100240F17300084800002022
:102FB0007B4DAB6DDE0027D4AB6D43F08053AB652A
:102FC000AB6D03F080530193019B0127754E33686D
:102FD000D8051BD5A368012B29D1D5F8903043F033
:102FE0000103C5F8903001F0EBFF41F28838064646
:102FF000D5F890309A0740D5002F3FF4C8AEAB6D9E
:1030000023F08053AB65C2E60027DFE7336843F463
:103010008073336001F0D4FF80463368D905D9D47A
:1030200001F0CEFFA0EB08000228F6D9EDE6052B53
:1030300006D1D5F8903043F00403C5F89030CCE7C2
:10304000D5F8902022F00102C5F89020D5F8902004
:1030500022F00402C5F89020002BC4D101F0B0FF8B
:1030600041F288380646D5F890309B07C4D501F068
:10307000A7FF801B4045F6D9C7E601F0A1FF801BE2
:103080004045B5D9C1E6464B9A6802F00C020C2ABD
:103090001D465AD01B68022923F080732B6037D15C
:1030A00001F08EFF06462B689F012BD4626BE36A0A
:1030B00043EA0223226B013A43EA0213A26B12098C
:1030C00043EA4243E26B5208013A43EA4253226C1C
:1030D0005208013A43EA4263EB602B6843F0807385
:1030E0002B60EB6843F08073EB6001F069FF0446EE
:1030F0002B6898013FF54FAE01F062FF001B0228DC
:10310000F6D982E601F05CFF801B0228CBD97CE671
:103110002B68190106D42B689A005EBFEB6823F078
:103120000303EB60EB6823F0887323F48033EB60D8
:1031300001F046FF04462B689B017FF52CAE01F0A1
:103140003FFF001B0228F6D95FE69A68E16A02F0A9
:1031500003028A427FF4DCAD9A68216B02F07002B0
:103160008A427FF4D5AD9A68616B02F4FE428A42CE
:103170007FF4CEAD9A68A16B02F400328A427FF4EC
:10318000C7AD9A68E16B02F4C0028A427FF4C0AD19
:103190009868236C00F0C060C01A18BF012035E6A3
:1031A0000010024000700040564A136803F0070305
:1031B0008B422DE9F04105460E462BD32B68D907EB
:1031C00035D429688A0700F183804E4A136803F0DA
:1031D00007039E42C0F0848011F0040F4A4C40F077
:1031E0008A800B0706D5A3682A6923F4605343EA53
:1031F000C203A360FFF714FDA368444AC3F303139B
:10320000D35CD840424B18600F2001F0D3FE002061
:10321000BDE8F081136823F007030B4313601368C4
:1032200003F007039942C9D00120BDE8F0816A6824
:10323000354C032A23681CD113F0007FF4D0A36817
:1032400023F003031343A36001F0BAFE6B68032B62
:10325000074641F2883818D1A36803F00C030C2B01
:10326000AFD001F0ADFEC01B4045F5D90320BDE84D
:10327000F081022A02D113F4003FDFE712B913F004
:10328000020FDBE713F4806FD8E7022B0AD1A368A3
:1032900003F00C03082B94D001F092FEC01B4045B4
:1032A000F5D9E3E773B9A36813F00C0F89D001F0E7
:1032B00087FEC01B4045F6D9D8E701F081FEC01B50
:1032C0004045D3D8A36803F00C03042BF5D178E76D
:1032D0000D4AA868936823F0F0030343936074E7F2
:1032E000136823F0070333431360136803F00703E5
:1032F0009E4299D170E7A368EA6823F4E063134320
:10330000A3606EE70020024000100240F173000845
:1033100048000020044B054A9B68C3F30223D35C9A
:10332000034A1068D840704700100240017400083A
:1033300048000020044B054A9B68C3F3C223D35CBA
:10334000034A1068D840704700100240017400081A
:10335000480000200F2303600B4B9A6802F0030221
:1033600042609A6802F0F00282609A6802F4E062B9
:10337000C2609B68DB0803F4E0630361034B1B68D6
:1033800003F007030B60704700100240002002406A
:10339000F8B5454BDA6812F0030F05460E461C4699
:1033A00000682AD0DA6802F0030282423CD1002A87
:1033B0003AD0DB686A68C3F302130133934233D116
:1033C000236823F08063236001F0FAFD0746236839
:1033D0001A0132D4AF68002E36D0012E50D12269A6
:1033E000286922F4C002400822F4FE42013842EA71
:1033F000072242EA4052226132E0022810D003281C
:1034000014D0012810D11B689F0738D5E3686A687B
:1034100023F07303013A184340EA0210E060CFE75B
:103420001B6813F4806FF1D10120F8BD1A68910375
:10343000ECD41B6813F4802FF5E701F0C1FDC01B2D
:103440000228C4D90320F8BD2169EB6821F41F319B
:1034500021F4407141EA07211B0941EA43412161FE
:10346000236843F08063236001F0AAFD06462368C9
:103470001B0113D52369AA69134323610020F8BDFA
:103480002369686923F0C063400823F4FE430138D0
:1034900043EA072343EA40632361E1E701F090FD3B
:1034A000801B0228E3D9CDE700100240F8B53D4B60
:1034B000DA6812F0030F05460E461C46006828D055
:1034C000DA6802F0030282423AD1002A38D0DB687F
:1034D0006A68C3F302130133934231D1236823F0A6
:1034E0008053236001F06CFD074623689A0030D4B6
:1034F000A868002E34D06369296923F0C0634908A5
:1035000023F4FE43013943EA002343EA4163636144
:1035100032E0022810D0032814D0012810D11B68F3
:103520009F0738D5E3686A6823F07303013A1843AC
:1035300040EA0210E060D1E71B6813F4806FF1D11C
:103540000120F8BD1A689103ECD41B6813F4802F96
:10355000F5E701F035FDC01B0228C6D90320F8BDF0
:103560006269EB6822F41F3222F4407242EA0022C0
:103570001B0942EA43426261236843F0805323609F
:1035800001F01EFD064623689B0005D563696A6944
:10359000134363610020F8BD01F012FD801B022877
:1035A000F1D9DBE7001002402DE9F347066816F475
:1035B0000066044624D0416EB1F5800F2CD002D8AD
:1035C000C1B101261CE0B1F5000F0DD0B1F5400FDF
:1035D000F7D1534A616ED2F8883023F440030B438D
:1035E000C2F8883000260BE04D4AD36843F480339C
:1035F000D360EEE70430FFF7CBFE06460028E8D0A4
:103600002368D80406D5A16EB1F1807F7CD008D89C
:10361000A9B10126354621E000212030FFF746FF01
:10362000EBE7B1F1007F04D0B1F1407FF1D1354635
:1036300009E03B4AD36843F48033D360F7E7201DA9
:10364000FFF7A6FE0546002D64D1354AA16ED2F8DB
:10365000883023F040730B43C2F888302368990305
:1036600040F15B812E4FBB6DDA0055D4BB6D43F04A
:103670008053BB65BB6D03F080530193019B4FF0FA
:103680000108DFF8A090D9F8003043F48073C9F83E
:10369000003001F095FC8246D9F80030DB0543D5B7
:1036A000002D48D1D7F8903013F4407315D0D4F8DA
:1036B0008420934211D0D7F89030D7F8902042F46C
:1036C0008032C7F89020D7F8902023F4407322F47A
:1036D0008032C7F89020C7F89030D80709D501F09C
:1036E0006FFC41F288390546D7F89030990740F1D0
:1036F0000D81D7F89030D4F8842023F4407313431D
:10370000C7F89030354616E0002104F12000FFF79D
:10371000CDFE97E72E46A1E74FF00008B1E700BFC6
:10372000001002400070004001F04AFCA0EB0A00CB
:103730000228B1D90325B8F1000F03D0BB6D23F0E7
:103740008053BB652368DA0708D58A49A06BD1F896
:10375000882022F003020243C1F888209F0708D581
:103760008449E06BD1F8882022F00C020243C1F8B2
:1037700088205E0708D57F49206CD1F8882022F088
:1037800030020243C1F88820180708D57949606CD7
:10379000D1F8882022F0C0020243C1F88820D9065F
:1037A00008D57449A06CD1F8882022F440720243F5
:1037B000C1F888209A0608D56E49E06CD1F88820B7
:1037C00022F440620243C1F888209F0508D5694968
:1037D000E06DD1F8882022F440220243C1F888200D
:1037E0005E0508D56349206ED1F8882022F4401286
:1037F0000243C1F88820580608D55E49206DD1F8EB
:10380000882022F440520243C1F88820190608D5C6
:103810005849606DD1F8882022F440420243C1F833
:103820008820DA0508D55349A06DD1F8882022F404
:1038300040320243C1F888209B040FD54D4AE16E07
:10384000D2F8883023F040630B43B1F1006FC2F827
:10385000883064D1D36843F48013D36023681F0396
:103860000FD5444A216FD2F8883023F040630B43D0
:10387000B1F1006FC2F888305CD1D36843F4801393
:10388000D36023685E030FD53A4A616FD2F888305F
:1038900023F040630B43B1F1006FC2F8883054D17C
:1038A000D36843F48013D3602368580412D5314998
:1038B000A26FD1F8883023F040531343B2F1805FF8
:1038C000C1F888304CD10221201DFFF761FD00288E
:1038D00018BF05462268110408D52649E06FD1F8C3
:1038E000883023F080430343C1F88830D30309D5DF
:1038F000204AD4F88010D2F8883023F000430B43DC
:10390000C2F88830284602B0BDE8F08701F058FBC5
:10391000401B48457FF6E8AE0CE7354612E7B1F1AB
:10392000806F9BD10121201DFFF732FD002818BFB9
:10393000054693E7B1F1806FA3D10121201DFFF768
:1039400027FD002818BF05469BE7B1F1806FABD17A
:103950000121201DFFF71CFD002818BF0546A3E725
:10396000B2F1005FB6D1022104F12000FFF79EFD05
:10397000ADE700BF0010024003685A6822F0E00281
:103980005A604268B2F5827F0AD18268B2F5004F70
:1039900002D0B2F5806F03D11A6822F040021A609B
:1039A000826AB2F5005F07D11A6822F400521A60E9
:1039B0001A6842F400521A60012380F85D30002337
:1039C00080F85C30032070472DE9F041DDF8188065
:1039D00005460F4616461C462A68936837EA0303D5
:1039E0000CBF012300239E4202D10020BDE8F081DC
:1039F000631CF2D024B92846BDE8F041FFF7BCBFF4
:103A000001F0DEFAA0EB08008442E5D8F3E72DE9E7
:103A1000F341089D0746884616461C463A6890685A
:103A200000EA0800B04201D100200FE0B8F5C06FF5
:103A300006D12EB9137BDBB28DF807309DF8073025
:103A4000631CECD02CB93846FFF796FF02B0BDE8F6
:103A5000F08101F0B5FA401B8442DFD8F3E773B57B
:103A60000B4600920D4616464FF4C0510022044604
:103A7000FFF7CDFF024628B1236E43F020032366F3
:103A8000032011E000962B4680212046FFF79CFF83
:103A900002460028F0D100962B464FF4C061204624
:103AA000FFF7B5FF0028E7D102B070BD4368B3F55A
:103AB000827FF7B504460E4617460BD18368B3F5EF
:103AC000004F02D0B3F5806F04D12268136823F051
:103AD0004003136000973346002280212046FFF701
:103AE00073FF054628B1236E43F0200323660325A8
:103AF00014E06368B3F5827F10D1A368B3F5004F7B
:103B000002D0B3F5806F09D10097334600224FF4FD
:103B1000C0612046FFF77BFF0028E4D1284603B0B0
:103B2000F0BD7047F8B50446002858D090F85D30D5
:103B300003F0FF021BB980F85C20FFF7F2FF0223BD
:103B4000216884F85D300B68E26823F04003B2F529
:103B5000E06F0B604FF000033ED91D46B2F5706F69
:103B600018BFA362236B2BB9B2F5E06F8CBF0223A1
:103B700001232363A7686368A06AA6693B4327699A
:103B80003B4367693B43E7693B43276A3B43034346
:103B900006F400773B430B60236B022B02BF0B68DC
:103BA00043F400630B60636A1A43636B360C1A4379
:103BB00006F00406B0F5005F42EA060208BFE36AB9
:103BC00042EA05024A604FF0000008BF0B61012382
:103BD000206684F85D30F8BD4FF48055C0E70120C1
:103BE000F8BD2DE9F3411E4690F85C30012B0446E8
:103BF0000D46904600F0CE80012380F85C3001F045
:103C0000DFF9074694F85D00C0B2012840F0C0809B
:103C1000002D6DD0B8F1000F6AD0032384F85D3019
:103C2000002323662364A4F83E80A4F84430A4F85B
:103C300046302365E364A3682068A563B3F5004FAD
:103C400008BF0368A4F83C8004BF43F480430360CA
:103C5000A36AB3F5005F07D1036823F40053036040
:103C6000036843F40053036003685B065EBF0368A8
:103C700043F040030360E368B3F5E06F636848D93D
:103C80001BB1E38F9BB2012B06D135F8023BC36019
:103C9000E38F013B9BB2E387E38F9BB2F3B9A36A47
:103CA000B3F5005F04D12268136843F480531360B6
:103CB0003A4631462046FFF7D2FE08B1202323665C
:103CC000A368B3F5004F59D12268136823F040036D
:103CD0001360206E003018BF012009E023689A6845
:103CE000900703D535F8022BDA60D1E74EB90320EF
:103CF000012384F85D30002384F85C3002B0BDE815
:103D0000F081711CC8D001F05BF9C01B8642C3D89A
:103D1000EDE71BB1E38F9BB2012B0AD1E38F9BB27E
:103D2000012B16D935F8023BC360E38F023B9BB2EF
:103D3000E387E38F9BB2002BB1D023689A68920788
:103D400012D5E28F92B2012A0BD935F8022BDA6034
:103D5000EBE72B780373E38F013B9BB2E3870135DD
:103D6000E7E72A781A73F6E7002EC0D0731CE0D07C
:103D700001F026F9C01B8642DBD8B8E7002BA8D19A
:103D800001932368DA6801929B680193019BA0E785
:103D90000220ADE70220B1E72DE9F04385B0984657
:103DA0000023ADF80E3090F85C300C9E012B0446D9
:103DB0000D46914600F0A781012380F85C3001F0A8
:103DC000FFF894F85D306168DBB2012B07460AD03A
:103DD000B1F5827F40F09581A268002A40F0918180
:103DE000042B40F08E81002D00F07481B9F1000F9A
:103DF00000F07081B8F1000F00F06C8194F85D3034
:103E0000C4F84090042B1CBF052384F85D300023C8
:103E10002366E3642365A36AA4F84680B3F5005FD4
:103E2000A4F84480A563A4F83E80A4F83C802368ED
:103E300007D11A6822F400521A601A6842F400523C
:103E40001A60E068B0F5E06F04D8B4F8462092B28A
:103E5000012A36D95A6822F480525A601A685206EA
:103E60005EBF1A6842F040021A60B0F5E06F7DD97B
:103E700019B1E28F92B2012A06D135F8022BDA602D
:103E8000E38F013B9BB2E3874FF00108E38F9BB2C6
:103E9000DBB9B4F846309BB2BBB9A36AB3F5005F97
:103EA00040F0018101220097334611462046FFF77A
:103EB0008BFD002800F0EC80236E43F002032366A4
:103EC00049E05A6842F48052C7E7B8F1000F28D0A1
:103ED000E38F9BB22BB323689A68920721D535F8FC
:103EE000022BDA60E28F013A92B2E287B4F83E80A8
:103EF0001FFA88F8B8F1000F11D1A16AB1F5005F7F
:103F00000FD11A68500706D45A68110742BF1A68C1
:103F100042F400721A601A6842F480521A604FF03C
:103F20000008B4F846309BB273B123689A68D20790
:103F30000AD5DB6829F8023BB4F84630013B9BB256
:103F4000A4F846304FF00108701C9FD001F038F8FB
:103F5000C01B86429AD80325012384F85D300023D4
:103F600084F85C30284605B0BDE8F08319B1E28FD3
:103F700092B2012A0AD1E28F92B2012A6CD935F8A5
:103F8000022BDA60E38F023B9BB2E3874FF001081C
:103F9000E38F9BB22BB9B4F846309BB2002B3FF4B1
:103FA0007CAFB8F1000F2ED0E38F9BB2002B2AD04C
:103FB00023689A68910726D5E28F92B2012A53D9D5
:103FC00035F8022BDA60E38F023B9BB2E387B4F84B
:103FD0003E801FFA88F8B8F1000F12D1A26AB2F53C
:103FE000005F10D123681A68520706D45A68100778
:103FF00042BF1A6842F400721A601A6842F4805292
:104000001A604FF00008B4F846309BB2E3B1226862
:104010009368D90718D5B4F846309BB2012B2BD939
:10402000D36829F8023BB4F84630023B9BB2A4F8AF
:104030004630B4F846309BB2012B03D8536843F4A2
:10404000805353604FF00108731CA1D000F0B8FFFB
:10405000C01B86429CD87EE72A781A73E38F013B07
:104060009BB2E387013591E72A781A73E38F013B0E
:104070009BB2E3870135AAE7137B89F80030B4F8D7
:104080004630013B9BB2A4F8463009F10109D9E75B
:10409000E368B3F5706F23681ED1DB689BB2ADF89F
:1040A0000E30BDF80E302268956815F0100507D067
:1040B000236E43F0020323664FF6EF7393600125EE
:1040C0003A4631462046FFF7CAFC00283FF444AF89
:1040D0002023236601253FE71B7BADF80E30BDF89A
:1040E0000E30236B022BDED101220097334611469E
:1040F0002046FFF769FC00287FF4DEAE23681B7BB7
:10410000CDE7022528E702252CE72DE9FF411D46D2
:104110000023ADF80E304368B3F5827F04460E46A7
:1041200090460CD1836853B9042380F85D30134660
:1041300000950A46FFF730FE04B0BDE8F08194F820
:104140005C30012B00F0F480012384F85C3000F037
:1041500037FF074694F85D00C0B2012840F0E680C2
:10416000002E00F09080B8F1000F00F08C80042346
:1041700084F85D3000232366A363A4F84680A387F8
:10418000E387E3642365A36A2664B3F5005FA4F8BC
:10419000448023680DD11A6822F400521A601A680C
:1041A00042F400521A60B4F84620013A92B2A4F8E0
:1041B0004620E1685A68B1F5E06F8CBF22F4805266
:1041C00042F480525A60A268B2F5004F02BF1A68EA
:1041D00022F480421A601A6850065EBF1A6842F0E4
:1041E00040021A60B1F5E06F1ED9B4F846309BB2B8
:1041F000FBB123689A68D10754D5DB6826F8023BE7
:10420000B4F84630013B9BB2A4F84630EDE7236892
:104210009A68D20735D51B7B06F8013BB4F84630C7
:10422000013B9BB2A4F84630B4F846309BB2002B59
:10423000EDD1A36AB3F5005F49D12268136843F456
:1042400080531360012200972B4611462046FFF74A
:10425000BBFBB8B9E368B3F5E06F23684FF0010228
:104260008BBFDB681B7B3380337000972B46114676
:104270002046FFF7A9FBF8B1236E43F00203236643
:1042800000E03DB90320012384F85D30002384F869
:104290005C3051E7681CC7D000F092FEC01B85421D
:1042A000C2D8EFE7002DEDD06A1C9ED000F088FE4A
:1042B000C01B854299D8E5E7E2682368B2F5706FC4
:1042C0001DD1DB689BB2ADF80E30BDF80E303A461A
:1042D00029462046FFF7EAFB08B12023236622681F
:1042E0009368DB0606D5236E43F0020323664FF680
:1042F000EF739360206E003018BF0120C3E71B7B73
:10430000ADF80E30B2F5E06FBDF80E30DFD1236BA3
:10431000022BDCD1012200972B4611462046FFF7E5
:1043200053FB0028A8D123681B7BCCE70220AAE717
:10433000022001E770470000304A0368904212D023
:10434000B0F1804F0FD0A2F5943290420BD002F51D
:104350008062904207D002F58062904203D002F55D
:104360009432904219D14A6823F070031343234AD0
:1043700090421DD0B0F1804F1AD0A2F594329042F5
:1043800016D002F58062904212D002F5806290420F
:104390000ED002F5943290420AD0194A904207D0CA
:1043A00002F58062904203D002F58062904203D110
:1043B000CA6823F4407313434A6923F0800313430C
:1043C00003608B68C3620B6883620C4B98420FD00A
:1043D00003F5006398420BD003F54063984207D081
:1043E00003F58063984203D003F58063984201D1BE
:1043F0000B69036301234361704700BF002C014038
:104400000040014010B50446A0B190F83D3003F0E3
:10441000FF021BB980F83C20FFF78CFF022384F8D1
:104420003D302068211DFFF787FF012384F83D30D0
:10443000002010BD012010BD036A10B501248C407E
:1044400023EA04030362036A8A401A43026210BD2E
:1044500010B5044600220068FFF7EEFF2368184AF3
:1044600093420FD002F5006293420BD002F54062F6
:10447000934207D002F58062934203D002F5806236
:1044800093420DD1196A41F21112114208D1196AF1
:1044900040F24442114202BF5A6C22F400425A6474
:1044A000196A41F21112114208D1196A40F24442CC
:1044B000114203D11A6822F001021A60002010BDD7
:1044C000002C014010B5044601220068FFF7B4FF3C
:1044D00023680E4A93420FD002F5006293420BD03C
:1044E00002F54062934207D002F58062934203D006
:1044F00002F58062934203D15A6C42F400425A643E
:104500001A6842F001021A60002010BD002C014020
:10451000FFF7D8BF704700000268C169F8B50446CC
:10452000836800691568034360690343BA480B4315
:104530002840034313605368E06823F44053034367
:104540005360B64BA0699A421CBF236A1843936814
:1045500023F4306303439360B14B9A4219D103F5BE
:104560005843B04AD3F8883003F00303B1F5004F45
:10457000D35C40F03881082B00F28F80DFE813F025
:104580001A01CA00F9008D0014018D008D008D0004
:104590003600A54B9A4207D103F5E633A34AD3F878
:1045A000883003F00C03E1E7A14B9A4223D103F5D5
:1045B000E433D3F8883003F03003102B00F0F1809F
:1045C0000BD8002B00F0F380B1F5004F4FF0010243
:1045D0004FF0000300F0F880A8E0202B00F0C68028
:1045E000302BF1D1B1F5004F40F0B880606843083E
:1045F00003F58033C3E08F4B9A421ED103F5E233BB
:10460000D3F8883003F0C003402B00F0BB800AD8F9
:104610007BB9824B9A4240F0CA80FEF77BFE0023B2
:10462000B0BB02463AE0802B00F09D80C02B00F02A
:10463000B0807A4B9A42C7D12FE07F4B9A4211D17A
:1046400003F5E033D3F8883003F44073B3F5807F8B
:1046500000F09880DCD9B3F5007F00F08480B3F5DA
:10466000407FE4E76D4B9A42AED103F5C833D3F8EF
:10467000883003F44063B3F5806F00F08380C7D9BE
:10468000B3F5006F6FD0B3F5406FD0E76B480223EE
:10469000626802EB4201814205D9012200232366B0
:1046A00063661046F8BDB0EB023FF6D8082B2ED853
:1046B000DFE803F0052D1C2D242D2D2D2700FEF7FE
:1046C00029FE62684FF4807156080027E1FB0067FD
:1046D00000233046394602F07DFB0022584BA0F5FE
:1046E00040719942D9D82368D860D7E75548550812
:1046F00000230021401941F10001ECE7FEF790FA98
:10470000DFE750080021002310F50000F3E7012245
:104710000020E3E7FEF70EFE4EE0FEF7FBFD6268C9
:1047200000EB5203B3FBF2F39BB20022A3F11000A3
:104730004FF6EF718842B0D82168CB60AEE7FEF744
:10474000F9FDECE76068430803F5740303F51053C3
:10475000B3FBF0F3E8E7FEF763FAE0E760684308CD
:1047600003F50043F4E72D4B9A428FD0B1F5004F8B
:10477000E8D16068430803F1F47303F59043B3FB99
:10478000F0F31FE0254B9A420BD1FEF749FA0423C0
:1047900046E7224B9A427FF425AF4FF400400823AE
:1047A00076E7B1F5004FD6D1FEF73AFA04E0B1F55D
:1047B000004FB2D1FEF7AEFD61684A0802EB40033C
:1047C000B3FBF1F39BB20022A3F110004FF6EF719F
:1047D00088423FF662AF23F00F012068C3F3420323
:1047E0000B43C3605AE7082B3FF657AF01A252F8BC
:1047F00023F000BF1B4700083F470008454700085B
:104800009B460008574700089B4600089B46000847
:104810009B4600085D470008F369FFEF00800040F9
:1048200000380140E073000800440040E4730008D1
:1048300000480040004C0040005000400024F400BC
:10484000FFFC0F00000024F4436ADA0710B506D518
:104850000168846A4A6822F4003222434A609C0755
:1048600006D50168C46A4A6822F4803222434A604D
:10487000590706D50168046B4A6822F48022224356
:104880004A601A0706D50168446B4A6822F4004260
:1048900022434A60DC0606D50168846B8A6822F4EC
:1048A000805222438A60990606D50168C46B8A68E3
:1048B00022F4005222438A605A060FD50168046C24
:1048C0004A6822F480122243B4F5801F4A6005D161
:1048D0004A68446C22F4C00222434A601B0606D593
:1048E0000268816C536823F400230B43536010BDAE
:1048F0002DE9F041069D04460F461646984621686C
:10490000CA6937EA02030CBF01220022B24202D078
:104910000020BDE8F0816B1CF2D09DB923681A68B5
:1049200022F4D0721A609A6822F001029A60202361
:1049300084F8713084F87230002384F870300320DA
:10494000BDE8F08100F03CFBA0EB08008542D6D228
:10495000E4E773B504460026466700F031FB2368A0
:104960001B681A07054617D423681B685B070AD51E
:104970006FF07E43009300222B464FF480012046C7
:10498000FFF7B6FFA0B92023002084F8713084F827
:10499000700084F872300CE06FF07E430093324672
:1049A00003464FF400112046FFF7A2FF0028DBD09A
:1049B000032002B070BD10B5044660B390F87130AA
:1049C00003F0FF021BB980F87020FFF7A3FD2268F7
:1049D000242384F87130136823F001031360204608
:1049E000FFF79AFD012816D0636A13B12046FFF73E
:1049F0002BFF23685A6822F490425A609A6822F08A
:104A00002A029A601A6842F0010220461A60BDE844
:104A10001040FFF79EBF012010BD90F87030012BB1
:104A20000FD00268242380F87130136843F002032A
:104A30001360202380F87130002380F8703018460E
:104A400070470220704790F87030012B0FD0026839
:104A5000242380F87130936843F40003936020238B
:104A600080F87130002380F87030184670470220BB
:104A7000704790F87030012B0FD00268242380F823
:104A80007130136823F002031360202380F8713023
:104A9000002380F87030184670470220704790F865
:104AA0007030012B0FD00268242380F87130936896
:104AB00023F400039360202380F87130002380F8F2
:104AC000703018467047022070470000264A274978
:104AD00013681B0754BFD2F894301368906854BF12
:104AE000C3F30323C3F3031300F00C0010B551F814
:104AF00023401F490C2835D8DFE800F03434343423
:104B0000073434341234343414001A4B0B60936875
:104B1000194AC3F30313D25C0B68D3400B6010BD7A
:104B2000164BF3E7D068D36800F00300C3F3021319
:104B3000022803F1010304D0032811D0B4FBF3F3DE
:104B400002E00C48B0FBF3F3D468D068C0F34160D6
:104B5000C4F30624013063434000B3FBF0F3D5E710
:104B60000648EFE70C60D2E7001002400C74000822
:104B7000480000200024F400F173000800127A00BD
:104B8000002070470020704730B52A4D87B00C4692
:104B90000023298801934FF6FF7399421DBF264BCE
:104BA00003EA812303F100634FF00163A34204D8B9
:104BB0004FF0FF34204607B030BDB4F1006FF7D39B
:104BC000FDF752FE0028F3D11C4B4FF400421A614E
:104BD0002B884FF6FF72934201D1194B04E0194A1A
:104BE00002EA432202F10063174909689C4234BF7C
:104BF00004F17842E21AC9054FEAD22214D49C4249
:104C00002CBF0223012300210291039301A9012358
:104C100002A804920593FDF73DFF003018BF012064
:104C20004442FDF733FEC5E79C422CBF012302231B
:104C3000E9E700BFE075FF1F00FC3F0000200240D5
:104C40000000080800FE1F0000000140F7B51F46E5
:104C5000284B1B8816464FF6FF7293421DBF264A0B
:104C600002EA832202F100624FF001628A420C469E
:104C700004D84FF0FF35284603B0F0BDB1F1006F06
:104C8000F7D37B07F5D1FDF7EFFD0028F1D116F042
:104C90000305274426D005460FE02B46F25C0DF8AD
:104CA00003200133082BF9D1DDE900232146002040
:104CB000FDF73AFE50B908340836BC4203D2002D45
:104CC000EBD04FF0FF35FDF7E1FDD4E74FF0FF35B6
:104CD000F3E7D6E9002321462846FDF725FE30B943
:104CE00008340836BC42EED2002DF2D0E9E74FF08E
:104CF000FF35F7E7E075FF1F00FC3F000C4B1A88FB
:104D00004FF6FF739A421DBF0A4B03EA822303F159
:104D100000634FF001638B4207D9B1F1006F34BFDC
:104D20004FF0FF304FF4006070474FF0FF30704796
:104D3000E075FF1F00FC3F00082070474FF0006047
:104D400070470000054B1B884FF6FF7293421ABF55
:104D5000034800EA83204FF480107047E075FF1F7E
:104D600000FC3F00084A094908B513681844884206
:104D700006D901F0F1FE0C2303604FF0FF3008BDAF
:104D80001060184608BD00BF4C00002000800120C4
:104D900070B5466805460C46284600F01FFA002804
:104DA000FAD07823054AE9687343D35811B9E4B2BD
:104DB0001C8570BDC4F30804FAE700BF400400205E
:104DC00008B50C4A836E934207D002F574429342B1
:104DD00007D0A2F57842934207D1BDE80840FEF71C
:104DE00099BABDE80840FEF7A5BA0348FDF744FBB1
:104DF000002008BD003C00403C74000830B503684A
:104E000091FAA1F4B4FA84F491FAA1F10325B1FA6C
:104E100081F1640005FA04F4490023EA040302FA6C
:104E200001F11943016030BD10B58AB0072872D86E
:104E3000DFE800F004121E2A36424E65384BDA6C69
:104E400042F00102DA64DB6C03F001030193019B81
:104E50004FF090400AB010BD314B3248DA6C42F04E
:104E60000202DA64DB6C03F002030293029BF1E7B7
:104E70002B4B2D48DA6C42F00402DA64DB6C03F051
:104E800004030393039BE5E7254B2848DA6C42F0C3
:104E90000802DA64DB6C03F008030493049BD9E78F
:104EA0001F4B2348DA6C42F01002DA64DB6C03F02B
:104EB00010030593059BCDE7194B1E48DA6C42F0B1
:104EC0002002DA64DB6C03F020030693069BC1E743
:104ED000134CA36D43F08053A365A36D03F080537F
:104EE0000793079BFDF752FEE36C134843F0400322
:104EF000E364E36C03F040030893089BAAE7084BC4
:104F00000E48DA6C42F08002DA64DB6C03F0800356
:104F10000993099B9EE70A48FDF7AEFA002099E73E
:104F2000001002400004004800080048000C00483F
:104F3000001000480014004800180048001C0048F9
:104F40005674000810B50021044604F00F0400F068
:104F50007DF80120A04010BD70B504464B1C0E46E4
:104F6000217418D0C1F30310FFF75EFF05463046E9
:104F7000FFF7E8FF237C084A656103F00F03206018
:104F800052F82330A36105F11003636005F11803A3
:104F90002835A360E56070BD7874000890F91000B2
:104FA00000F0DEB80A4619B981694069FFF726BFEB
:104FB0000122F9E708B500F027FC002008BD000039
:104FC00008B50A4B1B684BB1FDF74AF9FDF734F9F8
:104FD0004FF47A72002301F0FDFE08BD00F074FC6E
:104FE0004FF47A73B0FBF3F008BD00BF500200200D
:104FF00008B5FFF76BFDFDF79DFBFDF771FBFFF7B4
:1050000065FD024B01221A6008BD00BF500200205E
:1050100030B5C36891FAA1F4B4FA84F491FAA1F11D
:105020000325B1FA81F1640005FA04F4490023EA8A
:10503000040302FA01F11943C16030BD012A02D014
:10504000022A18BF0022FFF7E3BF00002DE9F0415C
:10505000424B00F00F08C0F3031053F828400E46EF
:1050600001F00705FFF7E0FE836894FAA4F1B1FAB6
:1050700081F194FAA4F20327490007FA01F1B2FA88
:1050800082F223EA01035200022101FA02F21343E1
:105090008D4283602FD0BD4248D0012D46D00023E1
:1050A000026894FAA4F7B7FA87F794FAA4F14FF0DC
:1050B000030EB1FA81F17F0049000EFA07F78B4029
:1050C00022EA070213430360C36A710305F1FF3547
:1050D0004CBF2343A343012DC36205D84368320765
:1050E0004CBF2343A3434360C6F301122146BDE8EE
:1050F000F041FFF7A3BFB8F1070FC6F3032717D995
:10510000426A230A93FAA3F1B1FA81F193FAA3F365
:105110004FF00F0EB3FA83F389000EFA01F19B00F2
:1051200022EA010207FA03F3134343622B46B7E76F
:10513000026A94FAA4F3B3FA83F394FAA4F14FF059
:105140000F0EB1FA81F19B000EFA03F3890022EAF7
:10515000030207FA01F313430362E7E778740008D8
:1051600000F00F021C4B70B5C0F303100D4653F84E
:105170002240FFF759FE066894FAA4F1B1FA81F3D0
:1051800094FAA4F259000323B2FA82F28B4033401E
:105190005200D340013B012B05D8EB1E022B436884
:1051A00009D823434360032D08D101222146BDE8DD
:1051B0007040FFF743BF23EA04034360012DF4D09E
:1051C000052D01D0022D01D10222EFE72146002258
:1051D000BDE87040FFF71CBF787400084268782370
:1051E0005343034AD358D869C0F3C010704700BF77
:1051F0004004002042680168782353431D4A10B5DB
:1052000099509C1882686260C368A3600369E36078
:1052100043692361036AA3610023A4F85230E36168
:10522000A4F85030A4F85A30A4F8583090F9193046
:10523000013312D1082363610F4B994208D1B2F5B3
:10524000165F204610D8FFF7FEFB2046FFF7E5FB70
:105250002046BDE81040FFF7AEBB90F9183001338F
:105260000CBF04230C23E6E7FFF719FC2046FFF7E9
:1052700000FCEDE7400400200080004030B50268EB
:105280001D4B81609A42B5B0044624D1002188228A
:1052900012A801F0B5FC194D20231293296811F4CE
:1052A00080610FD1442201A801F0AAFC02230193DE
:1052B0004FF48073049301230B9301A810230593EB
:1052C000FDF716FD2B685B0509D44FF4806312A827
:1052D0002593FEF769F92046FFF78CFF0AE04FF4AB
:1052E000006312A82593FEF75FF92046FFF782FFBF
:1052F0000028EAD135B030BD0080004000100240E7
:10530000124B984217D0A3F57443984215D003F579
:105310008063984213D003F58063984211D003F55F
:10532000806398420FD003F5405398420CBF05208C
:105330004FF0FF3070470020704701207047022077
:105340007047032070470420704700BF00380140B9
:10535000F0B50E4687B00446554930461546FCF771
:10536000A5FD544907462846FCF7A0FD01463846EE
:10537000FCF778FD022E20600CD0032D0AD04C499A
:105380000220FCF793FD874202D14B48FDF774F8E9
:10539000002700E001272068484B984219D103F507
:1053A00058431A6E42F480421A661B6E03F480431F
:1053B0000093009B424B984228D103F5C833DA6D25
:1053C00042F00102DA65DB6D03F001030593059BF2
:1053D0001CE03C4B98420BD103F5E6339A6D42F446
:1053E00000329A659B6D03F400330193019BE1E762
:1053F000354B98423BD103F5E4339A6D42F4802259
:105400009A659B6D03F480230293029BFFF778FF5C
:10541000274960603046FCF703FD26492846FCF723
:10542000FFFC721C03D001213046FFF799FE6B1C74
:1054300003D001212846FFF793FE002F35D14FF40A
:105440001653A3600023E360236163612362267621
:1054500065762046FFF7CEFE3FB11C4B1C4801226B
:105460001A6021464C2201F0C0FB07B0F0BD194B79
:1054700098420BD103F5E2339A6D42F400229A650B
:105480009B6D03F400230393039BBFE7124B9842E9
:1054900090D103F5E0339A6D42F480129A659B6DCA
:1054A00003F480130493049BB0E74FF4E133C8E79F
:1054B0009073000854730008B87400080038014065
:1054C000008000400044004000480040540200209A
:1054D00010070020004C0040005000400268136894
:1054E00023F0400310B513600446FEF71BFB10B118
:1054F0000548FCF7C1FFA36823B92268136843F08D
:105500004003136010BD00BFFE7400082DE9F04F8A
:10551000884687B004464D499DF94060404615468F
:105520001F46FCF7C3FC4A4981462846FCF7BEFCEF
:10553000484901903846FCF7B9FC47498246304655
:10554000FCF7B4FC019B834619464846FCF78AFCED
:10555000594681465046FCF785FC01464846FCF713
:1055600081FC3E4BA06698424DD103F560431A6E14
:1055700042F480521A661B6E03F480530393039B1C
:10558000232384F8643031494046FCF749FC304914
:105590002846FCF745FC2F493846FCF741FC731CB4
:1055A00084F86C5084F86D8084F86E7084F86F60B5
:1055B00049D029493046FCF733FC4FF480230135AC
:1055C000A361A36E236008BF4FF400424FF48273BF
:1055D000636008BFA2604FF038034FF00702E36139
:1055E000E2624FF000034FF4E06218BFA360636112
:1055F0002361A362E260236263622046FFF76EFFCD
:1056000007B0BDE8F08F164B98420CD103F5EC3390
:105610009A6D42F480429A659B6D03F48043049333
:10562000049B2423ADE70F4B9842ACD103F5EA333A
:105630009A6D42F400429A659B6D03F40043059312
:10564000059B33239DE74FF40073B8E70C73000804
:10565000F4720008247300083C7300080030014015
:1056600000380040003C004010290CBF4FF470612E
:105670004FF4E061012AC1601DD0022A1ED002BB96
:10568000026142618269B2F5007F05D0002B14BF30
:1056900000224FF480228261002B14BF00234FF4BC
:1056A0008273436005D08368B3F5004F04BF0023C5
:1056B0008360FFF713BF00210161E2E7026100226E
:1056C000DFE7022202610122DBE7000070B5044639
:1056D0000E46FFF775FB0023022290FBF2F0B0426A
:1056E000DDB203DD0133082B09D10725054B33F863
:1056F0001530E3612046BDE87040FFF7EFBE90FB38
:10570000F2F0ECE7EE74000813B583680191B3F58D
:10571000004F044606D10A23012201A9FEF761FACF
:1057200002B010BD836EC1685A68B1F5706F0CBFCE
:1057300022F4805242F480525A609A689007FCD555
:10574000019AB1F5706F0BBF92B2D2B29A811A73FF
:10575000A36E9A68D207FCD5E268D868B2F5706F7C
:105760000CBF80B2C0B2DBE72DE9F84F0A9E846817
:105770009DF82CB09642354680468A461746994693
:10578000B8BF154694B9AC4202DB2846BDE8F88F95
:10579000BC42B4BF1AF8041059464046FFF7B4FFA4
:1057A000B442B8BF09F804000134ECE73AB10A2367
:1057B000534392B2FEF715FA002818BF0025002EB9
:1057C000E3D00A237343B2B249464046FEF79DFC3C
:1057D000002818BF0025D8E7074B084A13601A694C
:1057E000910707D5DA68920704D56FF002021A61B3
:1057F000FCF73ABD704700BF000C00405C0700207A
:10580000004870471475000830B589B001A903A895
:10581000FDF7A0FDFDF77EFD1F4B01909A6D1F4C1B
:1058200042F008029A659A6D02F008020292029A0A
:105830009A6B42F008029A639A6B22F008029A630C
:10584000069AA3F5013323604FF0FF33E360144B56
:10585000FAB9B0FBF3F00138002560600F4825610C
:10586000A5606561A561FEF7CDFD0E4B0E4A9B68F4
:105870000A48C3F808210D4B4FF480225A6029468C
:10588000FEF746FE2268D36823F00203D36009B016
:1058900030BD4000DDE700BF001002405C07002083
:1058A00040420F0000ED00E0D957000800E100E0A1
:1058B00004480268D36823F00203D3600021FEF796
:1058C00027BE00BF5C070020014B586A704700BF2D
:1058D000000C0040054B1B686FF0020258631A6110
:1058E000DA6842F00202DA60704700BF5C0700200D
:1058F000064B1B686FF002021A615A6942F00202FD
:105900005A61DA6842F00202DA6070475C070020F0
:10591000034B1A68D36823F00203D360704700BFBB
:105920005C070020024B1B686FF002021A6170478F
:105930005C07002008B500210348FEF789FDBDE89B
:105940000840FFF7E5BF00BF5C07002038B51468CA
:10595000002C15460ADB6FF00042944206D08C42C0
:1059600001D220B103552B6801332B6038BD194695
:105970000148FFF70DFAF6E7580200202DE9F04341
:1059800087B0DDE90E6756EA07030546884691466B
:1059900005D1302307B0BDE8F043FFF7D7BF182289
:1059A0000021684601F02CF90024304639460A22CD
:1059B000002301F00FFA30320DF8042000233046A6
:1059C00039460A2201F006FA06460F4656EA070350
:1059D00004F10104E9D1013C4A461DF80430414676
:1059E0002846FFF7B3FF002CF5D107B0BDE8F083E0
:1059F0002DE9FF4706460F46904607254FF0000960
:105A0000EA00DDE90C0101F0CDF9C0B2B9F1000FF7
:105A100001D100B93DBB174B020900F00F04EC4661
:105A200003F1100A18685968E646AEE80300083327
:105A30005345F446F6D1B9F1000F00D142B104ABA1
:105A40001A44394612F8103C30464246FFF77EFFB2
:105A500004AB1C44424614F8103C39463046FFF76C
:105A600075FF4FF0010915F1FF35C9D204B0BDE84B
:105A7000F08700BF1C750008FFF768BF2DE9F04FE5
:105A80001C469F4B93461A7887B006460D465AB17E
:105A900000221A7002219B480322FFF759FC4FF4A1
:105AA000E1319848FFF7EAFB00230593BBF1000FB3
:105AB00000F0BD809D42C0F2BA800CBF012305F109
:105AC000FF3503934FF000081BF80830002B00F05F
:105AD000AD80252B40F0B18008F101071BF807309D
